:1000000073EF00F00000000000EF00F000000000BF
:0A0010000000000000000000F3D71C
:10001C00720E326E000E336E460E346E000E356E5E
:10002C00FF0E3E6EFF0E3F6E000E406E000E416ED8
:10003C00FF0E3A6EFF0E3B6E000E3C6E000E3D6ED8
:10004C00FF0E366EFF0E376E000E386E000E396ED8
:10005C00AC8A900EAB6E948E949C9EAA03D0AECFBD
:06006C0000F0FBD71200BA
:0E007200ACB202D00000FCD746C0ADFF1200B9
:10008000456A42C0E9FF43C0EAFFEECF44F0445066
:10009000000A0DE044C046F0ECDF452A45504224FA
:1000A000E96E000E4320EA6EEECF44F0F0D7120066
:1000B0000900F5CFE6FF0006FBE10106F9E11200B9
:1000C000810EAF6EAC84AADF956A946A936AFF0EC4
:1000D000926EC10EC26EC16AFF0E926E806AF29C71
:0600E000F28CF28E12000A
:1000E600C5EC00F0EADF15C042F016C043F0C5DFEC
:1000F600010E315C02E1F40E305C08E2010E315C67
:1001060002E1900E305C02E3410E2F6E010E315C6F
:1001160002E1900E305C08E2010E315C02E12C0E29
:10012600305C02E3420E2F6E010E315C02E12C0EB2
:10013600305C08E2000E315C02E1C80E305C02E37E
:10014600430E2F6E2FC046F091DF030E0B6E8A0E04
:100156000C6E550E0D6E0D2EFED70C2EFCD70B2EEB
:0A016600FAD700000000C4D7FFD74D
:10018A0010EE15F01A0E006E010E016E700EF66E6C
:0E019A00010EF76E000EF86E58EC00F0120029
:02017000170076
:10017200436F6E6E656374696F6E2045737461625E
:080182006C69736865642100DB
:020000040030CA
:0D000100220F0EFF0181FF0FC00FE00F4026
:00000001FF
