:100000007AEF02F00000000000EF00F000000000B6
:0A0010000000000000000000F3D71C
:10001C000B6A0A6A096A00500402F4CF09F0F3CFA4
:10002C0008F001500502F4CF0BF0F3CF0AF00050AA
:10003C000502F3500926F4500A22E86A0B220150FB
:10004C000402F3500926F4500A22E86A0B2208C075
:10005C0000F009C001F00AC002F00BC003F012005E
:0E006C00ACB202D00000FCD727C1ADFF1200DD
:10007A000101256B23C1E9FF24C1EAFFEECF00F19C
:10008A000051000A0EE000C127F1EBDF0101252B28
:10009A0025512325E96E000E2421EA6EEECF00F1E8
:0400AA00EFD712007A
:1000AE006C0E01011D6F000E1E6F270E1F6F010ECD
:1000BE00206FFF0E196FFF0E1A6F000E1B6F000ED2
:1000CE001C6FFF0E116FFF0E126F000E136F000EDE
:1000DE00146FFF0E156FFF0E166F000E176F000ECA
:1000EE00186FAC8A900EAB6E948E949C9EAA03D021
:0800FE00AECF00F0FBD71200A9
:0A0106009492CA840C0EBA12120083
:10011000CB50010F006E016A000E012200C104F0F5
:10012000000E056E7BDF060E026E00C004F001C0FB
:1001300005F0025005E005320432059EFF0FFAD7A4
:10014000040E016E04C000F0015004E0003600907F
:10015000FF0FFBD7300E0014036E04C000F005C083
:1001600001F001320032019E01320032019E00C0D6
:0C017000BBFF0F0EBA160350BA121200AB
:0A017C009494CA840C0EBD12120008
:10018600CB50010F006E016A000E012200C104F07F
:10019600000E056E40DF060E026E00C004F001C0C0
:1001A60005F0025005E005320432059EFF0FFAD72E
:1001B600040E016E04C000F0015004E00036009009
:1001C600FF0FFBD7300E0014036E04C000F005C00D
:1001D60001F001320032019E01320032019E00C060
:0C01E600BEFF0F0EBD160350BD1212002C
:0801F200BE6ABD98BD9A12001F
:0801FA00BB6ABA98BA9A120020
:10020200FF0E926EFF0E936E946AF20E956E806AE6
:10021200816A826A836ACA80CA92F90ECB6EE8DF6B
:10022200CA80CA92F90ECB6EE7DFA7DF6BDF810EC1
:10023200AF6EAC843BDFC10EC26EC16A0101036BBB
:10024200046B096B0A6B0F6B106B0D6B0E6BB40EAC
:100252000B6F000E0C6FC80E016F000E026FDC0EEA
:100262000001FE6F000EFF6FC30ED56ED66AF28AD2
:0A027200800ECD6ECF6ACE6A120036
:10027C000900F5CFE6FF0006FBE10106F9E11200EB
:10028C0081A80BD0BD0E0001A36F000EA46FA3C0FC
:10029C0023F1A4C024F1EBDE0CD081B80AD0C10E3E
:1002AC000001A36F000EA46FA3C023F1A4C024F11E
:1002BC00DEDE81A60BD0BF0E0001A36F000EA46F73
:1002CC00A3C023F1A4C024F1D2DE0CD081B60AD095
:1002DC00D00E0001A36F000EA46FA3C023F1A4C025
:1002EC0024F1C5DE83A80BD0DC0E0001A36F000E39
:1002FC00A46FA3C023F1A4C024F1B9DE0CD083B841
:10030C000AD0E20E0001A36F000EA46FA3C023F16C
:10031C00A4C024F1ACDE83AA0BD0E00E0001A36FC5
:10032C00000EA46FA3C023F1A4C024F1A0DE0CD056
:10033C0083BA0AD0D40E0001A36F000EA46FA3C021
:10034C0023F1A4C024F193DE83AC0BD0D60E0001B4
:10035C00A36F000EA46FA3C023F1A4C024F187DE09
:10036C000CD083BC0AD0D80E0001A36F000EA46F72
:10037C00A3C023F1A4C024F17ADE83AE0BD0DA0E35
:10038C000001A36F000EA46FA3C023F1A4C024F13D
:10039C006EDE0CD083BE0AD0D20E0001A36F000E0D
:1003AC00A46FA3C023F1A4C024F161DE81A40BD0FF
:1003BC00DE0E0001A36F000EA46FA3C023F1A4C036
:1003CC0024F155DE0CD081B40AD0A10E0001A36F2C
:1003DC00000EA46FA3C023F1A4C024F148DE81ACAD
:1003EC000BD0190E0001A36F000EA46FA3C023F154
:1003FC00A4C024F13CDE0CD081BC0AD0170E000145
:10040C00A36F000EA46FA3C023F1A4C024F12FDEB0
:10041C0081AE0BD0150E0001A36F000EA46FA3C00C
:10042C0023F1A4C024F123DE0CD081BE0AD01B0E14
:10043C000001A36F000EA46FA3C023F1A4C024F18C
:10044C0016DE81AA0BD0220E0001A36F000EA46F42
:10045C00A3C023F1A4C024F10ADE0CD081BA0AD0C7
:10046C001D0E0001A36F000EA46FA3C023F1A4C046
:06047C0024F1FDDD120079
:0C04820021C123F122C124F1F7DD12009A
:10048E00B90E0001FA6F000EFB6FC80EE86F000E7A
:10049E00E96FFF0EE66F000EE76FC80EE46F000EF9
:1004AE00E56F000EEA6F000EEB6F400EEC6F810EE3
:1004BE00ED6FF66BF76BF86BF96BF26BF36BF46B2E
:1004CE00F56BEE6BEF6BF06BF16BFC6BFD6B010183
:1004DE00076B086B056B066BC80E006F4DDEE8C030
:0604EE0000F10FDE120018
:1004F40005EC03F084DEC9DF270E0101216F000E35
:10050400226FBDDFC1DE080E0B6E9D0E0C6E050E54
:100514000D6E0D2EFED70C2EFCD70B2EFAD7000035
:100524000000F0D70D2EFED70C2EFCD70B2EFAD7D9
:0605340000000000FFD7EB
:10060A0010EE15F0CF0E006E010E016E3A0EF66E68
:0E061A00050EF76E000EF86E3EEC01F01200B9
:02053A0031008E
:02053C0030008D
:02053E0031008A
:02054000300089
:0505420020303B200009
:0505470020313B200003
:0C054C005374617274696E672E2E2E00CD
:100558005374617274696E6720426C6F636B2020FC
:010568000092
:100569002020456E64206F66204C6576656C2032CC
:100579002E204C6576656C20332053746172746942
:050589006E6720200058
:10058E002020456E64206F66204C6576656C2031A8
:10059E002E204C6576656C2032205374617274691E
:0505AE006E6720200033
:1005B3004C6576656C2031205374617274696E6783
:0305C300202000F5
:0205C600300003
:0205C800C3006E
:1005CA00436F6E6E656374696F6E20457374616202
:0805DA006C697368656421007F
:0205E2003100E6
:0205E4003100E4
:0205E6003000E3
:0D05E8006D6F766520666F7277617264003A
:0205F5003000D4
:0205F7003000D2
:0205F9003000D0
:0205FB003100CD
:0205FD003000CC
:0205FF003100C9
:020601003100C6
:020603003100C4
:020605003100C2
:020607003000C1
:020000040030CA
:0D000100220F0EFF0181FF0FC00FE00F4026
:00000001FF
