:10000000E7EF05F00000000000EF00F00000000046
:0A0010000000000000000000F3D71C
:10001C000B6A0A6A096A00500402F4CF09F0F3CFA4
:10002C0008F001500502F4CF0BF0F3CF0AF00050AA
:10003C000502F3500926F4500A22E86A0B220150FB
:10004C000402F3500926F4500A22E86A0B2208C075
:10005C0000F009C001F00AC002F00BC003F012005E
:10006C00CB50010F006E016A000E01222CC104F06E
:10007C00000E056ECDDF060E026E00C004F001C04E
:10008C0005F0025005E005320432059EFF0FFAD749
:10009C00040E016E04C000F0015004E00036009024
:1000AC00FF0FFBD7300E0014036E04C000F005C028
:1000BC0001F001320032019E01320032019E00C07B
:0C00CC00BEFF0F0EBD160350BD12120047
:1000D800CB50010F006E016A000E01222CC104F002
:1000E800000E056E97DF060E026E00C004F001C018
:1000F80005F0025005E005320432059EFF0FFAD7DD
:10010800040E016E04C000F0015004E000360090B7
:10011800FF0FFBD7300E0014036E04C000F005C0BB
:1001280001F001320032019E01320032019E00C00E
:0C013800BBFF0F0EBA160350BA121200E3
:0C0144008298828A2AC12CF18FDF120001
:0C0150008288829A2AC12CF189DF1200FB
:0E015C00ACB202D00000FCD72AC1ADFF1200E9
:0C016A00839483862AC12CF1B2DF1200BE
:0C017600838483962AC12CF1ACDF1200B8
:0601820083848386120055
:060188008288828A120049
:10018E0027C12AF128C12BF1EFDF27C12AF128C19F
:06019E002BF1D1DF12007D
:1001A4000101296B27C1E9FF28C1EAFFEECF00F165
:1001B4000051000A0EE000C12AF1CEDF0101292B13
:1001C40029512725E96E000E2821EA6EEECF00F1B1
:0401D400EFD712004F
:1001D80027C12AF128C12BF1C4DF27C12AF128C180
:0601E8002BF1B2DF120052
:0601EE00C9DFCBDF1200A7
:0E01F40023C12AF124C12BF1BCDFC4DF1200AD
:1002020081A80BD0D80E0001D66F000ED76FD6C0D2
:1002120027F1D7C028F1C5DF0CD081B80AD0D40E9F
:100222000001D66F000ED76FD6C027F1D7C028F1D4
:10023200B8DF81A60BD0D00E0001D66F000ED76FAB
:10024200D6C027F1D7C028F1ACDF0CD081B60AD0D6
:10025200D20E0001D66F000ED76FD6C027F1D7C0DD
:1002620028F19FDF83A80BD0E00E0001D66F000EAD
:10027200D76FD6C027F1D7C028F193DF0CD083B84F
:100282000AD0E20E0001D66F000ED76FD6C027F15A
:10029200D7C028F186DF83AA0BD0DE0E0001D66F0D
:1002A200000ED76FD6C027F1D7C028F17ADF0CD065
:1002B20083BA0AD0DA0E0001D66F000ED76FD6C00D
:1002C20027F1D7C028F16DDF83AC0BD0DC0E000123
:1002D200D66F000ED76FD6C027F1D7C028F161DFE5
:1002E2000CD083BC0AD02F0E0001D66F000ED76F40
:1002F200D6C027F1D7C028F154DF83AE0BD0270E2A
:100302000001D66F000ED76FD6C027F1D7C028F1F3
:1003120048DF0CD083BE0AD0250E0001D66F000E36
:10032200D76FD6C027F1D7C028F13BDF81A40BD00D
:10033200230E0001D66F000ED76FD6C027F1D7C0AB
:1003420028F12FDF0CD081B40AD02D0E0001D66F18
:10035200000ED76FD6C027F1D7C028F122DF81ACBB
:100362000BD02B0E0001D66F000ED76FD6C027F12F
:10037200D7C028F116DF0CD081BC0AD0290E0001AB
:10038200D66F000ED76FD6C027F1D7C028F109DF8C
:1003920081AE0BD0210E0001D66F000ED76FD6C0F2
:1003A20027F1D7C028F1FDDE0CD081BE0AD01F0E86
:1003B2000001D66F000ED76FD6C027F1D7C028F143
:1003C200F0DE81AA0BD01A0E0001D66F000ED76F95
:1003D200D6C027F1D7C028F1E4DE0CD081BA0AD00A
:1003E200150E0001D66F000ED76FD6C027F1D7C009
:0603F20028F1D7DE120025
:1003F80081AA17D081A815D081A613D083A811D0BF
:1004080083AA0FD083AC0DD083AE0BD081A409D0C2
:1004180081AC07D081AE05D0010E006E000E016ED2
:080428001200006A016A1200D3
:0A0430009494CA840C0EBD12120051
:0A043A009492CA840C0EBA1212004C
:08044400BB6ABA98BA9A1200D3
:08044C00BE6ABD98BD9A1200C2
:1004540023C12AF124C12BF18CDE25C12AF126C146
:060464002BF174DE120012
:10046A00FF0E0101241902E1A60E231914E1FF0E61
:10047A00276F000E286FABDE060E0B6E950E0C6E04
:10048A008C0E0D6E0D2EFED70C2EFCD70B2EFAD726
:10049A000000A8DE1AD0000E0101241902E15A0E4A
:1004AA00231913E1FF0E276F000E286F6BDE060E6D
:1004BA000B6E950E0C6E8C0E0D6E0D2EFED70C2E3D
:0C04CA00FCD70B2EFAD700008DDE1200CC
:0E04D60023C12AF124C12BF138DE50DE1200C2
:1004E4005C0E0101196F010E1A6F2A0E1B6F010EAB
:1004F4001C6FFF0E1D6FFF0E1E6F000E1F6F000E90
:10050400206FFF0E0D6FFF0E0E6F000E0F6F000EAB
:10051400106FFF0E116FFF0E126F000E136F000E9F
:10052400146FAC8A900EAB6E948E949C9EAA03D0EA
:08053400AECF00F0FBD712006E
:10053C0081BA17D081B815D081B613D083B811D039
:10054C0083BA0FD083BC0DD083BE0BD081B409D03D
:10055C0081BC07D081BE05D0010E006E000E016E6D
:08056C001200006A016A12008E
:1005740081AA01D183B812D083AA10D083AC0ED043
:1005840083BE0CD081B40AD007C123F108C124F181
:10059400F4C025F1F5C026F15BDFECD083B812D0AE
:1005A40083AA10D083AC0ED083AE0CD081B40AD011
:1005B400F4C023F1F5C024F1F4C025F1F5C026F10F
:1005C40047DFD8D083B812D083BA10D083AC0ED012
:1005D40083BE0CD081B40AD0F4C023F1F5C024F159
:1005E400F4C025F1F5C026F133DFC4D083B812D0AE
:1005F40083BA10D083AC0ED083AE0CD081B40AD0B1
:10060400F4C023F1F5C024F107C125F108C126F196
:100614001FDFB0D083A80ED083BA0CD083BC0AD01D
:1006240083BE08D081B406D0F4C023F1F5C024F110
:1006340050DFA0D083A80ED083AA0CD083BC0AD0EC
:1006440083BE08D081B406D0F4C023F1F5C024F1F0
:1006540040DF90D083A80ED083AA0CD083AC0AD0FC
:1006640083BE08D081B406D0F4C023F1F5C024F1D0
:1006740030DF80D083B80ED083AA0CD083BC0AD0DC
:1006840083BE08D081B406D0F4C023F1F5C024F1B0
:1006940020DF70D083B80ED083BA0CD083BC0AD0CC
:1006A40083AE08D081B406D0F4C023F1F5C024F1A0
:1006B4009FDD60D083B80ED083BA0CD083AC0AD04F
:1006C40083AE08D081A406D0F4C023F1F5C024F190
:1006D4008FDD50D083B80ED083BA0CD083BC0AD03F
:1006E40083AE08D081A406D0F4C023F1F5C024F170
:1006F4007FDD40D083B80ED083BA0CD083BC0AD03F
:1007040083BE08D081A406D0F4C023F1F5C024F13F
:100714006FDD30D083A812D083AA10D083AC0ED062
:1007240083AE0CD081B40AD0F4C023F1F5C024F117
:10073400F4C025F1F5C026F18BDE1CD083B812D0AD
:1007440083AA10D083AC0ED083AE0CD081A40AD07F
:10075400F4C023F1F5C024F1F4C025F1F5C026F16D
:1007640077DE08D047DE0050011002E048DD02D0F9
:100774003CDD45DD99D181A817D081A615D083A889
:1007840013D083AA11D083AC0FD083BE0DD081B413
:100794000BD081BC09D081BE07D00101A60E236F06
:1007A400FF0E246F60DE80D181A817D081A615D0FA
:1007B40083A813D083AA11D083AC0FD083AE0DD0FD
:1007C40081B40BD081BC09D081BE07D0A60E010133
:1007D400236FFF0E246F47DE67D181A817D081A64F
:1007E40015D083A813D083AA11D083AC0FD083AEC5
:1007F4000DD081A40BD081BC09D081BE07D0A60E38
:100804000101236FFF0E246F2EDE4ED181B817D065
:1008140081B615D083A813D083AA11D083AC0FD08E
:1008240083AE0DD081A40BD081AC09D081AE07D0AA
:100834005A0E0101236F000E246F15DE35D181B8E5
:1008440017D081B615D083B813D083AA11D083AC46
:100854000FD083AE0DD081A40BD081AC09D081AE72
:1008640007D05A0E0101236F000E246FFCDD1CD14A
:1008740081B817D081B615D083B813D083BA11D0FC
:1008840083AC0FD083AE0DD081A40BD081AC09D042
:1008940081AE07D05A0E0101236F000E246FE3DDF1
:1008A40003D183A80ED083BA0CD083BC0AD083BEF4
:1008B40008D081B406D0F4C023F1F5C024F109DED8
:1008C400F3D083A80ED083AA0CD083BC0AD083BEF5
:1008D40008D081B406D0F4C023F1F5C024F1F9DDC9
:1008E400E3D083A80ED083AA0CD083AC0AD083BEF5
:1008F40008D081B406D0F4C023F1F5C024F1E9DDB9
:10090400D3D083B80ED083AA0CD083BC0AD083BEC4
:1009140008D081B406D0F4C023F1F5C024F1D9DDA8
:10092400C3D083B80ED083BA0CD083BC0AD083AEB4
:1009340008D081B406D0F4C023F1F5C024F158DC0A
:10094400B3D083B80ED083BA0CD083AC0AD083AEB4
:1009540008D081A406D0F4C023F1F5C024F148DC0A
:10096400A3D083B80ED083BA0CD083BC0AD083AE94
:1009740008D081A406D0F4C023F1F5C024F138DCFA
:1009840093D083B80ED083BA0CD083BC0AD083BE74
:1009940008D081A406D0F4C023F1F5C024F128DCEA
:1009A40083D083A812D083AA10D083AC0ED083AE98
:1009B4000CD081B40AD007C123F108C124F1F4C0DA
:1009C40025F1F5C026F144DD6FD083B812D083AA97
:1009D40010D083AC0ED083AE0CD081A40AD0F4C066
:1009E40023F1F5C024F107C125F108C126F130DD5A
:1009F4005BD083B812D083AA10D083AC0ED083BE50
:100A04000CD081B40AD007C123F108C124F1F4C089
:100A140025F1F5C026F11CDD47D083B812D083AA96
:100A240010D083AC0ED083AE0CD081B40AD0F4C005
:100A340023F1F5C024F1F4C025F1F5C026F108DD59
:100A440033D083B812D083BA10D083AC0ED083BE17
:100A54000CD081B40AD0F4C023F1F5C024F1F4C061
:100A640025F1F5C026F1F4DC1FD083B812D083BA87
:100A740010D083AC0ED083AE0CD081B40AD0F4C0B5
:100A840023F1F5C024F107C125F108C126F1E0DC0A
:100A94000BD052DD0050011003E001EC01F004D052
:0A0AA400F7EC00F001EC01F0120085
:100AAE000900F5CFE6FF0006FBE10106F9E11200B1
:100ABE00FF0E926EFF0E936E946AF20E956E806A22
:100ACE00816A826A836ACA80CA92F90ECB6EB7DCDB
:100ADE00CA80CA92F90ECB6EAEDCA3DCA7DC810E07
:100AEE00AF6EAC84F8DCC10EC26EC16A0101016B3F
:100AFE00026B0001FE6BFF6B01010B6B0C6B096B44
:100B0E000A6BB40E076F000E086FC80E0001FC6F63
:100B1E00000EFD6FDC0EF46F000EF56FC30ED56E7A
:0E0B2E00D66AF28A800ECD6ECF6ACE6A1200B1
:100B3C00B90E0001EE6F000EEF6FC80EFA6F000ECB
:100B4C00FB6FFF0EF86F000EF96FC80EF66F000EFC
:100B5C00F76F000EF06F000EF16F400EF26F810E0A
:100B6C00F36F0101036B046B056B066B0001E46B07
:100B7C00E56BE66BE76BE86BE96BEA6BEB6BEC6BCD
:100B8C00ED6B0101176B186B156B166BC80E2C6F88
:0E0B9C0036EC00F0FAC02CF16CEC00F0120008
:0E0BAA0021C127F122C128F1D2EC00F0120087
:100BB800CD0E0101236F000E246FC80E256F000EA5
:060BC800266F44DC120060
:100BCE00C4EC06F075DFB3DF310E0101216F000EAC
:100BDE00226FE4DF0ADC005001102DE00001FE6BF5
:100BEE00FF6B870E0101216F000E226FD7DF016BA5
:100BFE00026BA60E236FFF0E246F30DC98DC0050C4
:100C0E00011002E1D2DFFAD792DC0050011002E0AF
:100C1E00CCDFFAD7010E0101016F000E026F980EA4
:100C2E00216F000E226FBADF010E0001FE6F000E63
:100C3E00FF6FF7EC00F0CD0E0101236F000E246F55
:100C4E00C80E256F000E266F2AEC02F0030E0B6EF7
:100C5E008A0E0C6E550E0D6E0D2EFED70C2EFCD779
:100C6E000B2EFAD700000000FCEC01F00050011032
:100C7E0002E179DCF9D7F7EC00F0AB0E0101216F40
:100C8E00000E226F8BDF020E0001FE6F000EFF6F53
:100C9E00010E01010B6F000E0C6F020E016F000EA4
:0A0CAE00026FF7EC00F0FDD7FFD74E
:100D880010EE15F0CF0E006E010E016EB80EF66E65
:0E0D98000C0EF76E000EF86E57EC05F0120010
:050CB80020303B20008C
:050CBD0020313B200086
:020CC200300000
:020CC4003100FD
:020CC6003100FB
:020CC8003000FA
:020CCA003100F7
:020CCC003000F6
:020CCE003100F3
:020CD0003000F2
:020CD2003000F0
:0C0CD4005374617274696E672E2E2E003E
:100CE0002020456E64206F66204C6576656C20324E
:100CF0002E204C6576656C203320537461727469C4
:050D00006E67202000D9
:0D0D05006D6F766520666F72776172640015
:100D1200436F6E6E656374696F6E204573746162B2
:080D22006C697368656421002F
:100D2A005374617274696E6720426C6F636B202022
:010D3A0000B8
:100D3B004C6576656C2031205374617274696E67F3
:030D4B0020200065
:100D4E002020456E64206F66204C6576656C2031E0
:100D5E002E204C6576656C20322053746172746956
:050D6E006E672020006B
:020D730031004D
:020D750030004C
:020D770030004A
:020D7900620016
:020D7B00310045
:020D7D00300044
:020D7F00310041
:020D810031003F
:020D830031003D
:020D850030003C
:020000040030CA
:0D000100220F0EFF0181FF0FC00FE00F4026
:00000001FF
