:10000000AFEF01F00000000000EF00F00000000082
:0A0010000000000000000000F3D71C
:10001C000B6A0A6A096A00500402F4CF09F0F3CFA4
:10002C0008F001500502F4CF0BF0F3CF0AF00050AA
:10003C000502F3500926F4500A22E86A0B220150FB
:10004C000402F3500926F4500A22E86A0B2208C075
:10005C0000F009C001F00AC002F00BC003F012005E
:10006C00CB50010F006E016A000E0122A3C004F0F8
:10007C00000E056ECDDF060E026E00C004F001C04E
:10008C0005F0025005E005320432059EFF0FFAD749
:10009C00040E016E04C000F0015004E00036009024
:1000AC00FF0FFBD7300E0014036E04C000F005C028
:1000BC0001F001320032019E01320032019E00C07B
:0C00CC00BBFF0F0EBA160350BA12120050
:1000D800CB50010F006E016A000E0122A3C004F08C
:1000E800000E056E97DF060E026E00C004F001C018
:1000F80005F0025005E005320432059EFF0FFAD7DD
:10010800040E016E04C000F0015004E000360090B7
:10011800FF0FFBD7300E0014036E04C000F005C0BB
:1001280001F001320032019E01320032019E00C00E
:0C013800BEFF0F0EBD160350BD121200DA
:0A0144009492CA840C0EBA12120045
:08014E00BE6ABD98BD9A1200C3
:0C015600838483969FC0A3F086DF120014
:08016200BB6ABA98BA9A1200B8
:0C016A008288829A9FC0A3F0B2DF1200CE
:060176008288828A12005B
:0C017C00839483869FC0A3F073DF120001
:0C018800240E0D6E0D2EFED7000012009C
:0601940083848386120043
:10019A00FC0E0001856F010E866F9F0E876F000EA1
:1001AA00886FFF0E816FFF0E826F000E836F000E45
:1001BA00846FFF0E8D6FFF0E8E6F000E8F6F000E15
:1001CA00906FFF0E896FFF0E8A6F000E8B6F000E05
:1001DA008C6FAC8A900EAB6E948E949C9EAA03D0C0
:0801EA00AECF00F0FBD71200BC
:0A01F2009494CA840C0EBD12120092
:0E01FC00ACB202D00000FCD79FC0ADFF1200D5
:10020A00FF0E926EFF0E936E946AF20E956E806ADE
:10021A00816A826A836ACA80CA92F90ECB6E92DFB9
:10022A00CA80CA92F90ECB6E97DFDEDF86DF810EB7
:0E023A00AF6EAC84ADDFC10EC26EC16A1200A1
:100248000900F5CFE6FF0006FBE10106F9E112001F
:10025800C26AC00EC212C18CC18E80C000F00036C6
:10026800009000360090003600900050C212C28004
:1002780087DFC284C2A401D0FDD7C4CF01F0006AD1
:0C028800C3500012000E0112C2901200C0
:060294007FDF6FDF1200A6
:10029A009BC09FF09CC0A0F06CDF9BC09FF09CC0ED
:0602AA00A0F05EDF12006F
:1002B00000019D6B9BC0E9FF9CC0EAFFEECF80F080
:1002C0008051000A0EE080C09FF098DF00019D2B56
:1002D0009D519B25E96E000E9C21EA6EEECF80F0C9
:0402E000EFD7120042
:1002E400B90E0001956F000E966FC80E976F000E41
:1002F400986FFF0E996F000E9A6FDC0E936F000ECD
:10030400946F000E726E000E736E400E746E810E4A
:10031400756E6E6A6F6A706A716A7A6A7B6A7C6AE1
:100324007D6A766A776A786A796A6C6A6D6A6A6ADB
:100334006B6A686A696AC80EA36FCCDE97C0A3F0C3
:0403440093DE120032
:100348009BC09FF09CC0A0F002DF9DC09FF09EC0A4
:06035800A0F007DF120017
:10035E0045EC02F053DF17C09BF018C09CF0A1DFF4
:10036E00BADF200E156E000E166E15C09BF016C06D
:10037E009CF097DF7E6A7F6A0001C80E9B6F000EAD
:10038E009C6FC80E9D6F000E9E6FD7DF410E0C6ED8
:10039E00EE0E0D6E0D2EFED70C2EFCD700000001BA
:1003AE00806B53DF00C091F001C092F0010E015C32
:1003BE0002E12C0E005C23E3020E0001925D02E1CD
:1003CE006F0E915D1CE25FDF370E156E000E166E1E
:1003DE0015C09BF016C09CF064DFFF0E9B6F000EE5
:1003EE009C6F54DF060E0B6E950E0C6E8C0E0D6E02
:1003FE000D2EFED70C2EFCD70B2EFAD700007E4A00
:10040E007F2A000E7F1802E1640E7E180BE17E6AD1
:10041E007F6A190E156E000E166E15C09BF016C073
:08042E009CF03FDFA9D7FFD7C6
:10048A0010EE15F0530E006E010E016E360EF66E6A
:0E049A00040EF76E000EF86E24EC01F0120056
:020436005B0069
:0204380043007F
:07043A0020436C65617200B4
:1004410020202020202020202020537461727469F4
:070451006E672E2E20200033
:0C045800204F62737461636C652120000A
:10046400436F6E6E656374696F6E20457374616269
:080474006C69736865642100E6
:0D047C006D6F766520666F727761726400A7
:020000040030CA
:0D000100220F0EFF0181FF0FC00FE00F4026
:00000001FF
