:1000000019EF15F00000000000EF00F00000000004
:0A0010000000000000000000F3D71C
:08001C000AAE029E000E120064
:100024000B6A0A6A096A00500402F4CF09F0F3CF9C
:1000340008F001500502F4CF0BF0F3CF0AF00050A2
:100044000502F3500926F4500A22E86A0B220150F3
:100054000402F3500926F4500A22E86A0B2208C06D
:1000640000F009C001F00AC002F00BC003F0120056
:0E007400026A016A006A086A036A000E12003E
:100082000B840BAE4CEF00F0010E036E026A016AA4
:0A009200006A0A360232FF0E120067
:08009C000B6A0B86FF0E120037
:1000A4000B800BAE5EEF00F0026A0AAEFF0E026E2A
:0C00B400016E006E0A360232FF0E1200D0
:0E00C000ACB202D00000FCD7A3C1ADFF12000D
:1000CE00CB50010F006E016A000E0122A3C104F095
:1000DE00000E056EA0DF060E026E00C004F001C019
:1000EE0005F0025005E005320432059EFF0FFAD7E7
:1000FE00040E016E04C000F0015004E000360090C2
:10010E00FF0FFBD7300E0014036E04C000F005C0C5
:10011E0001F001320032019E01320032019E00C018
:0C012E00BBFF0F0EBA160350BA121200ED
:10013A000B820BAEA7EF00F0036802680168006843
:08014A000A360232FF0E12001A
:100152000C6A0E6A0250D8A4C2EF00F001C002F08D
:1001620000C001F0006A0E860250D8A4C2EF00F06F
:1001720001C002F0016A0E960E880250D8B4D4EF84
:1001820000F00E50035ED8A4D8A0D9EF00F0D890AA
:1001920002BEDEEF00F0003601360236032EC9EF52
:1001A20000F0D9EF00F0010E0C6E63DFE1EF00F01A
:1001B200020E0C6E65DFE1EF00F0040E0C6E2DDF17
:0201C200120029
:1001C400CB50010F006E016A000E0122A3C104F09E
:1001D400000E056E25DF060E026E00C004F001C09D
:1001E40005F0025005E005320432059EFF0FFAD7F0
:1001F400040E016E04C000F0015004E000360090CB
:10020400FF0FFBD7300E0014036E04C000F005C0CE
:1002140001F001320032019E01320032019E00C021
:0C022400BEFF0F0EBD160350BD121200ED
:060230008288828A1200A0
:0C023600838483969FC1A3F147DF120070
:0C0242008298828A9FC1A3F1BCDF1200E9
:06024E0083848386120088
:100254000050086E0150006E016A026A036A0B6A5C
:100264000C6A960E036E0A6A00C001F008C000F022
:08027400086A026A6CDF120047
:0C027C008288829A9FC1A3F19FDF1200CC
:0C028800839483869FC1A3F11EDF120047
:100294000CB08CEF01F00CA232EF02F00E6A000EEB
:1002A4000264A3EF01F0F00E0214D8A46EEF01F083
:1002B400023A01380F0B02260138F00B016E0038A8
:1002C4000F0B01260038F00B006E08380F0B0026C8
:1002D4000838F00B086E0E84D89002BE87EF01F048
:1002E40008360036013602360E2A02BE87EF01F0C8
:1002F40008360036013602360E2A02BE87EF01F0B8
:1003040008360036013602360E2A0E50036428EFF2
:1003140002F0035E0BBC08AE2DEF02F0D880800E15
:1003240008640030000E002201220222D8A02DEF22
:1003340002F0023201320032034A32EF02F02DEFB2
:1003440002F001C002F000C001F008C000F0086A29
:10035400000E0E860264DAEF01F0F00E0214D8A447
:10036400C2EF01F0023A01380F0B02260138F00BFC
:10037400016E00380F0B01260038F00B006E0E845E
:10038400D89002BE87EF01F00036013602360E2AFD
:1003940002BE87EF01F00036013602360E2A02BE95
:1003A40087EF01F00036013602360E2A87EF01F09E
:1003B40001C002F000C001F0006A000E0E960E8823
:1003C400026407EF02F0F00E0214D8A4F2EF01F079
:1003D400023A01380F0B02260138F00B016E0E842D
:1003E400D89002BE87EF01F0013602360E2A02BE13
:1003F40087EF01F0013602360E2A02BE87EF01F0C4
:10040400013602360E2A87EF01F001C002F0016ABC
:10041400000E0E86026437EF02F0F00E0214D8A428
:1004240016EF02F0023A0E84D89002BE87EF01F074
:1004340002360E2A02BE87EF01F002360E2A02BEF1
:1004440087EF01F002360E2A87EF01F0010E0C6EE1
:1004540016DE3AEF02F0020E0C6EDEDD3AEF02F029
:10046400040E0C6E68DE3AEF02F0080E0C6E00DE2D
:02047400120074
:100476000101A26B9FC1E9FFA0C1EAFFEECFA1F186
:10048600A151000A0EE0A1C1A3F117DE0101A22BC2
:10049600A2519F25E96E000EA021EA6EEECFA1F1D2
:0404A600EFD712007A
:1004AA000450000A12E10550000A0FE10650000A42
:1004BA000CE10750000A09E1FF0E006EFF0E016E03
:1004CA007F0E026EFF0E036E1200086A096A075059
:1004DA00D8B400EF03F00350D8B404EF03F002508D
:1004EA0006180A6E028E068E0E6A02C008F001C055
:1004FA000CF000C00DF004500D5E0550D8A0053C6C
:10050A000C5E0650D8A0063C085E086A0C6A0D6AA2
:10051A00D8A097EF02F0D8900232013200320832A6
:10052A00010E0E6E0750035ED8A0A4EF02F07E0EF5
:10053A000E240326D8B008EF03F0AAEF02F07E0ECD
:10054A000E240326D8A00CEF03F0180E0B6E0D36FE
:10055A000C3608360036013602360E360450005E76
:10056A000550D8A0053C015E0650D8A0063C025EA4
:10057A0006340E120EA0C5EF02F00D80D0EF02F085
:10058A00045000260550D8B0053C01260650D8B0C4
:10059A00062802260D900B2EACEF02F0F6EF02F0C1
:1005AA00D8900036013602360E360450005E0550E9
:1005BA00D8A0053C015E0650D8A0063C025E06346F
:1005CA000E10010B0D26D8B00C2AD8B4082AD8A4CC
:1005DA00F6EF02F008320C320D32032AD8B408EFD3
:1005EA0003F00AAE089E0850026E0C50016E0D50C0
:1005FA00006E0EEF03F0010E4CDD0EEF03F0020E5B
:10060A0034DD0EEF03F0040E93DD0EEF03F0080E57
:04061A0033DD1200BA
:10061E00086A096A000E0762036494EF03F0025041
:10062E0006180A6E075003267E0ED8A025EF03F09B
:10063E00035ED8B098EF03F029EF03F0035ED8A065
:10064E009CEF03F0028E068E02C00EF001C00BF07E
:10065E0000C00DF000500402F4CF0CF00150050262
:10066E00F4CF00F0F3CF08F00402F3500C26F45050
:10067E000822000E00220D500502F3500C26F450F5
:10068E000822000E002202500402F3500826F450F5
:10069E00002202500502016A000E0122F3500026CC
:1006AE00F45001220D500602F3500826F450002299
:1006BE00026A000E012202220B500602F35000269F
:1006CE00F4500122000E02220E500602F3500126B3
:1006DE00F450022202BE7CEF03F0083600360136DB
:1006EE0002360306D8B49CEF03F08FEF03F0D880E8
:1006FE00800E08640030000E002201220222D8A0D3
:10070E008FEF03F0023201320032034A98EF03F00A
:10071E000AAE029E000E9EEF03F0010EA4DC9EEFC9
:10072E0003F0020E03DD9EEF03F0040EA3DC1200B5
:10073E000B6A0350D8B4E5EF03F002500A6E028E36
:10074E008E0E035E03AEE9EF03F0036C080E035C3E
:10075E00D8A0C4EF03F0036E013602C001F0026AA6
:10076E00080E035CD8A0C4EF03F0036E0136016AD5
:10077E000350D8A4D890CEEF03F00350D8B4CEEFE8
:10078E0003F0D89002320132032EC8EF03F00BBCF7
:10079E0001A0DBEF03F0D8A0DBEF03F0012AD8B401
:1007AE00022A02BEF8EF03F00AAEFDEF03F0021EBE
:1007BE00011E012AD8B4022AFDEF03F0026A016A73
:1007CE00FDEF03F00B800BAE01EF04F0026A0AAEF0
:1007DE0001EF04F0FF0E026E016E0A36023201EFD7
:1007EE0004F0010E0C6E57DC03EF04F0000E0C6EDD
:1007FE0003EF04F0FF0E0C6E0150006E0250016EFE
:02080E001200D6
:10081000CF6ACE6A01019A514D0A65E1809A030EB2
:100820000D6E0D2EFED7808A080E0D6E0D2EFED792
:10083000809A84B012D0CECF9BF1000E9C6FCFCFA8
:100840009DF1000E9E6F000E006E9E51005C02E155
:100850009D51F00801E201D0ECD7CF6ACE6ACD807D
:1008600084A013D00101CECF9BF1000E9C6FCFCF9F
:100870009DF1000E9E6F000E006E9E51005C02E125
:100880009D51F00801E201D0EBD70101CECF9BF1E1
:10089000000E9C6FCFCF9DF1000E9E6F9DC101F0A9
:1008A000006A9B5100269C510122D4DCCD0E046EBF
:1008B000CC0E056E4C0E066E7C0E076EB0DE000E82
:1008C000046E000E056E000E066E800E076EEDDDE6
:1008D000CD0E046ECC0E056E680E066E830E076E8E
:1008E000E4DD2DDF12009A51520A64E18090030E7C
:1008F0000D6E0D2EFED78080080E0D6E0D2EFED7CC
:10090000809080B212D0CECF9BF1000E9C6FCFCFE3
:100910009DF1000E9E6F000E006E9E51005C02E184
:100920009D51F00801E201D0ECD7CF6ACE6ACD80AC
:1009300080A212D0CECF9BF1000E9C6FCFCF9DF145
:10094000000E9E6F000E006E9E51005C02E19D51F4
:10095000F00801E201D0ECD70101CECF9BF1000EEF
:100960009C6FCFCF9DF1000E9E6F9DC101F0006A7C
:100970009B5100269C5101226DDCCD0E046ECC0EE5
:10098000056E4C0E066E7C0E076E49DE000E046E80
:10099000000E056E000E066E800E076E86DDCD0E13
:1009A000046ECC0E056E680E066E830E076E7DDD3E
:1009B000C6DE12009A514C0A64E18094030E0D6E5B
:1009C0000D2EFED78084080E0D6E0D2EFED780945E
:1009D00080B612D0CECF9BF1000E9C6FCFCF9DF191
:1009E000000E9E6F000E006E9E51005C02E19D5154
:1009F000F00801E201D0ECD7CF6ACE6ACD8080A6A4
:100A000012D0CECF9BF1000E9C6FCFCF9DF1000E88
:100A10009E6F000E006E9E51005C02E19D51F00839
:100A200001E201D0ECD70101CECF9BF1000E9C6F0B
:100A3000CFCF9DF1000E9E6F9DC101F0006A9B51CA
:100A400000269C51012206DCCD0E046ECC0E056EF4
:100A50004C0E066E7C0E076EE2DD000E046E000E7C
:100A6000056E000E066E800E076E1FDDCD0E046E45
:100A7000CC0E056E680E066E830E076E16DD5FDE09
:040A8000120012004E
:100A8400025006180E6E086A096A0B6A035007645E
:100A940035EF06F006500A6E068E028E03500B6E7A
:100AA4000750036E000E0B6485EF05F00B50075ED4
:100AB400D8B426EF06F0070E0764F4EF05F0075EDE
:100AC40000C008F001C000F002C001F0026A074E45
:100AD40026EF06F00764C9EF05F0075E00C008F0D2
:100AE40001C000F0016A074E26EF06F00764A7EF85
:100AF40005F0075E00C008F0006A074E26EF06F016
:100B040007648EEF05F00AC002F005C001F004C0CE
:100B140000F0086A52EF07F0030E076499EF05F03E
:100B2400075E08380F0B086E074E26EF06F0D890C4
:100B34000832074E26EF06F0D8900832074E26EF0B
:100B440006F0D890083226EF06F0030E0764B8EFDB
:100B540005F0075E08380F0B086E0038F00B082606
:100B640000380F0B006E074E26EF06F0D8900032C7
:100B74000832074E26EF06F0D89000320832074EAE
:100B840026EF06F0D8900032083226EF06F0030E66
:100B94000764E0EF05F0075E08380F0B086E0038B5
:100BA400F00B082600380F0B006E0138F00B0026FE
:100BB40001380F0B016E074E26EF06F0D890013274
:100BC40000320832074E26EF06F0D8900132003288
:100BD4000832074E26EF06F0D89001320032083270
:100BE40026EF06F0030E076411EF06F0075E0838DF
:100BF4000F0B086E0038F00B082600380F0B006E40
:100C04000138F00B002601380F0B016E0238F00B8F
:100C1400012602380F0B026E074E26EF06F0D8901D
:100C24000232013200320832074E26EF06F0D89025
:100C34000232013200320832074E26EF06F0D89015
:100C44000232013200320832096A000E0EAE1AEF87
:100C540007F0081E001E011E021E082A002201229F
:100C640002221AEF07F00750D8A43BEF06F052EF28
:100C740007F0096A02C00AF0028E068E0750035C70
:100C8400076ED8B40DEF07F0070E0764DBEF06F02C
:100C9400075E0450096E0550046E0650056E066A20
:100CA400074E0DEF07F0070E0764B0EF06F0075E7E
:100CB4000450096E0550046E056A074E0DEF07F0E7
:100CC400070E07648EEF06F0075E0450096E046A8F
:100CD400074E0DEF07F0070E076475EF06F00AC024
:100CE40002F052EF07F0030E076480EF06F0075E90
:100CF40009380F0B096E074E0DEF07F0D890093233
:100D0400074E0DEF07F0D8900932074E0DEF07F0AC
:100D1400D89009320DEF07F0030E07649FEF06F039
:100D2400075E09380F0B096E0438F00B09260438E6
:100D34000F0B046E074E0DEF07F0D8900432093202
:100D4400074E0DEF07F0D89004320932074E0DEF2D
:100D540007F0D890043209320DEF07F0030E076450
:100D6400C7EF06F0075E09380F0B096E0438F00B65
:100D7400092604380F0B046E0538F00B04260538D9
:100D84000F0B056E074E0DEF07F0D89005320432B5
:100D94000932074E0DEF07F0D890053204320932BC
:100DA400074E0DEF07F0D8900532043209320DEFEB
:100DB40007F0030E0764F8EF06F0075E09380F0B1F
:100DC400096E0438F00B092604380F0B046E05383D
:100DD400F00B042605380F0B056E0638F00B0526BC
:100DE40006380F0B066E074E0DEF07F0D89006324B
:100DF400053204320932074E0DEF07F0D89006325F
:100E0400053204320932074E0DEF07F0D89006324E
:100E1400053204320932086A000E0EAE1AEF07F0EA
:100E2400091E041E051E061E092A04220522062286
:100E340009500826045000220550012206500222BF
:100E44000EBE31EF07F0D8A040EF07F002320132B6
:100E540000320832033E40EF07F04CEF07F0D8B001
:100E640046EF07F0000E081E001E011E021E082A8F
:100E74000022012202220A7E46EF07F0010E0C6EC8
:100E84004AEC01F054EF07F0020E0C6E4AEC01F04C
:100E940054EF07F0040E0C6E9DEC00F054EF07F0D5
:060EA400000E0C6E1200AE
:100EAA009AC19FF19BC1A0F11BEC01F09AC19FF17D
:0A0EBA009BC1A0F121EC01F0120031
:100EC4009AC19FF19BC1A0F11BEC01F09CC19FF161
:0A0ED4009DC1A0F13EEC01F01200F8
:0E0EDE009AC19FF19BC1A0F13BEC02F0120003
:0A0EEC0027EC01F018EC01F01200F1
:100EF6009AC19FF19BC1A0F144EC01F09AC19FF108
:0A0F06009BC1A0F13EEC01F01200C7
:080F1000BE6ABD98BD9A1200F3
:080F1800BB6ABA98BA9A1200F4
:100F200096C19FF197C1A0F13EEC01F027EC01F0D2
:020F30001200AD
:100F320096C19FF197C1A0F11BEC01F018EC01F0F2
:020F420012009B
:0A0F44009492CA840C0EBA12120037
:0A0F4E009494CA840C0EBD12120028
:100F580000C008F00150006E016A026A036A0B6A59
:100F68000C6A016A026A036A960E036E0A6A00AE88
:100F7800C4EF07F0081E001E082AD8B4002A0A8EFB
:100F880000C001F008C000F0086A026AA9EC00F08D
:020F9800120045
:060F9A00067E73DD12006B
:100FA000C00E01017A6F000E7B6FA30E7C6F010EE5
:100FB0007D6FFF0E766FFF0E776F000E786F000E5D
:100FC000796FFF0E6E6FFF0E6F6F000E706F000E69
:100FD000716FFF0E726FFF0E736F000E746F000E55
:100FE000756FAC8A900EAB6E948E949C9EAA03D0C3
:080FF000AECF00F0FBD71200A8
:100FF800800E01019719006E800E005C02E1000E60
:10100800965D08E296510008006E97C101F0000E47
:0E1018000156120096C100F097C101F01200BF
:1010260081A80BD081A609D083A807D083AA05D0B2
:1010360083AC03D083AE01D018D083AA0BD083AC87
:1010460009D083AE07D081A405D081AC03D081AE90
:1010560001D00BD0DC0E01019A6F000E9B6FDC0EE7
:101066009C6F000E9D6F2BDFDBD7070E0C6E7D0E7F
:101076000D6E0D2EFED70C2EFCD735DF340E01017A
:101086009A6F010E9B6F28DF0D0E0B6EAF0E0C6E66
:10109600B60E0D6E0D2EFED70C2EFCD70B2EFAD7E4
:1010A600000081A811D081A60FD083A80DD083AAF5
:1010B6000BD083AC09D083AE07D081A405D081AC18
:1010C60003D081AE01D012D081AE07D00101DC0E73
:1010D6009A6F000E9B6FE6DE08D081A806D0DC0E64
:1010E60001019A6F000E9B6F03DFDBD7FCDE120057
:1010F600CD0E01019A6F000E9B6FC80E9C6F000EFD
:061106009D6FDDDE12000A
:10110C0081BA17D081B815D081B613D083B811D05D
:10111C0083BA0FD083BC0DD083BE0BD081B409D061
:10112C0081BC07D081BE05D0010E006E000E016E91
:08113C001200006A016A1200B2
:101144004C0E01019A6F08EC04F0050E005C11E3EB
:101154004D0E01019A6F08EC04F0050E005C09E3E2
:10116400520E01019A6F08EC04F0050E005C01E3D5
:1011740003D0006A016A1200010E006E000E016EB7
:02118400120057
:1011860081A80BD0170E156E000E166E15C09FF1B6
:1011960016C0A0F13BEC02F00CD081B80AD0190EB3
:1011A600156E000E166E15C09FF116C0A0F13BEC31
:1011B60002F081A60BD0210E156E000E166E15C01C
:1011C6009FF116C0A0F13BEC02F00CD081B60AD01C
:1011D600230E156E000E166E15C09FF116C0A0F1F7
:1011E6003BEC02F083A80BD01F0E156E000E166E98
:1011F60015C09FF116C0A0F13BEC02F00CD083B8ED
:101206000AD01B0E156E000E166E15C09FF116C085
:10121600A0F13BEC02F083AA0BD01D0E156E000E5A
:10122600166E15C09FF116C0A0F13BEC02F00CD073
:1012360083BA0AD0250E156E000E166E15C09FF1E4
:1012460016C0A0F13BEC02F083AC0BD0BC0E156EC1
:10125600000E166E15C09FF116C0A0F13BEC02F011
:101266000CD083BC0AD0BE0E156E000E166E15C0CD
:101276009FF116C0A0F13BEC02F083AE0BD0BA0E84
:10128600156E000E166E15C09FF116C0A0F13BEC50
:1012960002F00CD083BE0AD0B60E156E000E166E86
:1012A60015C09FF116C0A0F13BEC02F081A40BD053
:1012B600B80E156E000E166E15C09FF116C0A0F181
:1012C6003BEC02F00CD081B40AD0C00E156E000EB5
:1012D600166E15C09FF116C0A0F13BEC02F081AC72
:1012E6000BD0CB0E156E000E166E15C09FF116C0F4
:1012F600A0F13BEC02F00CD081BC0AD0CD0E156EED
:10130600000E166E15C09FF116C0A0F13BEC02F060
:1013160081AE0BD0C90E156E000E166E15C09FF16C
:1013260016C0A0F13BEC02F00CD081BE0AD0C20E72
:10133600156E000E166E15C09FF116C0A0F13BEC9F
:1013460002F081AA0BD0C40E156E000E166E15C0E3
:101356009FF116C0A0F13BEC02F00CD081BA0AD086
:10136600700E156E000E166E15C09FF116C0A0F118
:061376003BEC02F0120046
:10137C0081AA17D081A815D081A613D083A811D02B
:10138C0083AA0FD083AC0DD083AE0BD081A409D02F
:10139C0081AC07D081AE05D0010E006E000E016E3F
:0813AC001200006A016A120040
:1013B40096C19FF197C1A0F144EC01F098C19FF14F
:0A13C40099C1A0F121EC01F0120024
:1013CE00FF0E0101971902E1A60E961915E1FF0E07
:1013DE009A6F000E9B6F88DD060E0B6ED60E0C6E8E
:1013EE007B0E0D6E0D2EFED70C2EFCD70B2EFAD7C4
:1013FE000000000074DD5BD1000E0101971902E1BF
:10140E005A0E961915E1FF0E9A6F000E9B6F46DD70
:10141E00060E0B6ED60E0C6E7B0E0D6E0D2EFED7BF
:10142E000C2EFCD70B2EFAD70000000058DD3FD152
:10143E00FF0E0101971902E1E20E961923E1FF0E4C
:10144E009A6F000E9B6F50DD030E0B6E8A0E0C6EA4
:10145E00550E0D6E0D2EFED70C2EFCD70B2EFAD779
:10146E00000000003CDD060E0B6E130E0C6EAD0E72
:10147E000D6E0D2EFED70C2EFCD70B2EFAD70000BC
:10148E00000015D1000E0101971902E11E0E9619EA
:10149E0023E1FF0E9A6F000E9B6F00DD030E0B6EA5
:1014AE008A0E0C6E550E0D6E0D2EFED70C2EFCD721
:1014BE000B2EFAD70000000012DD060E0B6E130E77
:1014CE000C6EAD0E0D6E0D2EFED70C2EFCD70B2E08
:1014DE00FAD700000000EBD0FF0E0101971902E1D0
:1014EE00C40E961923E1FF0E9A6F000E9B6FFCDC63
:1014FE00040E0B6EEF0E0C6E790E0D6E0D2EFED7CA
:10150E000C2EFCD70B2EFAD700000000E8DC060EDE
:10151E000B6E130E0C6EAD0E0D6E0D2EFED70C2E29
:10152E00FCD70B2EFAD700000000C1D0000E01012F
:10153E00971902E13C0E961923E1FF0E9A6F000EE9
:10154E009B6FACDC040E0B6EEF0E0C6E790E0D6EF7
:10155E000D2EFED70C2EFCD70B2EFAD70000000056
:10156E00BEDC060E0B6E130E0C6EAD0E0D6E0D2E3A
:10157E00FED70C2EFCD70B2EFAD70000000097D00A
:10158E00FF0E0101971902E1D30E961921E1FF0E0C
:10159E009A6F000E9B6FA8DC040E0B6E6D0E0C6E18
:1015AE009B0E0D6E0D2EFED70C2EFCD70B2EFAD7E2
:1015BE0096DC060E0B6E130E0C6EAD0E0D6E0D2E12
:1015CE00FED70C2EFCD70B2EFAD7000000006FD0E2
:1015DE00000E0101971902E12D0E961921E1FF0E61
:1015EE009A6F000E9B6F5ADC040E0B6E6D0E0C6E16
:1015FE009B0E0D6E0D2EFED70C2EFCD70B2EFAD792
:10160E006EDC060E0B6E130E0C6EAD0E0D6E0D2EE9
:10161E00FED70C2EFCD70B2EFAD70000000047D0B9
:10162E00FF0E0101971902E1FE0E96191DE1FF0E44
:10163E009A6F000E9B6F58DC270E0C6EF50E0D6E1A
:10164E000D2EFED70C2EFCD74ADC020E0B6E450E6D
:10165E000C6EA90E0D6E0D2EFED70C2EFCD70B2E7A
:10166E00FAD70000000023D0000E0101971902E105
:10167E00020E96191CE1FF0E9A6F000E9B6F0EDC88
:10168E00270E0C6EF50E0D6E0D2EFED70C2EFCD702
:10169E0026DC020E0B6E450E0C6EA90E0D6E0D2E77
:1016AE00FED70C2EFCD70B2EFAD70000000012002E
:1016BE000900F5CFE6FF0006FBE10106F9E1120095
:1016CE00CA0E926EFF0E936E946AF20E956E050E12
:1016DE00966E806A816A826A836A846ACA80CA92B6
:1016EE00F90ECB6E0EDCCA80CA92F90ECB6E0DDCF3
:1016FE0027DC21DC810EAF6EAC844BDCC10EC26EDA
:10170E00060EC16E0101846B856B866B876B7E6BDB
:10171E007F6B886B896BC30ED56ED66AF28A800E8C
:08172E00CD6ECF6ACE6A1200F5
:1017360083AA05D083AC03D083AE01D00BD0DC0ED8
:101746000101966F000E976FDC0E986F000E996F71
:101756002EDEEED7070E0C6E7D0E0D6E0D2EFED70D
:101766000C2EFCD776EC07F0200E01019A6F010EC5
:101776009B6F6FEC07F00D0E0B6EAF0E0C6EB60E78
:101786000D6E0D2EFED70C2EFCD70B2EFAD70000B1
:1017960081A811D081A60FD083A80DD083AA0BD023
:1017A60083AC09D083AE07D081A405D081AC03D029
:1017B60081AE01D014D081AE08D00101DC0E9A6F43
:1017C600000E9B6F7BEC07F009D081A807D0DC0EDA
:1017D60001019A6F000E9B6F55EC07F0D9D776EC96
:0417E60007F01200F6
:1017EA0081AA38D183B813D083AA11D083AC0FD081
:1017FA0083BE0DD081B40BD082C19AF183C19BF113
:10180A0080C19CF181C19DF162EC07F022D183B8BD
:10181A0013D083AA11D083AC0FD083AE0DD081B47C
:10182A000BD080C19AF181C19BF180C19CF181C129
:10183A009DF162EC07F00DD183B813D083BA11D0B1
:10184A0083AC0FD083BE0DD081B40BD080C19AF186
:10185A0081C19BF180C19CF181C19DF162EC07F0CD
:10186A00F8D083B813D083BA11D083AC0FD083AE2B
:10187A000DD081B40BD080C19AF181C19BF182C194
:10188A009CF183C19DF162EC07F0E3D083A80FD0ED
:10189A0083BA0DD083BC0BD083BE09D081B407D0E4
:1018AA0080C196F181C197F190EC07F0D2D083A85C
:1018BA000FD083AA0DD083BC0BD083BE09D081B4CC
:1018CA0007D080C196F181C197F190EC07F0C1D0A1
:1018DA0083A80FD083AA0DD083AC0BD083BE09D0C6
:1018EA0081B407D080C196F181C197F190EC07F0DD
:1018FA00B0D083B80FD083AA0DD083BC0BD083BEDF
:10190A0009D081B407D080C196F181C197F190ECDA
:10191A0007F09FD083B80FD083BA0DD083BC0BD009
:10192A0083AE09D081B407D080C196F181C197F105
:10193A0099EC07F08ED083B80FD083BA0DD083AC60
:10194A000BD083AE09D081A407D080C196F181C1A2
:10195A0097F199EC07F07DD083B80FD083BA0DD0F8
:10196A0083BC0BD083AE09D081A407D080C196F185
:10197A0081C197F199EC07F06CD083B80FD083BA84
:10198A000DD083BC0BD083BE09D081A407D080C1FF
:10199A0096F181C197F199EC07F05BD083A813D037
:1019AA0083AA11D083AC0FD083AE0DD081B40BD0F3
:1019BA0080C19AF181C19BF180C19CF181C19DF1E5
:1019CA0062EC07F046D083B813D083AA11D083AC57
:1019DA000FD083AE0DD081A40BD080C19AF181C102
:1019EA009BF180C19CF181C19DF162EC07F031D07D
:1019FA0081B81CD081B61AD083B818D083BA16D051
:101A0A0083BC14D083BE12D081B410D081BC0ED056
:101A1A0081BE0CD0FF0E01019A6F000E9B6FFF0E64
:101A2A009C6F000E9D6F62EC07F013D0A2DC005091
:101A3A00011003E0C3EC08F00CD00101DC0E966F34
:101A4A00000E976FDC0E986F000E996FAEDCC3EC38
:101A5A0008F004D281A817D081A615D083A813D084
:101A6A0083AA11D083AC0FD083BE0DD081B40BD022
:101A7A0081BC09D081BE07D00101A60E966FFF0E68
:101A8A00976FA0DCEBD181A817D081A615D083A8C7
:101A9A0013D083AA11D083AC0FD083AE0DD081B4FA
:101AAA000BD081BC09D081BE07D0A60E0101966F6A
:101ABA00FF0E976F87DCD2D181A817D081A615D0E7
:101ACA0083A813D083AA11D083AC0FD083AE0DD0D4
:101ADA0081A40BD081BC09D081BE07D0A60E01011A
:101AEA00966FFF0E976F6EDCB9D181B817D081B6A9
:101AFA0015D083A813D083AA11D083AC0FD083AE9C
:101B0A000DD081A40BD081AC09D081AE07D05A0E7A
:101B1A000101966F000E976F55DCA0D181B817D0DE
:101B2A0081B615D083B813D083AA11D083AC0FD055
:101B3A0083AE0DD081A40BD081AC09D081AE07D081
:101B4A005A0E0101966F000E976F3CDC87D181B85F
:101B5A0017D081B615D083B813D083BA11D083AC0D
:101B6A000FD083AE0DD081A40BD081AC09D081AE49
:101B7A0007D05A0E0101966F000E976F23DC6ED1C3
:101B8A0083A80FD083BA0DD083BC0BD083BE09D0F3
:101B9A0081B407D080C196F181C197F190EC07F02A
:101BAA005DD183A80FD083AA0DD083BC0BD083BE8E
:101BBA0009D081B407D080C196F181C197F190EC28
:101BCA0007F04CD183A80FD083AA0DD083AC0BD0D9
:101BDA0083BE09D081B407D080C196F181C197F143
:101BEA0090EC07F03BD183B80FD083AA0DD083BC09
:101BFA000BD083BE09D081B407D080C196F181C1D0
:101C0A0097F190EC07F02AD183B80FD083BA0DD0A0
:101C1A0083BC0BD083AE09D081B407D080C196F1C2
:101C2A0081C197F199EC07F019D183B80FD083BA23
:101C3A000DD083AC0BD083AE09D081A407D080C16C
:101C4A0096F181C197F199EC07F008D183B80FD0CA
:101C5A0083BA0DD083BC0BD083AE09D081A407D040
:101C6A0080C196F181C197F199EC07F0F7D083B85A
:101C7A000FD083BA0DD083BC0BD083BE09D081A408
:101C8A0007D080C196F181C197F199EC07F0E6D0AF
:101C9A0083A813D083AA11D083AC0FD083AE0DD002
:101CAA0081B40BD082C19AF183C19BF180C19CF1AE
:101CBA0081C19DF162EC07F0D1D083B813D083AA19
:101CCA0011D083AC0FD083AE0DD081A40BD080C1CC
:101CDA009AF181C19BF182C19CF183C19DF162ECB1
:101CEA0007F0BCD081A617D083A815D083AA13D039
:101CFA0083BC11D083AE0FD081A40DD081AC0BD0A0
:101D0A0081BA08D0FF0E01019A6F000E9B6F7BEC1F
:101D1A0007F0F6D7A3D081B81BD081B619D083B803
:101D2A0017D083BA15D083BC13D083BE11D081B427
:101D3A000FD081AC0DD081AE0BD081BA08D0FF0E86
:101D4A0001019A6F000E9B6F55EC07F0F6D786D00B
:101D5A0081A81BD081A619D083B817D083BA15D011
:101D6A0083BC13D083BE11D081B40FD081BC0DD0F7
:101D7A0081BE0BD081BA08D0FF0E01019A6F000E06
:101D8A009B6F7BEC07F0F6D769D083B813D083AA90
:101D9A0011D083AC0FD083BE0DD081B40BD082C1D9
:101DAA009AF183C19BF180C19CF181C19DF162ECE2
:101DBA0007F054D083B813D083AA11D083AC0FD0C4
:101DCA0083AE0DD081B40BD080C19AF181C19BF151
:101DDA0080C19CF181C19DF162EC07F03FD083B8CC
:101DEA0013D083BA11D083AC0FD083BE0DD081B487
:101DFA000BD080C19AF181C19BF180C19CF181C154
:101E0A009DF162EC07F02AD083B813D083BA11D0BF
:101E1A0083AC0FD083AE0DD081B40BD080C19AF1C0
:101E2A0081C19BF182C19CF183C19DF162EC07F0F3
:101E3A0015D086EC08F00050011003E0C3EC08F05E
:101E4A000DD00101DC0E966F000E976FDC0E986FB5
:0E1E5A00000E996FDAEC09F0C3EC08F01200EC
:101E680001018A6B8B6BA2EC08F0000E011802E1ED
:101E7800000E0018D8A486D01E0E0101966F000E21
:101E8800976FE7EC09F01E0E01018A27000E8B23DD
:101E9800A2EC08F0000E011802E1000E0018D8A408
:101EA80071D0C40E0101966FFF0E976FE7EC09F031
:101EB800C40E01018A27FF0E8B23A2EC08F0000E46
:101EC800011802E1000E00185DE15A0E0101966F3B
:101ED800000E976FE7EC09F05A0E01018A27000EF1
:101EE8008B23A2EC08F0000E011802E1000E001886
:101EF80049E1A60E0101966FFF0E976FE7EC09F016
:101F0800E20E0101966FFF0E976FE7EC09F0880E5D
:101F180001018A27FF0E8B23A2EC08F0000E01189E
:101F280002E1000E00182EE15A0E0101966F000E14
:101F3800976FE7EC09F03C0E0101966F000E976F62
:101F4800E7EC09F0960E01018A27000E8B23A2EC1C
:101F580008F0000E011802E1000E001813E1A60EA9
:101F68000101966FFF0E976FE7EC09F0A60E0101CD
:101F7800966FFF0E976FE7EC09F04C0E01018A2768
:101F8800FF0E8B2301018A510001F92701018B51B2
:101F98000001FA237BEC08F0410E0C6EEE0E0D6E7C
:101FA8000D2EFED70C2EFCD7000086EC08F0005052
:101FB800011033E0F9C096F1FAC097F1FCEC07F094
:101FC800800E0118026E800E025C02E15A0E005C5F
:101FD80019E3E50E9A6F000E9B6F6FEC07F05A0E2F
:101FE800966F000E976FE7EC09F05A0E0101966F95
:101FF800000E976FE7EC09F00001F96BFA6B13EC30
:1020080008F00BD0CF0E01019A6F000E9B6F6FEC9A
:0C20180007F0020E7E6F000E7F6F1200BA
:10202400D70E0101566F000E576FEB0E586F000E5E
:10203400596FFF0E546F000E556FC80E506F000E8F
:10204400516FFF0E826F000E836FC80E526F000E29
:10205400536FFF0E806F000E816F000E5A6F000EDB
:102064005B6F000E5C6F800E5D6F666B676B686BF9
:10207400696B6A6B6B6B6C6B6D6B626B636B646BC4
:10208400656B5E6B5F6B606B616B4C6B4D6BEB0EEA
:10209400A36FE2EC00F058C1A3F167EC00F012006A
:1020A40083A80DD083BA0BD083BC09D083BE07D0DC
:1020B40081B405D00F0E01014E6F000E4F6F83A83F
:1020C4000DD083AA0BD083BC09D083BE07D081B4C2
:1020D40005D001010A0E4E6F000E4F6F83A80DD07C
:1020E40083AA0BD083AC09D083BE07D081B405D0BA
:1020F4000101040E4E6F000E4F6F83B80DD083AAFA
:102104000BD083BC09D083BE07D081B405D00101B4
:10211400010E4E6F000E4F6F83B80BD083AA09D007
:1021240083AC07D083BE05D081B403D001014E6BCC
:102134004F6B83B80BD083AA09D083AC07D083AE8E
:1021440005D081B403D001014E6B4F6B83B80BD023
:1021540083BA09D083AC07D083BE05D081B403D041
:1021640001014E6B4F6B83B80BD083BA09D083AC9B
:1021740007D083AE05D081B403D001014E6B4F6B01
:1021840083B80DD083BA0BD083BC09D083AE07D0FB
:1021940081B405D00101FF0E4E6FFF0E4F6F83B85F
:1021A4000DD083BA0BD083AC09D083AE07D081A401
:1021B40005D00101FC0E4E6FFF0E4F6F83B80DD09A
:1021C40083BA0BD083BC09D083AE07D081A405D0D9
:1021D4000101F60E4E6FFF0E4F6F83B80DD083BA18
:1021E4000BD083BC09D083BE07D081A405D00101E4
:1021F400F10E4E6FFF0E4F6F01014EC100F04FC143
:1022040001F0ACEC07F05AC104F05BC105F05CC10D
:1022140006F05DC107F00FEC03F000C08AF101C0C5
:102224008BF102C08CF103C08DF166C100F067C16F
:1022340001F068C102F069C103F062C104F063C136
:1022440005F064C106F065C107F00FEC03F08AC124
:1022540004F08BC105F08CC106F08DC107F042EC8F
:1022640005F000C08AF101C08BF102C08CF103C0FB
:102274008DF15E514E5D006E5F514F59016EACECB5
:1022840007F06AC104F06BC105F06CC106F06DC1C2
:1022940007F00FEC03F08AC104F08BC105F08CC188
:1022A40006F08DC107F042EC05F000C092F101C0C8
:1022B40093F102C094F103C095F192C148F193C126
:1022C40049F194C14AF195C14BF162C100F063C177
:1022D40001F064C102F065C103F092C104F093C13E
:1022E40005F094C106F095C107F042EC05F000C07A
:1022F40062F101C063F102C064F103C065F14EC133
:102304005EF14FC15FF158C100F059C101F0ACEC6E
:1023140007F000C08EF101C08FF102C090F103C03C
:1023240091F18EC100F08FC101F090C102F091C112
:1023340003F092C104F093C105F094C106F095C175
:1023440007F042EC05F09FEC03F000C08AF101C0F5
:102354008BF18AC160F18BC161F192C104F093C128
:1023640005F094C106F095C107F08EC100F08FC14D
:1023740001F090C102F091C103F0CDEC07F09FECA5
:1023840003F000C04CF101C04DF18AC19AF18BC138
:102394009BF100C09CF101C09DF162EC07F01200BA
:1023A40081AA3AD183B813D083AA11D083AC0FD0B9
:1023B40083BE0DD081B40BD082C19AF183C19BF14D
:1023C40080C19CF181C19DF162EC07F024D183B8F6
:1023D40013D083AA11D083AC0FD083AE0DD081B4B7
:1023E4000BD080C19AF181C19BF180C19CF181C164
:1023F4009DF162EC07F00FD183B813D083BA11D0EA
:1024040083AC0FD083BE0DD081B40BD080C19AF1C0
:1024140081C19BF180C19CF181C19DF162EC07F007
:10242400FAD083B813D083BA11D083AC0FD083AE63
:102434000DD081B40BD080C19AF181C19BF182C1CE
:102444009CF183C19DF162EC07F0E5D083A80FD025
:1024540083BA0DD083BC0BD083BE09D081B407D01E
:1024640080C196F181C197F190EC07F0D4D083A894
:102474000FD083AA0DD083BC0BD083BE09D081B406
:1024840007D080C196F181C197F190EC07F0C3D0D9
:1024940083A80FD083AA0DD083AC0BD083BE09D000
:1024A40081B407D080C196F181C197F190EC07F017
:1024B400B2D083B80FD083AA0DD083BC0BD083BE17
:1024C40009D081B407D080C196F181C197F190EC15
:1024D40007F0A1D083B80FD083BA0DD083BC0BD042
:1024E40083AE09D081B407D080C196F181C197F140
:1024F40099EC07F090D083B80FD083BA0DD083AC99
:102504000BD083AE09D081A407D080C196F181C1DC
:1025140097F199EC07F07FD083B80FD083BA0DD030
:1025240083BC0BD083AE09D081A407D080C196F1BF
:1025340081C197F199EC07F06ED083B80FD083BABC
:102544000DD083BC0BD083BE09D081A407D080C139
:1025540096F181C197F199EC07F05DD083A813D06F
:1025640083AA11D083AC0FD083AE0DD081B40BD02D
:1025740080C19AF181C19BF180C19CF181C19DF11F
:1025840062EC07F048D083B813D083AA11D083AC8F
:102594000FD083AE0DD081A40BD080C19AF181C13C
:1025A4009BF180C19CF181C19DF162EC07F033D0B5
:1025B40081B81CD081B61AD083B818D083BA16D08B
:1025C40083BC14D083BE12D081B410D081BC0ED091
:1025D40081BE0CD0FF0E01019A6F000E9B6FFF0E9F
:1025E4009C6F000E9D6F62EC07F015D0BEEC09F0F5
:1025F4000050011003E0C3EC08F00DD00101CD0E32
:102604009A6F000E9B6FC80E9C6F000E9D6F62EC5C
:1026140007F0C3EC08F00AD281A818D081A616D01E
:1026240083A814D083AA12D083AC10D083BE0ED05A
:1026340081B40CD081BC0AD081BE08D00101A60EA1
:10264400966FFF0E976FE7EC09F0F0D181A818D0D0
:1026540081A616D083A814D083AA12D083AC10D03C
:1026640083AE0ED081B40CD081BC0AD081BE08D018
:10267400A60E0101966FFF0E976FE7EC09F0D6D115
:1026840081A818D081A616D083A814D083AA12D00A
:1026940083AC10D083AE0ED081A40CD081BC0AD000
:1026A40081BE08D0A60E0101966FFF0E976FE7EC6E
:1026B40009F0BCD181B818D081B616D083A814D043
:1026C40083AA12D083AC10D083AE0ED081A40CD0D8
:1026D40081AC0AD081AE08D05A0E0101966F000E6B
:1026E400976FE7EC09F0A2D181B818D081B616D063
:1026F40083B814D083AA12D083AC10D083AE0ED08A
:1027040081A40CD081AC0AD081AE08D05A0E01014C
:10271400966F000E976FE7EC09F088D181B818D056
:1027240081B616D083B814D083BA12D083AC10D03B
:1027340083AE0ED081A40CD081AC0AD081AE08D077
:102744005A0E0101966F000E976FE7EC09F06ED1F7
:1027540083A80FD083BA0DD083BC0BD083BE09D01D
:1027640081B407D080C196F181C197F190EC07F054
:102774005DD183A80FD083AA0DD083BC0BD083BEB8
:1027840009D081B407D080C196F181C197F190EC52
:1027940007F04CD183A80FD083AA0DD083AC0BD003
:1027A40083BE09D081B407D080C196F181C197F16D
:1027B40090EC07F03BD183B80FD083AA0DD083BC33
:1027C4000BD083BE09D081B407D080C196F181C1FA
:1027D40097F190EC07F02AD183B80FD083BA0DD0CB
:1027E40083BC0BD083AE09D081B407D080C196F1ED
:1027F40081C197F199EC07F019D183B80FD083BA4E
:102804000DD083AC0BD083AE09D081A407D080C196
:1028140096F181C197F199EC07F008D183B80FD0F4
:1028240083BA0DD083BC0BD083AE09D081A407D06A
:1028340080C196F181C197F199EC07F0F7D083B884
:102844000FD083BA0DD083BC0BD083BE09D081A432
:1028540007D080C196F181C197F199EC07F0E6D0D9
:1028640083A813D083AA11D083AC0FD083AE0DD02C
:1028740081B40BD082C19AF183C19BF180C19CF1D8
:1028840081C19DF162EC07F0D1D083B813D083AA43
:1028940011D083AC0FD083AE0DD081A40BD080C1F6
:1028A4009AF181C19BF182C19CF183C19DF162ECDB
:1028B40007F0BCD081A617D083A815D083AA13D063
:1028C40083BC11D083AE0FD081A40DD081AC0BD0CA
:1028D40081BA08D0FF0E01019A6F000E9B6F7BEC4A
:1028E40007F0F6D7A3D081B81BD081B619D083B82E
:1028F40017D083BA15D083BC13D083BE11D081B452
:102904000FD081AC0DD081AE0BD081BA08D0FF0EB0
:1029140001019A6F000E9B6F55EC07F0F6D786D035
:1029240081A81BD081A619D083B817D083BA15D03B
:1029340083BC13D083BE11D081B40FD081BC0DD021
:1029440081BE0BD081BA08D0FF0E01019A6F000E30
:102954009B6F7BEC07F0F6D769D083B813D083AABA
:1029640011D083AC0FD083BE0DD081B40BD082C103
:102974009AF183C19BF180C19CF181C19DF162EC0C
:1029840007F054D083B813D083AA11D083AC0FD0EE
:1029940083AE0DD081B40BD080C19AF181C19BF17B
:1029A40080C19CF181C19DF162EC07F03FD083B8F6
:1029B40013D083BA11D083AC0FD083BE0DD081B4B1
:1029C4000BD080C19AF181C19BF180C19CF181C17E
:1029D4009DF162EC07F02AD083B813D083BA11D0EA
:1029E40083AC0FD083AE0DD081B40BD080C19AF1EB
:1029F40081C19BF182C19CF183C19DF162EC07F01E
:102A040015D086EC08F00050011003E0C3EC08F088
:102A14000DD00101CD0E9A6F000E9B6FC80E9C6FF6
:0E2A2400000E9D6F62EC07F0C3EC08F012008C
:102A320002EC17F067EC0BF012EC10F0750E0101CE
:102A42009A6F000E9B6F6FEC07F0866B876B5F0EC1
:102A52009A6F000E9B6F6FEC07F0846B856B86ECB0
:102A620008F00050011003E07BEC08F0F8D7410EAB
:102A72000C6EEE0E0D6E0D2EFED70C2EFCD7000046
:102A8200010E0101846F000E856F270E9A6F000EF2
:102A92009B6F6FEC07F0010E866F000E876F76EC6E
:102AA20007F0CD0E9A6F000E9B6FC80E9C6F000E42
:102AB2009D6F62EC07F0030E0B6E8A0E0C6E550EC4
:102AC2000D6E0D2EFED70C2EFCD70B2EFAD7000062
:102AD2000000BEEC09F0005001101BE181AA16D0E3
:102AE20083B809D083BA07D083BC05D083BE03D094
:102AF20081B401D00BD081B809D081B607D081BC96
:102B020005D081BE03D052EC10F002D0F5EC0BF0F0
:102B1200E0D776EC07F03A0E01019A6F000E9B6F38
:102B22006FEC07F0020E866F000E876F010E7E6F4C
:102B3200000E7F6F020E846F000E856F86EC08F028
:102B4200005001100AE1000E01017F1902E1020E9C
:102B52007E1903E034EC0FF0F1D776EC07F0810E2A
:102B620001019A6F000E9B6F6FEC07F0020E7E6FF1
:102B7200000E7F6F010E886F000E896F030E846F47
:102B8200000E856F9BEC0BF07BEC08F0330E0B6EA6
:102B9200BB0E0C6EDF0E0D6E0D2EFED70C2EFCD76B
:102BA2000B2EFAD700000000A60E0101966FFF0E51
:102BB200976FE7EC09F0030E0B6E8A0E0C6E550E42
:102BC2000D6E0D2EFED70C2EFCD70B2EFAD7000061
:102BD2000000BEEC09F000500110D8A475D086ECBC
:102BE20008F0005001102BE1A60E01019A6F000EB1
:102BF2009B6F6FEC07F0D2EC11F0C3EC08F081B8D8
:102C02001DD081B61BD083B819D083BA17D083AC3C
:102C120015D083BE13D081B411D081BC0FD081BE38
:102C22000DD083AC03D07BEC08F0FBD786EC08F028
:102C32000050011003E07BEC08F0F8D702D07BECE7
:102C420008F04D0E01019A6F08EC04F0050E005CCD
:102C520032E25A0E0101966F000E976FE7EC09F00F
:102C6200030E0B6E8A0E0C6E550E0D6E0D2EFED7D8
:102C72000C2EFCD70B2EFAD7000000005A0E0101D1
:102C8200966F000E976FE7EC09F0030E0B6E8A0E3B
:102C92000C6E550E0D6E0D2EFED70C2EFCD70B2E84
:102CA200FAD700000000070E0C6E7D0E0D6E0D2E81
:102CB200FED70C2EFCD7070E0C6E7D0E0D6E0D2E60
:0E2CC200FED70C2EFCD785D776EC07F0FFD797
:102E040010EE15F0330E006E020E016ED00EF66E4B
:0E2E14002C0EF76E000EF86E5FEC0BF0120045
:022CD000FB0007
:022CD2003100CF
:022CD4003000CE
:022CD6003000CC
:022CD8003100C9
:022CDA003100C7
:022CDC003100C5
:022CDE003000C4
:022CE0003000C2
:102CE2004C6576656C2031205374617274696E672D
:032CF2002020009F
:102CF5002020456E64206F66204C6576656C20311A
:102D05002E204C6576656C2032205374617274698F
:052D15006E67202000A4
:102D1A005374617274696E6720426C6F636B202012
:012D2A0000A8
:052D2B0020303B2000F8
:0C2D30005374617274696E672E2E2E00C1
:102D3C002020456E64206F66204C6576656C2032D1
:102D4C002E204C6576656C20332053746172746947
:052D5C006E672020005D
:102D6100676F742061206172726F772E2E202000B0
:022D7100300030
:022D730031002D
:022D750031002B
:022D7700310029
:022D7900300028
:022D7B00300026
:022D7D00300024
:052D7F0020313B2000A3
:022D840031001C
:022D860031001A
:022D8800300019
:102D8A00436F7272656E7420446972656374696F09
:062D9A006E202121210042
:102DA00057726F6E6720446972656374696F6E2035
:042DB00021212100BC
:022DB40000001D
:0D2DB6006D6F766520666F72776172640044
:102DC300436F6E6E656374696F6E204573746162E1
:082DD3006C697368656421005E
:102DDB0053656E736F7235206174204C4556454CAC
:042DEB002032200072
:102DEF0053656E736F7235206174204C4556454C98
:042DFF00203220005E
:020000040030CA
:0D000100220F0EFF0181FF0FC00FE00F4026
:00000001FF
