:1000000006EF01F00000000000EF00F0000000002B
:0A0010000000000000000000F3D71C
:10001C00240E0C6EB50E0D6E0D2EFED70C2EFCD7CD
:06002C00000000001200BC
:0C003200000000000000000000001200B0
:0A003E00530E0D6E0D2EFED71200BA
:100048004CBE02D0819001D081804CBC02D08192FC
:1000580001D081824CBA02D0819401D081844CB8FD
:1000680002D0819601D0818644B002D0818A01D025
:10007800819A8188DADF81984CB602D0819001D0CC
:1000880081804CB402D0819201D081824CB202D0DE
:10009800819401D081844CB002D0819601D08186B0
:1000A80044B002D0818A01D0819A8188BEDF8198CC
:0C00B80044A002D0AFDF01D0BEDF120078
:0C00C40044904BC04CF0BEDF44801200A2
:1000D0009398939A93969394939293908198819AFC
:1000E000819081928194819699DF98DF97DF818456
:1000F000818681889EDF819891DF81889ADF81984F
:100100008DDF818896DF819889DF8196818891DFF4
:10011000819884DF81888DDF8198819481808188B6
:1001200088DF81987BDF81908186818882DF81985A
:10013000819681887EDF819871DF81887ADF81985E
:100140008186818876DF819869DF8196818871DF79
:100150008198818081828184818681886ADF81980B
:060160005DDF4480120087
:100166000900F5CFE6FF0006FBE10106F9E1120002
:100176000D0E0B6EAF0E0C6EB60E0D6E0D2EFED75F
:0C0186000C2EFCD70B2EFAD70000120044
:100192000FD0800E466E19D0C00E466E16D0940E49
:1001A200466E13D0D40E466E10D0800E466E0DD021
:1001B2004650010AEEE04650020AEEE04650030ABB
:1001C200EEE04650040AEEE0F0D74704006E4650D7
:1001D200002600C046F000C04CF035DF44904A6A69
:1001E2004A504824E96E000E4920EA6EEE520BE0B6
:1001F2004A504824E96E000E4920EA6EEECF4BF0D9
:0A02020060DF4A2AEDD744801200A5
:10020C008AEC01F05FDF010E4C6E18DF0C0E4C6EA9
:10021C0015DF010E466E060E476E2E0E486E000E52
:10022C00496EB1DF020E466E060E476E260E486E04
:10023C00000E496EA8DF330E0B6EBB0E0C6EDF0E7C
:10024C000D6E0D2EFED70C2EFCD70B2EFAD7000000
:10025C000000010E4C6EF2DE010E466E010E476E72
:10026C00150E486E000E496E8EDF020E466E020EA3
:10027C00476E360E486E000E496E85DF330E0B6EE0
:10028C00BB0E0C6EDF0E0D6E0D2EFED70C2EFCD79A
:10029C000B2EFAD700000000456A040E455C06E2FE
:1002AC001C0E4C6ECBDE61DF452AF7D7456A080E73
:1002BC00455C06E2180E4C6EC1DE57DF452AF7D7B7
:1002CC00456A080E455C06E21C0E4C6EB7DE4DDF2F
:0802DC00452AF7D7EBD7FFD745
:1003140010EE15F02F0E006E010E016EE40EF66E57
:0E032400020EF76E000EF86EB3EC00F0120041
:1002E4004469756E756765204275646468696B61FD
:0102F4000009
:0802F5006578616D706C650015
:0802FD004C6364346269740073
:0E030500526F626F66657374205465737400E6
:020000040030CA
:0D000100220F0EFF0181FF0FC00FE00F4026
:00000001FF
