:1000000097EF00F00000000000EF00F0000000009B
:0A0010000000000000000000F3D71C
:0E001C00ACB202D00000FCD746C0ADFF12000F
:10002A001C0E2F6E000E306E460E316E000E326EB2
:10003A00FF0E3A6EFF0E3B6E000E3C6E000E3D6EDA
:10004A00FF0E3E6EFF0E3F6E000E406E000E416EBA
:10005A00FF0E366EFF0E376E000E386E000E396ECA
:10006A00AC8A900EAB6E948E949C9EAA03D0AECFAF
:06007A0000F0FBD71200AC
:0C008000240E0D6E0D2EFED700001200A5
:10008C00C26AC00EC212C18CC18E42C000F00036D2
:10009C00009000360090003600900050C212C280D2
:1000AC00E9DFC284C2A401D0FDD7C4CF01F0006A3D
:0C00BC00C3500012000E0112C29012008E
:1000C8000900F5CFE6FF0006FBE10106F9E11200A1
:1000D800810EAF6EAC84A5DF956A946A936AFF0EB1
:1000E800926EC10EC26EC16AFF0E926E806AF29C59
:0600F800F28CF28E1200F2
:1000FE00456A42C0E9FF43C0EAFFEECF44F04450E8
:10010E00000A0DE044C046F082DF452A45504224E5
:10011E00E96E000E4320EA6EEECF44F0F0D71200E7
:10012E00FAEC00F0D2DF15C042F016C043F0E0DF6B
:10013E005A0E346E000E356E426AA1DF00C034F0E6
:10014E0001C035F000C081FF01C002F0036A02C099
:10015E0082FF010E015C02E1F40E005C08E2010E6A
:10016E00355C02E1900E345C02E3410E336E010EFB
:10017E00355C02E1900E345C08E2010E355C02E162
:10018E002C0E345C02E3420E336E010E355C02E13E
:10019E002C0E345C08E2000E355C02E1C80E345CB5
:1001AE0002E3430E336E33C046F031DF030E0B6EA7
:1001BE008A0E0C6E550E0D6E0D2EFED70C2EFCD724
:0C01CE000B2EFAD700000000B7D7FFD7B7
:1001F40010EE15F01A0E006E010E016EDA0EF66E98
:0E020400010EF76E000EF86E64EC00F01200B2
:0201DA0017000C
:1001DC00436F6E6E656374696F6E204573746162F4
:0801EC006C6973686564210071
:020000040030CA
:0D000100220F0EFF0181FF0FC00FE00F4026
:00000001FF
