:10000000CBEF02F00000000000EF00F00000000065
:0A0010000000000000000000F3D71C
:10001C000B6A0A6A096A00500402F4CF09F0F3CFA4
:10002C0008F001500502F4CF0BF0F3CF0AF00050AA
:10003C000502F3500926F4500A22E86A0B220150FB
:10004C000402F3500926F4500A22E86A0B2208C075
:10005C0000F009C001F00AC002F00BC003F012005E
:10006C00CB50010F006E016A000E01224CC104F04E
:10007C00000E056ECDDF060E026E00C004F001C04E
:10008C0005F0025005E005320432059EFF0FFAD749
:10009C00040E016E04C000F0015004E00036009024
:1000AC00FF0FFBD7300E0014036E04C000F005C028
:1000BC0001F001320032019E01320032019E00C07B
:0C00CC00BEFF0F0EBD160350BD12120047
:1000D800CB50010F006E016A000E01224CC104F0E2
:1000E800000E056E97DF060E026E00C004F001C018
:1000F80005F0025005E005320432059EFF0FFAD7DD
:10010800040E016E04C000F0015004E000360090B7
:10011800FF0FFBD7300E0014036E04C000F005C0BB
:1001280001F001320032019E01320032019E00C00E
:0C013800BBFF0F0EBA160350BA121200E3
:100144000134083609360450085E0550D8A0053C31
:10015400095E003601360F0E0C6E0134083609367E
:10016400045000A006D0085E0550D8A0053C095EE6
:1001740005D008260550D8B0053C092600360136BE
:100184000C2EEBD700B006D0045008260550D8B08A
:08019400053C092600001200E1
:0E019C00ACB202D00000FCD74AC1ADFF120089
:1001AA000450000A08E10550000A05E1FF0E006E3E
:1001BA007F0E016E12000D6A096A086A015000106A
:1001CA00D8B4000C015005180A6E0ABE0D1E0B6A3F
:1001DA0005AE05D0041E051E042AD8B4052A01AEB0
:1001EA0005D0001E011E002AD8B4012A01500510AC
:1001FA000A6E0ABE10D0A1DF0BB020D00DAE000CE3
:10020A00001E011E002AD8B4012A081E091E082A47
:10021A00D8B4092A000C05AE0DD001BE07D0015092
:10022A00096E0050086E016A006AE8D7016A006A1E
:10023A00002A000C011E001E0B2ADDD7082AD8B49A
:10024A00092A0450085CD8A4D9D70550095CD8A457
:10025A00D5D7096A086A002AD8B4012A01AECED7CE
:06026A000000FF0C120071
:0C027000838483964AC14CF12FDF1200FA
:06027C008384838612005A
:060282008288828A12004E
:0C0288008288829A4AC14CF1EDDE12001F
:0A0294009492CA840C0EBA121200F4
:10029E0046C100F047C101F0CD0E046E000E056E92
:1002AE00B6DEC80E046E000E056E78DF00C04AF191
:1002BE0001C04BF1D6DF48C14AF149C14BF1DDDF38
:0202CE0012001C
:1002D0009C0E0101146F010E156F4A0E166F010E70
:1002E000176FFF0E206FFF0E216F000E226F000EA2
:1002F000236FFF0E1C6FFF0E1D6F000E1E6F000E92
:100300001F6FFF0E186FFF0E196F000E1A6F000E91
:100310001B6FAC8A900EAB6E948E949C9EAA03D0F9
:08032000AECF00F0FBD7120084
:0A0328009494CA840C0EBD1212005A
:08033200BB6ABA98BA9A1200E6
:06033A00A0DFA2DF1200AB
:100340000101496B46C1E9FF47C1EAFFEECF48F121
:100350004851000A0EE048C14AF120DF0101492B53
:1003600049514625E96E000E4721EA6EEECF48F16D
:04037000EFD71200B1
:08037400BE6ABD98BD9A12009B
:10037C00FF0E926EFF0E936E946AF20E956E806A6B
:10038C00816A826A836ACA80CA92F90ECB6EECDFEC
:10039C00CA80CA92F90ECB6EC6DFC0DF75DF810E44
:1003AC00AF6EAC848FDFC10EC26EC16A01010A6BE5
:1003BC000B6B086B096B066B076B106B116BB40E38
:1003CC000E6F000E0F6FDC0E0C6F000E0D6FDC0E3F
:0803DC00246F000E256F1200D2
:1003E4000900F5CFE6FF0006FBE10106F9E1120082
:1003F400C80E0101466F000E476FC80E486F000E0D
:10040400496F4BDF1F0E2E6E000E2F6E2EC046F16D
:100414002FC047F193DF7F0E0B6ED40E0C6E310E9E
:100424000D6E0D2EFED70C2EFCD70B2EFAD7000026
:100434000000FF0E4A6F000E4B6F24DF150E2E6E68
:10044400000E2F6E2EC046F12FC047F177DF14DF68
:100454007F0E0B6ED40E0C6E310E0D6E0D2EFED76C
:100464000C2EFCD70B2EFAD700000000FF0E4A6FAB
:10047400000E4B6FFBDE500E2E6E000E2F6E2EC044
:1004840046F12FC047F15ADFFADE7F0E0B6ED40E11
:100494000C6E310E0D6E0D2EFED70C2EFCD70B2ECE
:1004A400FAD70000000047DF420E2E6E000E2F6EBA
:1004B4002EC046F12FC047F141DF300E2E6E000EE4
:1004C4002F6E2EC046F12FC047F138DFFF0E126F9A
:1004D400000E136F800E006E800E1319005C02E193
:1004E400125100081DE212C146F113C147F112C1B5
:1004F40048F113C149F1D1DE030E0B6E8A0E0C6E66
:10050400550E0D6E0D2EFED70C2EFCD70B2EFAD7E2
:1005140000000000010E0101125F000E135BDAD728
:020524001200C3
:0C05260044C146F145C147F108DF120056
:10053200B90E01012C6F000E2D6FC80E2E6F000E2A
:100542002F6FFF0E306F000E316FC80E2A6F000E34
:100552002B6F000E266F000E276F400E286F810E44
:10056200296F326B336B346B356B3A6B3B6B3C6B85
:100572003D6B3E6B3F6B406B416B426B436B366B2B
:10058200376B386B396BC80E4C6F6FDD2EC14CF177
:04059200A2DD1200D4
:1005960070EC03F0F0DECADF9D0E0101446F000E21
:1005A600456FBEDF24DFFF0E466F000E476FFF0E5E
:1005B600486F000E496F70DE7F0E0B6ED40E0C6E08
:1005C600310E0D6E0D2EFED70C2EFCD70B2EFAD744
:1005D60000000000AFDEFED70D2EFED70C2EFCD796
:0A05E6000B2EFAD700000000FFD72B
:1006E00010EE15F06B0E006E010E016E750EF66EBB
:1006F000060EF76E000EF86EF2EC01F010EE81F0CF
:10070000850E006E010E016EF00EF66E050EF76E90
:0A071000000EF86EF2EC01F012008A
:0205F000000009
:0905F2004F62737461636C6500D3
:1005FB005374617274696E6720426C6F636B202059
:01060B0000EE
:0C060C005374617274696E672E2E2E000C
:100618002020456E64206F66204C6576656C20311D
:100628002E204C6576656C20322053746172746993
:050638006E67202000A8
:10063D004C6576656C2031205374617274696E67F8
:03064D002020006A
:10065000436F6E6E656374696F6E2045737461627B
:080660006C69736865642100F8
:0D0668006D6F766520666F727761726400B9
:0A0675007475726E204C6566740007
:0F067F006D6F766520466F727761726420200080
:02068E00F90071
:1006900044656372656173652050574D2E2E20208E
:0206A000200038
:0E06A20053746F7070696E672E2E202020003A
:0B06B0007475726E2052696768740058
:1006BB002020456E64206F66204C6576656C203279
:1006CB002E204C6576656C203320537461727469EF
:0506DB006E6720200005
:020000040030CA
:0D000100220F0EFF0181FF0FC00FE00F4026
:00000001FF
