:100000001FEF10F00000000000EF00F00000000003
:0A0010000000000000000000F3D71C
:08001C000AAE029E000E120064
:100024000B6A0A6A096A00500402F4CF09F0F3CF9C
:1000340008F001500502F4CF0BF0F3CF0AF00050A2
:100044000502F3500926F4500A22E86A0B220150F3
:100054000402F3500926F4500A22E86A0B2208C06D
:1000640000F009C001F00AC002F00BC003F0120056
:0E007400026A016A006A086A036A000E12003E
:100082000B840BAE4CEF00F0010E036E026A016AA4
:0A009200006A0A360232FF0E120067
:10009C000B800BAE5AEF00F0026A0AAEFF0E026E36
:0C00AC00016E006E0A360232FF0E1200D8
:1000B8000C6A0E6A0250D8A475EF00F001C002F075
:1000C80000C001F0006A0E860250D8A475EF00F057
:1000D80001C002F0016A0E960E880250D8B487EF6C
:1000E80000F00E50035ED8A4D8A08CEF00F0D89092
:1000F80002BE91EF00F0003601360236032E7CEF87
:1001080000F08CEF00F0010E0C6EB0DF94EF00F001
:10011800020E0C6EB2DF94EF00F0040E0C6E7ADF64
:020128001200C3
:10012A000B820BAE9FEF00F003680268016800685B
:08013A000A360232FF0E12002A
:10014200CB50010F006E016A000E01223DC104F086
:10015200000E056E66DF060E026E00C004F001C0DE
:1001620005F0025005E005320432059EFF0FFAD772
:10017200040E016E04C000F0015004E0003600904D
:10018200FF0FFBD7300E0014036E04C000F005C051
:1001920001F001320032019E01320032019E00C0A4
:0C01A200BEFF0F0EBD160350BD12120070
:0801AE000B6A0B86FF0E120024
:1001B600CB50010F006E016A000E01223DC104F012
:1001C600000E056E2CDF060E026E00C004F001C0A4
:1001D60005F0025005E005320432059EFF0FFAD7FE
:1001E600040E016E04C000F0015004E000360090D9
:1001F600FF0FFBD7300E0014036E04C000F005C0DD
:1002060001F001320032019E01320032019E00C02F
:0C021600BBFF0F0EBA160350BA12120004
:06022200838483861200B4
:0C022800838483963BC13DF1C2DF1200CD
:060234008288828A12009C
:0E023A00ACB202D00000FCD73BC1ADFF1200F9
:0C024800839483863BC13DF1B2DF1200BD
:0C0254008288829A3BC13DF172DF1200EB
:100260000CB072EF01F00CA218EF02F00E6A000E53
:10027000026489EF01F0F00E0214D8A454EF01F0EB
:10028000023A01380F0B02260138F00B016E0038DC
:100290000F0B01260038F00B006E08380F0B0026FC
:1002A0000838F00B086E0E84D89002BE6DEF01F096
:1002B00008360036013602360E2A02BE6DEF01F016
:1002C00008360036013602360E2A02BE6DEF01F006
:1002D00008360036013602360E2A0E5003640EEF41
:1002E00002F0035E0BBC08AE13EF02F0D880800E64
:1002F00008640030000E002201220222D8A013EF71
:1003000002F0023201320032034A18EF02F013EF1A
:1003100002F001C002F000C001F008C000F0086A5D
:10032000000E0E860264C0EF01F0F00E0214D8A495
:10033000A8EF01F0023A01380F0B02260138F00B4A
:10034000016E00380F0B01260038F00B006E0E8492
:10035000D89002BE6DEF01F00036013602360E2A4B
:1003600002BE6DEF01F00036013602360E2A02BEE3
:100370006DEF01F00036013602360E2A6DEF01F006
:1003800001C002F000C001F0006A000E0E960E8857
:100390000264EDEF01F0F00E0214D8A4D8EF01F0E2
:1003A000023A01380F0B02260138F00B016E0E8461
:1003B000D89002BE6DEF01F0013602360E2A02BE61
:1003C0006DEF01F0013602360E2A02BE6DEF01F02C
:1003D000013602360E2A6DEF01F001C002F0016A0B
:1003E000000E0E8602641DEF02F0F00E0214D8A477
:1003F000FCEF01F0023A0E84D89002BE6DEF01F0DE
:1004000002360E2A02BE6DEF01F002360E2A02BE3F
:100410006DEF01F002360E2A6DEF01F0010E0C6E49
:1004200030DE20EF02F0020E0C6EF8DD20EF02F05D
:10043000040E0C6E7ADE20EF02F0080E0C6E1ADE4F
:020440001200A8
:0C0442008298828A3BC13DF17BDE1200F3
:10044E00086A096A000E07620364ACEF02F00250FC
:10045E0006180A6E075003267E0ED8A03DEF02F056
:10046E00035ED8B0B0EF02F041EF02F0035ED8A009
:10047E00B4EF02F0028E068E02C00EF001C00BF039
:10048E0000C00DF000500402F4CF0CF00150050234
:10049E00F4CF00F0F3CF08F00402F3500C26F45022
:1004AE000822000E00220D500502F3500C26F450C7
:1004BE000822000E002202500402F3500826F450C7
:1004CE00002202500502016A000E0122F35000269E
:1004DE00F45001220D500602F3500826F45000226B
:1004EE00026A000E012202220B500602F350002671
:1004FE00F4500122000E02220E500602F350012685
:10050E00F450022202BE94EF02F008360036013695
:10051E0002360306D8B4B4EF02F0A7EF02F0D8808B
:10052E00800E08640030000E002201220222D8A0A4
:10053E00A7EF02F0023201320032034AB0EF02F0AE
:10054E000AAE029E000EB6EF02F0010E8CDDB6EF83
:10055E0002F0020EE3DDB6EF02F0040E8BDD1200A8
:10056E000050086E0150006E016A026A036A0B6A3F
:10057E000C6A960E036E0A6A00C001F008C000F005
:08058E00086A026A92DD120006
:100596000B6A0350D8B411EF03F002500A6E028EB4
:1005A6008E0E035E03AE15EF03F0036C080E035CBC
:1005B600D8A0F0EF02F0036E013602C001F0026A25
:1005C600080E035CD8A0F0EF02F0036E0136016A54
:1005D6000350D8A4D890FAEF02F00350D8B4FAEF3B
:1005E60002F0D89002320132032EF4EF02F00BBC77
:1005F60001A007EF03F0D8A007EF03F0012AD8B453
:10060600022A02BE24EF03F00AAE29EF03F0021E0F
:10061600011E012AD8B4022A29EF03F0026A016AF0
:1006260029EF03F00B800BAE2DEF03F0026A0AAE42
:100636002DEF03F0FF0E026E016E0A3602322DEF29
:1006460003F0010E0C6E27DD2FEF03F0000E0C6E8B
:100656002FEF03F0FF0E0C6E0150006E0250016E7C
:02066600120080
:100668000450000A12E10550000A0FE10650000A82
:100678000CE10750000A09E1FF0E006EFF0E016E43
:100688007F0E026EFF0E036E1200086A096A075099
:10069800D8B4DFEF03F00350D8B4E3EF03F002500F
:1006A80006180A6E028E068E0E6A02C008F001C095
:1006B8000CF000C00DF004500D5E0550D8A0053CAC
:1006C8000C5E0650D8A0063C085E086A0C6A0D6AE3
:1006D800D8A076EF03F0D890023201320032083207
:1006E800010E0E6E0750035ED8A083EF03F07E0E56
:1006F8000E240326D8B0E7EF03F089EF03F07E0E4F
:100708000E240326D8A0EBEF03F0180E0B6E0D365F
:100718000C3608360036013602360E360450005EB6
:100728000550D8A0053C015E0650D8A0063C025EE4
:1007380006340E120EA0A4EF03F00D80AFEF03F005
:10074800045000260550D8B0053C01260650D8B004
:10075800062802260D900B2E8BEF03F0D5EF03F041
:10076800D8900036013602360E360450005E055029
:10077800D8A0053C015E0650D8A0063C025E0634AF
:100788000E10010B0D26D8B00C2AD8B4082AD8A40C
:10079800D5EF03F008320C320D32032AD8B4E7EF54
:1007A80003F00AAE089E0850026E0C50016E0D5000
:1007B800006EEDEF03F0010EF6DCEDEF03F0020E34
:1007C80055DCEDEF03F0040EACDCEDEF03F0080EA2
:0407D80054DC1200DB
:1007DC00025006180E6E086A096A0B6A0350076409
:1007EC00E1EF04F006500A6E068E028E03500B6E7B
:1007FC000750036E000E0B6431EF04F00B50075ED4
:10080C00D8B4D2EF04F0070E0764A0EF04F0075E33
:10081C0000C008F001C000F002C001F0026A074EEF
:10082C00D2EF04F0076475EF04F0075E00C008F027
:10083C0001C000F0016A074ED2EF04F0076453EFD9
:10084C0004F0075E00C008F0006A074ED2EF04F017
:10085C0007643AEF04F00AC002F005C001F004C0CE
:10086C0000F0086AFEEF05F0030E076445EF04F094
:10087C00075E08380F0B086E074ED2EF04F0D890C5
:10088C000832074ED2EF04F0D8900832074ED2EF60
:10089C0004F0D8900832D2EF04F0030E076464EF32
:1008AC0004F0075E08380F0B086E0038F00B0826B2
:1008BC0000380F0B006E074ED2EF04F0D8900032C8
:1008CC000832074ED2EF04F0D89000320832074EAF
:1008DC00D2EF04F0D89000320832D2EF04F0030EBD
:1008EC0007648CEF04F0075E08380F0B086E0038B5
:1008FC00F00B082600380F0B006E0138F00B0026A9
:10090C0001380F0B016E074ED2EF04F0D890013274
:10091C0000320832074ED2EF04F0D8900132003288
:10092C000832074ED2EF04F0D89001320032083270
:10093C00D2EF04F0030E0764BDEF04F0075E083835
:10094C000F0B086E0038F00B082600380F0B006EEA
:10095C000138F00B002601380F0B016E0238F00B3A
:10096C00012602380F0B026E074ED2EF04F0D8901E
:10097C000232013200320832074ED2EF04F0D89026
:10098C000232013200320832074ED2EF04F0D89016
:10099C000232013200320832096A000E0EAEC6EF86
:1009AC0005F0081E001E011E021E082A002201224C
:1009BC000222C6EF05F00750D8A4E7EF04F0FEEFD3
:1009CC0005F0096A02C00AF0028E068E0750035C1D
:1009DC00076ED8B4B9EF05F0070E076487EF05F082
:1009EC00075E0450096E0550046E0650056E066ACB
:1009FC00074EB9EF05F0070E07645CEF05F0075ED4
:100A0C000450096E0550046E056A074EB9EF05F0E7
:100A1C00070E07643AEF05F0075E0450096E046A8E
:100A2C00074EB9EF05F0070E076421EF05F00AC079
:100A3C0002F0FEEF05F0030E07642CEF05F0075EE5
:100A4C0009380F0B096E074EB9EF05F0D890093233
:100A5C00074EB9EF05F0D8900932074EB9EF05F003
:100A6C00D8900932B9EF05F0030E07644BEF05F08F
:100A7C00075E09380F0B096E0438F00B0926043891
:100A8C000F0B046E074EB9EF05F0D8900432093203
:100A9C00074EB9EF05F0D89004320932074EB9EF82
:100AAC0005F0D89004320932B9EF05F0030E076453
:100ABC0073EF05F0075E09380F0B096E0438F00B65
:100ACC00092604380F0B046E0538F00B0426053884
:100ADC000F0B056E074EB9EF05F0D89005320432B6
:100AEC000932074EB9EF05F0D890053204320932BD
:100AFC00074EB9EF05F0D890053204320932B9EF40
:100B0C0005F0030E0764A4EF05F0075E09380F0B20
:100B1C00096E0438F00B092604380F0B046E0538E7
:100B2C00F00B042605380F0B056E0638F00B052666
:100B3C0006380F0B066E074EB9EF05F0D89006324B
:100B4C00053204320932074EB9EF05F0D89006325F
:100B5C00053204320932074EB9EF05F0D89006324F
:100B6C00053204320932086A000E0EAEC6EF05F0EB
:100B7C00091E041E051E061E092A04220522062231
:100B8C00095008260450002205500122065002226A
:100B9C000EBEDDEF05F0D8A0ECEF05F0023201320D
:100BAC0000320832033EECEF05F0F8EF05F0D8B058
:100BBC00F2EF05F0000E081E001E011E021E082A90
:100BCC000022012202220A7EF2EF05F0010E0C6EC9
:100BDC0030EC01F000EF06F0020E0C6E30EC01F080
:100BEC0000EF06F0040E0C6E95EC00F000EF06F032
:060BFC00000E0C6E120059
:100C020037C13BF138C13CF114EC01F037C13BF183
:080C120038C13CF115DC1200B1
:100C1A0037C13BF138C13CF114EC01F039C13BF169
:0A0C2A003AC13CF12AEC01F012007F
:100C3400CF6ACE6A010100514D0A66E1809A030E23
:100C44000D6E0D2EFED7808A080E0D6E0D2EFED76A
:100C5400809A84B012D0CECF37F1000E386FCFCF48
:100C640039F1000E3A6F000E006E3A51005C02E159
:100C74003951F00801E201D0ECD7CF6ACE6ACD80B9
:100C840084A013D00101CECF37F1000E386FCFCF3F
:100C940039F1000E3A6F000E006E3A51005C02E129
:100CA4003951F00801E201D0EBD70101CECF37F181
:100CB400000E386FCFCF39F1000E3A6F39C101F011
:100CC400006A37510026385101224FDCCD0E046EE4
:100CD400CC0E056E4C0E066E7C0E076E27EC02F0F1
:100CE400000E046E000E056E000E066E800E076E7A
:100CF400B9DCCD0E046ECC0E056E680E066E830E46
:100D0400076EB0DC46DC12000051520A67E18090A5
:100D1400030E0D6E0D2EFED78080080E0D6E0D2E67
:100D2400FED7809080B212D0CECF37F1000E386F4C
:100D3400CFCF39F1000E3A6F000E006E3A51005CCD
:100D440002E13951F00801E201D0ECD7CF6ACE6A52
:100D5400CD8080A212D0CECF37F1000E386FCFCF26
:100D640039F1000E3A6F000E006E3A51005C02E158
:100D74003951F00801E201D0ECD70101CECF37F1AF
:100D8400000E386FCFCF39F1000E3A6F39C101F040
:100D9400006A3751002638510122B7EC02F0CD0E1B
:100DA400046ECC0E056E4C0E066E7C0E076E27ECA0
:100DB40002F0000E046E000E056E000E066E800E2C
:100DC400076E50DCCD0E046ECC0E056E680E066EFA
:100DD400830E076E47DCCBEC02F0120000514C0A84
:100DE40069E18094030E0D6E0D2EFED78084080EEB
:100DF4000D6E0D2EFED7809480B612D0CECF37F173
:100E0400000E386FCFCF39F1000E3A6F000E006E2E
:100E14003A51005C02E13951F00801E201D0ECD70B
:100E2400CF6ACE6ACD8080A612D0CECF37F1000E25
:100E3400386FCFCF39F1000E3A6F000E006E3A5181
:100E4400005C02E13951F00801E201D0ECD7010164
:100E5400CECF37F1000E386FCFCF39F1000E3A6F95
:100E640039C101F0006A3751002638510122B7EC2C
:100E740002F0CD0E046ECC0E056E4C0E066E7C0E8A
:100E8400076E27EC02F0000E046E000E056E000ED5
:100E9400066E800E076E34EC03F0CD0E046ECC0E9D
:100EA400056E680E066E830E076E34EC03F0CBEC11
:060EB40002F01200120022
:0A0EBA0011EC01F01AEC01F0120037
:100EC4000101396B37C1E9FF38C1EAFFEECF00F108
:100ED4000051000A0FE000C13BF11DEC01F00101DB
:100EE400392B39513725E96E000E3821EA6EEECFE1
:060EF40000F1EED7120030
:100EFA0037C13BF138C13CF124EC01F037C13BF179
:0A0F0A0038C13CF12AEC01F012009E
:100F140000C008F00150006E016A026A036A0B6A9D
:100F24000C6A016A026A036A960E036E0A6A00AECC
:100F3400A2EF07F0081E001E082AD8B4002A0A8E61
:100F440000C001F008C000F0086A026A5CEC00F01E
:020F5400120089
:060F5600067E41DC1200E2
:080F5C00BB6ABA98BA9A1200B0
:0A0F64009494CA840C0EBD12120012
:080F6E00BE6ABD98BD9A120095
:100F76003A0E01010D6F020E0E6F3B0E0F6F010E42
:100F8600106FFF0E116FFF0E126F000E136F000E23
:100F9600146FFF0E156FFF0E166F000E176F000E03
:100FA600186FFF0E1F6FFF0E206F000E216F000ED1
:100FB600226FAC8A900EAB6E948E949C9EAA03D040
:080FC600AECF00F0FBD71200D2
:0A0FCE009492CA840C0EBA121200AD
:100FD80033C13BF134C13CF12AEC01F011EC01F0D2
:020FE8001200F5
:100FEA0081BA17D081B815D081B613D083B811D081
:100FFA0083BA0FD083BC0DD083BE0BD081B409D085
:10100A0081BC07D081BE05D0010E006E000E016EB4
:08101A001200006A016A1200D5
:10102200CD0E0101376F000E386FC80E396F000EFA
:061032003A6FF2DD12002E
:101038004C0E0101006FFADD0A0E005C0FE34D0E45
:101048000101006FF3DD0F0E005C08E3520E010191
:10105800006FECDD0A0E005C01E303D0006A016A50
:0C1068001200010E006E000E016E12005E
:10107400FF0E0101341902E1A60E331914E1FF0E2B
:10108400376F000E386F37DF060E0B6E950E0C6E41
:101094008C0E0D6E0D2EFED70C2EFCD70B2EFAD710
:1010A400000009DF12D1000E0101341902E15A0EC9
:1010B400331914E1FF0E376F000E386FA0DD060EF2
:1010C4000B6E950E0C6E8C0E0D6E0D2EFED70C2E27
:1010D400FCD70B2EFAD70000EEDEF7D0FF0E01018D
:1010E400341902E1E20E331923E1FF0E376F000ECB
:1010F400386F01DF030E0B6E8A0E0C6E550E0D6EEB
:101104000D2EFED70C2EFCD70B2EFAD700000000B4
:10111400D2DE060E0B6E130E0C6EAD0E0D6E0D2E82
:10112400FED70C2EFCD70B2EFAD700000000CDD032
:10113400000E0101341902E11E0E331923E1FF0EE2
:10114400376F000E386F5BDD030E0B6E8A0E0C6E6C
:10115400550E0D6E0D2EFED70C2EFCD70B2EFAD786
:1011640000000000A8DE060E0B6E130E0C6EAD0E12
:101174000D6E0D2EFED70C2EFCD70B2EFAD70000C9
:101184000000A3D0FF0E0101341902E1C40E33198B
:1011940023E1FF0E376F000E386FADDE040E0B6EC9
:1011A400EF0E0C6E790E0D6E0D2EFED70C2EFCD7A5
:1011B4000B2EFAD7000000007EDE060E0B6E130E17
:1011C4000C6EAD0E0D6E0D2EFED70C2EFCD70B2E15
:1011D400FAD70000000079D0000E0101341902E1B1
:1011E4003C0E331923E1FF0E376F000E386F07DD15
:1011F400040E0B6EEF0E0C6E790E0D6E0D2EFED7D7
:101204000C2EFCD70B2EFAD70000000054DE060E7D
:101214000B6E130E0C6EAD0E0D6E0D2EFED70C2E36
:10122400FCD70B2EFAD7000000004FD0FF0E0101AF
:10123400341902E1D30E331921E1FF0E376F000E8A
:10124400386F59DE040E0B6E6D0E0C6E9B0E0D6E18
:101254000D2EFED70C2EFCD70B2EFAD72CDE060E45
:101264000B6E130E0C6EAD0E0D6E0D2EFED70C2EE6
:10127400FCD70B2EFAD70000000027D0000E010186
:10128400341902E12D0E331920E1FF0E376F000EE1
:10129400386FB5DC040E0B6E6D0E0C6E9B0E0D6E6E
:1012A4000D2EFED70C2EFCD70B2EFAD704DE060E1D
:1012B4000B6E130E0C6EAD0E0D6E0D2EFED70C2E96
:0C12C400FCD70B2EFAD70000000012002F
:1012D00033C13BF134C13CF124EC01F035C13BF1A9
:0A12E00036C13CF121EC02F01200CF
:1012EA0033C13BF134C13CF114EC01F01AEC01F0CA
:0212FA001200E0
:1012FC0081AA17D081A815D081A613D083A811D0AC
:10130C0083AA0FD083AC0DD083AE0BD081A409D0AF
:10131C0081AC07D081AE05D0010E006E000E016EBF
:08132C001200006A016A1200C0
:1013340081A80BD0E20E0001DE6F000EDF6FDEC06D
:1013440037F1DFC038F1BCDD0CD081B80AD0E00E33
:101354000001DE6F000EDF6FDEC037F1DFC038F151
:10136400AFDD81A60BD0D40E0001DE6F000EDF6F5F
:10137400DEC037F1DFC038F1A3DD0CD081B60AD06E
:10138400D20E0001DE6F000EDF6FDEC037F1DFC06A
:1013940038F196DD83A80BD0D00E0001DE6F000E6D
:1013A400DF6FDEC037F1DFC038F18ADD0CD083B8DF
:1013B4000AD0D60E0001DE6F000EDF6FDEC037F1FB
:1013C400DFC038F17DDD83AA0BD0DC0E0001DE6FB7
:1013D400000EDF6FDEC037F1DFC038F171DD0CD0F5
:1013E40083BA0AD0DA0E0001DE6F000EDF6FDEC0B2
:1013F40037F1DFC038F164DD83AC0BD0D80E0001C7
:10140400DE6F000EDF6FDEC037F1DFC038F158DD6C
:101414000CD083BC0AD0290E0001DE6F000EDF6FF2
:10142400DEC037F1DFC038F14BDD83AE0BD0270EC1
:101434000001DE6F000EDF6FDEC037F1DFC038F170
:101444003FDD0CD083BE0AD0250E0001DE6F000EF6
:10145400DF6FDEC037F1DFC038F132DD81A40BD09D
:101464002F0E0001DE6F000EDF6FDEC037F1DFC02C
:1014740038F126DD0CD081B40AD02D0E0001DE6FC8
:10148400000EDF6FDEC037F1DFC038F119DD81AC4B
:101494000BD02B0E0001DE6F000EDF6FDEC037F1C4
:1014A400DFC038F10DDD0CD081BC0AD0230E000161
:1014B400DE6F000EDF6FDEC037F1DFC038F100DD14
:1014C40081AE0BD01C0E0001DE6F000EDF6FDEC09C
:1014D40037F1DFC038F1F4DC0CD081BE0AD01A0E2B
:1014E4000001DE6F000EDF6FDEC037F1DFC038F1C0
:1014F400E7DC81AA0BD0150E0001DE6F000EDF6F52
:10150400DEC037F1DFC038F1DBDC0CD081BA0AD0A1
:101514001E0E0001DE6F000EDF6FDEC037F1DFC08C
:0615240038F1CEDC1200DC
:10152A000900F5CFE6FF0006FBE10106F9E112002A
:10153A007EDD000E011802E1000E001859E11E0EB0
:10154A000101336F000E346F90DD71DD000E01185A
:10155A0002E1000E00184CE1C40E0101336FFF0EC8
:10156A00346F83DD64DD000E011802E1000E0018FD
:10157A003FE15A0E0101336F000E346F76DD57DDFD
:10158A00000E011802E1000E001832E1A60E010158
:10159A00336FFF0E346F69DDE20E0101336FFF0E08
:1015AA00346F63DD44DD000E011802E1000E0018FD
:1015BA001FE15A0E0101336F000E346F56DD3C0EE7
:1015CA000101336F000E346F50DD31DD000E01185A
:1015DA0002E1000E00180CE1A60E0101336FFF0EA6
:1015EA00346F43DDA60E0101336FFF0E346F3DDD0C
:1015FA0013DD410E0C6EEE0E0D6E0D2EFED70C2E67
:06160A00FCD700001200F5
:10161000CA0E926EFF0E936E946AF20E956E050ED0
:10162000966E806A816A826A836A846ACA80CA9274
:10163000F90ECB6E9CDCCA80CA92F90ECB6E8EDCA2
:1016400091DCC5DC810EAF6EAC8495DCC10EC26E40
:10165000060EC16E0001EE6BEF6BF06BF16BFE6B73
:10166000FF6BE46BE56BC30ED56ED66AF28A800E13
:08167000CD6ECF6ACE6A1200B4
:1016780083AC0BD0FF0E0101336F000E346FFF0EE9
:10168800356F000E366F20DEF3D713DC0D0E0B6EB0
:10169800AF0E0C6EB60E0D6E0D2EFED70C2EFCD7AF
:1016A8000B2EFAD7000026DE0050011013E181AEA0
:1016B80007D0DC0E0101376F000E386F1ADC09D035
:1016C80081A807D0DC0E0101376F000E386F01ECDE
:0616D80006F0E9D7120044
:1016DE0081AA12D183B813D083AA11D083AC0FD0B4
:1016EE0083BE0DD081B40BD019C137F11AC138F1B8
:1016FE001DC139F11EC13AF10DEC06F0FCD083B8D4
:10170E0013D083AA11D083AC0FD083AE0DD081B489
:10171E000BD01DC137F11EC138F11DC139F11EC1EB
:10172E003AF10DEC06F0E7D083B813D083BA11D09E
:10173E0083AC0FD083BE0DD081B40BD01DC137F159
:10174E001EC138F11DC139F11EC13AF10DEC06F082
:10175E00D2D083B813D083BA11D083AC0FD083AE5E
:10176E000DD081B40BD01DC137F11EC138F119C196
:10177E0039F11AC13AF10DEC06F0BDD083A80ED0A6
:10178E0083BA0CD083BC0AD083BE08D081B406D0F5
:10179E001DC133F11EC134F118DCADD083A80ED0BB
:1017AE0083AA0CD083BC0AD083BE08D081B406D0E5
:1017BE001DC133F11EC134F108DC9DD083A80FD0BA
:1017CE0083AA0DD083AC0BD083BE09D081B407D0D1
:1017DE001DC133F11EC134F1ECEC07F08CD083B88F
:1017EE000FD083AA0DD083BC0BD083BE09D081B499
:1017FE0007D01DC133F11EC134F1ECEC07F07BD0E4
:10180E0083B80ED083BA0CD083BC0AD083AE08D076
:10181E0081B406D01DC133F11EC134F15FDD6BD032
:10182E0083B80ED083BA0CD083AC0AD083AE08D066
:10183E0081A406D01DC133F11EC134F14FDD5BD042
:10184E0083B80ED083BA0CD083BC0AD083AE08D036
:10185E0081A406D01DC133F11EC134F13FDD4BD042
:10186E0083B80ED083BA0CD083BC0AD083BE08D006
:10187E0081A406D01DC133F11EC134F12FDD3BD042
:10188E0083A813D083AA11D083AC0FD083AE0DD012
:10189E0081B40BD01DC137F11EC138F11DC139F114
:1018AE001EC13AF10DEC06F026D083B813D083AAF0
:1018BE0011D083AC0FD083AE0DD081A40BD01DC13F
:1018CE0037F11EC138F11DC139F11EC13AF10DECCF
:1018DE0006F011D00CDD0050011002E024DD0BD01B
:1018EE000101DC0E336F000E346FDC0E356F000E0F
:1018FE00366FE7DC18DDCFD181A818D081A616D0BF
:10190E0083A814D083AA12D083AC10D083BE0ED07D
:10191E0081B40CD081BC0AD081BE08D00101A60EC4
:10192E00336FFF0E346F3AEC08F0B5D181A818D0A2
:10193E0081A616D083A814D083AA12D083AC10D05F
:10194E0083AE0ED081B40CD081BC0AD081BE08D03B
:10195E00A60E0101336FFF0E346F3AEC08F09BD1E7
:10196E0081A818D081A616D083A814D083AA12D02D
:10197E0083AC10D083AE0ED081A40CD081BC0AD023
:10198E0081BE08D0A60E0101336FFF0E346F3AEC04
:10199E0008F081D181B818D081B616D083A814D0A2
:1019AE0083AA12D083AC10D083AE0ED081A40CD0FB
:1019BE0081AC0AD081AE08D05A0E0101336F000EF1
:1019CE00346F3AEC08F067D181B818D081B616D0D2
:1019DE0083B814D083AA12D083AC10D083AE0ED0AD
:1019EE0081A40CD081AC0AD081AE08D05A0E010170
:1019FE00336F000E346F3AEC08F04DD181B818D029
:101A0E0081B616D083B814D083BA12D083AC10D05E
:101A1E0083AE0ED081A40CD081AC0AD081AE08D09A
:101A2E005A0E0101336F000E346F3AEC08F033D1C9
:101A3E0083A80FD083BA0DD083BC0BD083BE09D040
:101A4E0081B407D01DC133F11EC134F1ECEC07F0A7
:101A5E0022D183A80FD083AA0DD083BC0BD083BE16
:101A6E0009D081B407D01DC133F11EC134F1ECECA5
:101A7E0007F011D183A80FD083AA0DD083AC0BD061
:101A8E0083BE09D081B407D01DC133F11EC134F11C
:101A9E00ECEC07F000D183B80FD083AA0DD083BC35
:101AAE000BD083BE09D081B407D01DC133F11EC146
:101ABE0034F1ECEC07F0EFD083B80ED083BA0CD033
:101ACE0083BC0AD083AE08D081B406D01DC133F1D9
:101ADE001EC134F103DCDFD083B80FD083BA0DD032
:101AEE0083AC0BD083AE09D081A407D01DC133F1D6
:101AFE001EC134F175EC09F0CED083B80FD083BA85
:101B0E000DD083BC0BD083AE09D081A407D01DC1EC
:101B1E0033F11EC134F175EC09F0BDD083B80FD08E
:101B2E0083BA0DD083BC0BD083BE09D081A407D05D
:101B3E001DC133F11EC134F175EC09F0ACD083A890
:101B4E0013D083AA11D083AC0FD083AE0DD081B445
:101B5E000BD019C137F11AC138F11DC139F11EC1AF
:101B6E003AF10DEC06F097D083B813D083AA11D0BA
:101B7E0083AC0FD083AE0DD081A40BD01DC137F135
:101B8E001EC138F119C139F11AC13AF10DEC06F046
:101B9E0082D081A617D083A815D083AA13D083BC78
:101BAE0011D083AE0FD081A40DD081AC0BD081BAF1
:101BBE0008D0FF0E0101376F000E386F7DEC07F075
:101BCE00F6D769D083B813D083AA11D083AC0FD0C7
:101BDE0083BE0DD081B40BD019C137F11AC138F1C3
:101BEE001DC139F11EC13AF10DEC06F054D083B887
:101BFE0013D083AA11D083AC0FD083AE0DD081B495
:101C0E000BD01DC137F11EC138F11DC139F11EC1F6
:101C1E003AF10DEC06F03FD083B813D083BA11D051
:101C2E0083AC0FD083BE0DD081B40BD01DC137F164
:101C3E001EC138F11DC139F11EC13AF10DEC06F08D
:101C4E002AD083B813D083BA11D083AC0FD083AE11
:101C5E000DD081B40BD01DC137F11EC138F119C1A1
:101C6E0039F11AC13AF10DEC06F015D0F5EC07F08A
:101C7E000050011003E09AEC09F00DD00101DC0ECA
:101C8E00336F000E346FDC0E356F000E366F68EC5E
:081C9E0009F09AEC09F01200B4
:101CA60083A80DD083BA0BD083BC09D083BE07D0DE
:101CB60081B405D00F0E0001FC6F000EFD6F83A8E6
:101CC6000DD083AA0BD083BC09D083BE07D081B4C4
:101CD60005D000010A0EFC6F000EFD6F83A80DD023
:101CE60083AA0BD083AC09D083BE07D081B405D0BC
:101CF6000001040EFC6F000EFD6F83B80DD083AAA1
:101D06000BD083BC09D083BE07D081B405D00001B7
:101D1600010EFC6F000EFD6F83B80BD083AA09D0AD
:101D260083AC07D083BE05D081B403D00001FC6B21
:101D3600FD6B83B80BD083AA09D083AC07D083AEE2
:101D460005D081B403D00001FC6BFD6B83B80BD0CA
:101D560083BA09D083AC07D083BE05D081B403D043
:101D66000001FC6BFD6B83B80BD083BA09D083AC42
:101D760007D083AE05D081B403D00001FC6BFD6BA8
:101D860083B80DD083BA0BD083BC09D083AE07D0FD
:101D960081B405D00001FF0EFC6FFF0EFD6F83B806
:101DA6000DD083BA0BD083AC09D083AE07D081A403
:101DB60005D00001FC0EFC6FFF0EFD6F83B80DD041
:101DC60083BA0BD083BC09D083AE07D081A405D0DB
:101DD6000001F60EFC6FFF0EFD6F83B80DD083BABF
:101DE6000BD083BC09D083BE07D081A405D00001E7
:101DF600F10EFC6FFF0EFD6F0001FCC000F0FDC090
:101E060001F08AEC07F009C104F00AC105F00BC124
:101E160006F00CC107F027EC02F000C027F101C064
:101E260028F102C029F103C02AF105C100F006C15C
:101E360001F007C102F008C103F001C104F002C1BC
:101E460005F003C106F004C107F027EC02F027C134
:101E560004F028C105F029C106F02AC107F0EEEC0E
:101E660003F000C027F101C028F102C029F103C028
:101E76002AF1EC51FC5D006EED51FD59016E8AECC4
:101E860007F0F4C004F0F5C005F0F6C006F0F7C0A0
:101E960007F027EC02F027C104F028C105F029C19C
:101EA60006F02AC107F0EEEC03F000C02FF101C0E6
:101EB60030F102C031F103C032F12FC1F8F030C168
:101EC600F9F031C1FAF032C1FBF001C100F002C1F4
:101ED60001F003C102F004C103F02FC104F030C1C8
:101EE60005F031C106F032C107F0EEEC03F000C098
:101EF60001F101C002F102C003F103C004F1FCC00C
:101F0600ECF0FDC0EDF0E8C000F0E9C001F08AECAD
:101F160007F000C02BF101C02CF102C02DF103C067
:101F26002EF12BC100F02CC101F02DC102F02EC103
:101F360003F02FC104F030C105F031C106F032C103
:101F460007F0EEEC03F0CBEC02F000C027F101C085
:101F560028F127C1EAF028C1EBF02FC104F030C107
:101F660005F031C106F032C107F02BC100F02CC1DB
:101F760001F02DC102F02EC103F0ABEC07F0CBEC63
:101F860002F000C0F2F001C0F3F027C137F128C11A
:101F960038F100C039F101C03AF10DEC06F012003B
:101FA600D70E0001E66F000EE76FEB0EE86F000E2E
:101FB600E96FFF0E0101236F000E246FC80E256F17
:101FC600000E266FFF0E196F000E1A6FC80E1B6FDC
:101FD600000E1C6FFF0E1D6F000E1E6F000E096FA8
:101FE600000E0A6F000E0B6F800E0C6F056B066BF2
:101FF600076B086B0001F46BF56BF66BF76B010171
:10200600016B026B036B046B0001EC6BED6BEA6B0F
:10201600EB6BF26BF36BEB0E01013D6FA1EC00F085
:0A202600E8C03DF1DBEC00F0120011
:0E20300027C137F128C138F162EC07F0120029
:10203E002DEC11F008EC0BF0AFDF310E0101276F24
:10204E00000E286FEEDF0001F06BF16BAC0E01019C
:10205E00276F000E286FE5DF0001EE6BEF6BF5ECDE
:10206E0007F00050011003E011EC08F0F8D7010E54
:10207E000001EE6F000EEF6FBD0E0101276F000E17
:10208E00286FCFDF010E0001F06F000EF16F5DECD7
:10209E0007F0CD0E0101376F000E386FC80E396F85
:1020AE00000E3A6F0DEC06F0030E0B6E8A0E0C6EE0
:1020BE00550E0D6E0D2EFED70C2EFCD70B2EFAD70D
:1020CE00000000007EEC09F0005001101AE181AA18
:1020DE0015D083B809D083BA07D083BC05D083BE90
:1020EE0003D081B401D00AD081B808D081B606D011
:1020FE0081BC04D081BE02D0CFDD02D06FEC0BF0DC
:10210E00E1D75DEC07F0870E0101276F000E286FF7
:10211E0088DF020E0001F06F000EF16F010EFE6FF0
:10212E00000EFF6F020EEE6F000EEF6FF5EC07F074
:10213E000050011003E19DEC0AF0F8D75DEC07F0BA
:10214E003D0E0101276F000E286F6BDF020E00019E
:10215E00FE6F000EFF6F010EE46F000EE56F030EB3
:10216E00EE6F000EEF6F3CEC0BF07EEC09F00050C2
:0C217E00011003E15DEC07F0F8D7FFD77B
:10225A0010EE15F0CF0E006E010E016E8A0EF66EAC
:0E226A00210EF76E000EF86E95EC0AF01200D1
:05218A0020313B2000A4
:02218F0030001E
:0221910031001B
:0521930020303B20009C
:02219800300015
:02219A00300013
:02219C00310010
:02219E0030000F
:0221A00031000C
:0221A20030000B
:0221A400310008
:0C21A6005374617274696E672E2E2E0057
:1021B2002020456E64206F66204C6576656C203267
:1021C2002E204C6576656C203320537461727469DD
:0521D2006E67202000F3
:0D21D7006D6F766520666F7277617264002F
:1021E400436F6E6E656374696F6E204573746162CC
:0821F4006C6973686564210049
:1021FC002020456E64206F66204C6576656C20311E
:10220C002E204C6576656C20322053746172746993
:05221C006E67202000A8
:102221005374617274696E6720426C6F636B202016
:0122310000AC
:102232004C6576656C2031205374617274696E67E7
:0322420020200059
:02224500310066
:02224700300065
:02224900310062
:02224B00300061
:02224D0031005E
:02224F0030005D
:0222510031005A
:02225300620027
:02225500300057
:02225700310054
:020000040030CA
:0D000100220F0EFF0181FF0FC00FE00F4026
:00000001FF
