:10000000BCEF01F00000000000EF00F00000000075
:0A0010000000000000000000F3D71C
:10001C000B6A0A6A096A00500402F4CF09F0F3CFA4
:10002C0008F001500502F4CF0BF0F3CF0AF00050AA
:10003C000502F3500926F4500A22E86A0B220150FB
:10004C000402F3500926F4500A22E86A0B2208C075
:10005C0000F009C001F00AC002F00BC003F012005E
:10006C00CB50010F006E016A000E012257C004F044
:10007C00000E056ECDDF060E026E00C004F001C04E
:10008C0005F0025005E005320432059EFF0FFAD749
:10009C00040E016E04C000F0015004E00036009024
:1000AC00FF0FFBD7300E0014036E04C000F005C028
:1000BC0001F001320032019E01320032019E00C07B
:0C00CC00BEFF0F0EBD160350BD12120047
:0C00D8008380839255C057F0C5DF1200F2
:0C00E4008280829455C057F0BFDF1200EC
:0C00F0008390838255C057F0B9DF1200E6
:0C00FC008290828455C057F0B3DF1200E0
:08010800BB6ABA98BA9A120012
:10011000CB50010F006E016A000E012251C004F0A5
:10012000000E056E7BDF060E026E00C004F001C0FB
:1001300005F0025005E005320432059EFF0FFAD7A4
:10014000040E016E04C000F0015004E0003600907F
:10015000FF0FFBD7300E0014036E04C000F005C083
:1001600001F001320032019E01320032019E00C0D6
:0C017000BBFF0F0EBA160350BA121200AB
:10017C0051C055F052C056F0AFDF51C055F052C0CF
:06018C0056F0B0DF120086
:1001920051C055F052C056F0A4DF53C055F054C0C0
:0601A20056F099DF120087
:1001A80051C055F052C056F0A5DF51C055F052C0AD
:0601B80056F08EDF12007C
:1001BE00300E3D6E020E3E6E510E3F6E000E406EC4
:1001CE00FF0E376EFF0E386E000E396E000E3A6E51
:1001DE00FF0E336EFF0E346E000E356E000E366E51
:1001EE00FF0E496EFF0E4A6E000E4B6E000E4C6EE9
:1001FE00AC8A900EAB6E948E949C9EAA03D0AECF1A
:06020E0000F0FBD7120016
:0A0214009492CA840C0EBA12120074
:08021E00BE6ABD98BD9A1200F2
:0A0226009494CA840C0EBD1212005D
:0E023000ACB202D00000FCD751C0ADFF1200EE
:10023E000900F5CFE6FF0006FBE10106F9E1120029
:10024E00CA80CA92F90ECB6EE3DFCA80CA92F90E4B
:10025E00CB6E53DFE1DFD7DF810EAF6EAC84A8DF4C
:10026E00956A946A936AFF0E926EC10EC26EC16A4F
:10027E00FF0E926E946A956A806A826A836AF29C15
:06028E00F28CF28E12005A
:100294004DC051F04EC052F06FDF1A0E0B6E5E0E61
:1002A4000C6E6E0E0D6E0D2EFED70C2EFCD70B2E83
:1002B400FAD700004DC051F04EC052F073DF1A0E51
:1002C4000B6E5E0E0C6E6E0E0D6E0D2EFED70C2E8A
:1002D400FCD70B2EFAD700004DC051F04EC052F09F
:1002E4004DC053F04EC054F052DF1A0E0B6E5E0E2A
:1002F4000C6E6E0E0D6E0D2EFED70C2EFCD70B2E33
:06030400FAD70000120010
:10030A00A50E2F6E000E306ED20E316E000E326EBA
:10031A00FF0E3B6E000E3C6E000E416E000E426EEA
:10032A00200E436E820E446E456A466A476A486AE0
:0E033A00D20E576E96DE31C051F0E5DE120095
:10034800506A4DC0E9FF4EC0EAFFEECF4FF04F5064
:10035800000A0DE04FC051F067DF502A50504D247D
:10036800E96E000E4E20EA6EEECF4FF0F0D7120085
:10037800D8EC01F068DF15C04DF016C04EF0E0DF94
:0E038800C0DFC80E4D6E000E4E6E80DFFFD738
:1003B00010EE15F01A0E006E010E016E960EF66E1E
:0E03C000030EF76E000EF86E1FEC01F0120037
:0203960017004E
:10039800436F6E6E656374696F6E20457374616236
:0803A8006C69736865642100B3
:020000040030CA
:0D000100220F0EFF0181FF0FC00FE00F4026
:00000001FF
