:1000000026EF15F00000000000EF00F000000000F7
:0A0010000000000000000000F3D71C
:10001C000B840BAE19EF00F0010E036E026A016A3D
:0A002C00006A0A360232FF0E1200CD
:0E003600026A016A006A086A036A000E12007C
:100044000B6A0A6A096A00500402F4CF09F0F3CF7C
:1000540008F001500502F4CF0BF0F3CF0AF0005082
:100064000502F3500926F4500A22E86A0B220150D3
:100074000402F3500926F4500A22E86A0B2208C04D
:1000840000F009C001F00AC002F00BC003F0120036
:080094000AAE029E000E1200EC
:08009C000B6A0B86FF0E120037
:1000A400CB50010F006E016A000E0122A3C104F0BF
:1000B400000E056EC5DF060E026E00C004F001C01E
:1000C40005F0025005E005320432059EFF0FFAD711
:1000D400040E016E04C000F0015004E000360090EC
:1000E400FF0FFBD7300E0014036E04C000F005C0F0
:1000F40001F001320032019E01320032019E00C043
:0C010400BBFF0F0EBA160350BA12120017
:100110000B820BAE92EF00F0036802680168006882
:080120000A360232FF0E120044
:100128000C6A0E6A0250D8A4ADEF00F001C002F0CC
:1001380000C001F0006A0E860250D8A4ADEF00F0AE
:1001480001C002F0016A0E960E880250D8B4BFEFC3
:1001580000F00E50035ED8A4D8A0C4EF00F0D890E9
:1001680002BEC9EF00F0003601360236032EB4EFA6
:1001780000F0C4EF00F0010E0C6E59DFCCEF00F078
:10018800020E0C6E47DFCCEF00F0040E0C6E7EDF23
:02019800120053
:10019A00CB50010F006E016A000E0122A3C104F0C8
:1001AA00000E056E4ADF060E026E00C004F001C0A2
:1001BA0005F0025005E005320432059EFF0FFAD71A
:1001CA00040E016E04C000F0015004E000360090F5
:1001DA00FF0FFBD7300E0014036E04C000F005C0F9
:1001EA0001F001320032019E01320032019E00C04C
:0C01FA00BEFF0F0EBD160350BD12120018
:100206000B800BAE0FEF01F0026A0AAEFF0E026E14
:0C021600016E006E0A360232FF0E12006C
:0E022200ACB202D00000FCD7A3C1ADFF1200A9
:100230000101A26B9FC1E9FFA0C1EAFFEECFA1F1CE
:10024000A151000A0EE0A1C1A3F1EBDF0101A22B35
:10025000A2519F25E96E000EA021EA6EEECFA1F11A
:04026000EFD71200C2
:0C0264008288829A9FC1A3F196DF1200ED
:100270000050086E0150006E016A026A036A0B6A40
:100280000C6A960E036E0A6A00C001F008C000F006
:08029000086A026A49DF12004E
:0C029800838483969FC1A3F101DF120054
:0602A4008288828A12002C
:0602AA008384838612002C
:0C02B0008298828A9FC1A3F170DF1200C7
:1002BC00086A096A000E07620364E3EF01F002505A
:1002CC0006180A6E075003267E0ED8A074EF01F0B4
:1002DC00035ED8B0E7EF01F078EF01F0035ED8A031
:1002EC00EBEF01F0028E068E02C00EF001C00BF097
:1002FC0000C00DF000500402F4CF0CF001500502C8
:10030C00F4CF00F0F3CF08F00402F3500C26F450B5
:10031C000822000E00220D500502F3500C26F4505A
:10032C000822000E002202500402F3500826F4505A
:10033C00002202500502016A000E0122F350002631
:10034C00F45001220D500602F3500826F4500022FE
:10035C00026A000E012202220B500602F350002604
:10036C00F4500122000E02220E500602F350012618
:10037C00F450022202BECBEF01F0083600360136F3
:10038C0002360306D8B4EBEF01F0DEEF01F0D880B3
:10039C00800E08640030000E002201220222D8A038
:1003AC00DEEF01F0023201320032034AE7EF01F0D6
:1003BC000AAE029E000EEDEF01F0010E36DEEDEFFF
:1003CC0001F0020E9FDEEDEF01F0040E21DE1200B3
:1003DC000450000A12E10550000A0FE10650000A11
:1003EC000CE10750000A09E1FF0E006EFF0E016ED2
:1003FC007F0E026EFF0E036E1200086A096A075028
:10040C00D8B499EF02F00350D8B49DEF02F002502B
:10041C0006180A6E028E068E0E6A02C008F001C023
:10042C000CF000C00DF004500D5E0550D8A0053C3A
:10043C000C5E0650D8A0063C085E086A0C6A0D6A71
:10044C00D8A030EF02F0D8900232013200320832DC
:10045C00010E0E6E0750035ED8A03DEF02F07E0E2B
:10046C000E240326D8B0A1EF02F043EF02F07E0E6B
:10047C000E240326D8A0A5EF02F0180E0B6E0D3635
:10048C000C3608360036013602360E360450005E45
:10049C000550D8A0053C015E0650D8A0063C025E73
:1004AC0006340E120EA05EEF02F00D8069EF02F022
:1004BC00045000260550D8B0053C01260650D8B093
:1004CC00062802260D900B2E45EF02F08FEF02F05E
:1004DC00D8900036013602360E360450005E0550B8
:1004EC00D8A0053C015E0650D8A0063C025E06343E
:1004FC000E10010B0D26D8B00C2AD8B4082AD8A49B
:10050C008FEF02F008320C320D32032AD8B4A1EF6F
:10051C0002F00AAE089E0850026E0C50016E0D508F
:10052C00006EA7EF02F0010EB3DDA7EF02F0020E92
:10053C007CDDA7EF02F0040EE5DDA7EF02F0080E5C
:04054C0067DD120055
:100550000B6A0350D8B4EEEF02F002500A6E028E1E
:100560008E0E035E03AEF2EF02F0036C080E035C26
:10057000D8A0CDEF02F0036E013602C001F0026A8E
:10058000080E035CD8A0CDEF02F0036E0136016ABD
:100590000350D8A4D890D7EF02F00350D8B4D7EFC7
:1005A00002F0D89002320132032ED1EF02F00BBCE0
:1005B00001A0E4EF02F0D8A0E4EF02F0012AD8B4E1
:1005C000022A02BE01EF03F00AAE06EF03F0021E9C
:1005D000011E012AD8B4022A06EF03F0026A016A5A
:1005E00006EF03F00B800BAE0AEF03F0026A0AAECF
:1005F0000AEF03F0FF0E026E016E0A3602320AEFB6
:1006000003F0010E0C6EFFDD0CEF03F0000E0C6E1C
:100610000CEF03F0FF0E0C6E0150006E0250016EE5
:020620001200C6
:100622000CB053EF03F00CA2F9EF03F00E6A000EC8
:1006320002646AEF03F0F00E0214D8A435EF03F05F
:10064200023A01380F0B02260138F00B016E003816
:100652000F0B01260038F00B006E08380F0B002636
:100662000838F00B086E0E84D89002BE4EEF03F0ED
:1006720008360036013602360E2A02BE4EEF03F06D
:1006820008360036013602360E2A02BE4EEF03F05D
:1006920008360036013602360E2A0E500364EFEF9A
:1006A20003F0035E0BBC08AEF4EF03F0D880800EBB
:1006B20008640030000E002201220222D8A0F4EFCA
:1006C20003F0023201320032034AF9EF03F0F4EF91
:1006D20003F001C002F000C001F008C000F0086A97
:1006E200000E0E860264A1EF03F0F00E0214D8A4ED
:1006F20089EF03F0023A01380F0B02260138F00BA2
:10070200016E00380F0B01260038F00B006E0E84CC
:10071200D89002BE4EEF03F00036013602360E2AA2
:1007220002BE4EEF03F00036013602360E2A02BE3A
:100732004EEF03F00036013602360E2A4EEF03F07A
:1007420001C002F000C001F0006A000E0E960E8891
:100752000264CEEF03F0F00E0214D8A4B9EF03F056
:10076200023A01380F0B02260138F00B016E0E849B
:10077200D89002BE4EEF03F0013602360E2A02BEB8
:100782004EEF03F0013602360E2A02BE4EEF03F0A0
:10079200013602360E2A4EEF03F001C002F0016A62
:1007A200000E0E860264FEEF03F0F00E0214D8A4CF
:1007B200DDEF03F0023A0E84D89002BE4EEF03F052
:1007C20002360E2A02BE4EEF03F002360E2A02BE97
:1007D2004EEF03F002360E2A4EEF03F0010E0C6EBE
:1007E2001CDC01EF04F0020E0C6E53DC01EF04F08E
:1007F200040E0C6E8CDC01EF04F0080E0C6E1ADC99
:020802001200E2
:0C080400839483869FC1A3F14BDC12009B
:10081000CF6ACE6A01019A514D0A65E1809A030EB2
:100820000D6E0D2EFED7808A080E0D6E0D2EFED792
:10083000809A84B012D0CECF9BF1000E9C6FCFCFA8
:100840009DF1000E9E6F000E006E9E51005C02E155
:100850009D51F00801E201D0ECD7CF6ACE6ACD807D
:1008600084A013D00101CECF9BF1000E9C6FCFCF9F
:100870009DF1000E9E6F000E006E9E51005C02E125
:100880009D51F00801E201D0EBD70101CECF9BF1E1
:10089000000E9C6FCFCF9DF1000E9E6F9DC101F0A9
:1008A000006A9B5100269C510122E2DCCD0E046EB1
:1008B000CC0E056E4C0E066E7C0E076EFFDC000E35
:1008C000046E000E056E000E066E800E076E86DD4D
:1008D000CD0E046ECC0E056E680E066E830E076E8E
:1008E0007DDD36DE12009A51520A64E18090030EDB
:1008F0000D6E0D2EFED78080080E0D6E0D2EFED7CC
:10090000809080B212D0CECF9BF1000E9C6FCFCFE3
:100910009DF1000E9E6F000E006E9E51005C02E184
:100920009D51F00801E201D0ECD7CF6ACE6ACD80AC
:1009300080A212D0CECF9BF1000E9C6FCFCF9DF145
:10094000000E9E6F000E006E9E51005C02E19D51F4
:10095000F00801E201D0ECD70101CECF9BF1000EEF
:100960009C6FCFCF9DF1000E9E6F9DC101F0006A7C
:100970009B5100269C5101227BDCCD0E046ECC0ED7
:10098000056E4C0E066E7C0E076E98DC000E046E33
:10099000000E056E000E066E800E076E1FDDCD0E7A
:1009A000046ECC0E056E680E066E830E076E16DDA5
:1009B000CFDD12009A514C0A64E18094030E0D6E53
:1009C0000D2EFED78084080E0D6E0D2EFED780945E
:1009D00080B612D0CECF9BF1000E9C6FCFCF9DF191
:1009E000000E9E6F000E006E9E51005C02E19D5154
:1009F000F00801E201D0ECD7CF6ACE6ACD8080A6A4
:100A000012D0CECF9BF1000E9C6FCFCF9DF1000E88
:100A10009E6F000E006E9E51005C02E19D51F00839
:100A200001E201D0ECD70101CECF9BF1000E9C6F0B
:100A3000CFCF9DF1000E9E6F9DC101F0006A9B51CA
:100A400000269C51012214DCCD0E046ECC0E056EE6
:100A50004C0E066E7C0E076E31DC000E046E000E2E
:100A6000056E000E066E800E076EB8DCCD0E046EAD
:100A7000CC0E056E680E066E830E076EAFDC68DD69
:040A8000120012004E
:100A8400025006180E6E086A096A0B6A035007645E
:100A940035EF06F006500A6E068E028E03500B6E7A
:100AA4000750036E000E0B6485EF05F00B50075ED4
:100AB400D8B426EF06F0070E0764F4EF05F0075EDE
:100AC40000C008F001C000F002C001F0026A074E45
:100AD40026EF06F00764C9EF05F0075E00C008F0D2
:100AE40001C000F0016A074E26EF06F00764A7EF85
:100AF40005F0075E00C008F0006A074E26EF06F016
:100B040007648EEF05F00AC002F005C001F004C0CE
:100B140000F0086A52EF07F0030E076499EF05F03E
:100B2400075E08380F0B086E074E26EF06F0D890C4
:100B34000832074E26EF06F0D8900832074E26EF0B
:100B440006F0D890083226EF06F0030E0764B8EFDB
:100B540005F0075E08380F0B086E0038F00B082606
:100B640000380F0B006E074E26EF06F0D8900032C7
:100B74000832074E26EF06F0D89000320832074EAE
:100B840026EF06F0D8900032083226EF06F0030E66
:100B94000764E0EF05F0075E08380F0B086E0038B5
:100BA400F00B082600380F0B006E0138F00B0026FE
:100BB40001380F0B016E074E26EF06F0D890013274
:100BC40000320832074E26EF06F0D8900132003288
:100BD4000832074E26EF06F0D89001320032083270
:100BE40026EF06F0030E076411EF06F0075E0838DF
:100BF4000F0B086E0038F00B082600380F0B006E40
:100C04000138F00B002601380F0B016E0238F00B8F
:100C1400012602380F0B026E074E26EF06F0D8901D
:100C24000232013200320832074E26EF06F0D89025
:100C34000232013200320832074E26EF06F0D89015
:100C44000232013200320832096A000E0EAE1AEF87
:100C540007F0081E001E011E021E082A002201229F
:100C640002221AEF07F00750D8A43BEF06F052EF28
:100C740007F0096A02C00AF0028E068E0750035C70
:100C8400076ED8B40DEF07F0070E0764DBEF06F02C
:100C9400075E0450096E0550046E0650056E066A20
:100CA400074E0DEF07F0070E0764B0EF06F0075E7E
:100CB4000450096E0550046E056A074E0DEF07F0E7
:100CC400070E07648EEF06F0075E0450096E046A8F
:100CD400074E0DEF07F0070E076475EF06F00AC024
:100CE40002F052EF07F0030E076480EF06F0075E90
:100CF40009380F0B096E074E0DEF07F0D890093233
:100D0400074E0DEF07F0D8900932074E0DEF07F0AC
:100D1400D89009320DEF07F0030E07649FEF06F039
:100D2400075E09380F0B096E0438F00B09260438E6
:100D34000F0B046E074E0DEF07F0D8900432093202
:100D4400074E0DEF07F0D89004320932074E0DEF2D
:100D540007F0D890043209320DEF07F0030E076450
:100D6400C7EF06F0075E09380F0B096E0438F00B65
:100D7400092604380F0B046E0538F00B04260538D9
:100D84000F0B056E074E0DEF07F0D89005320432B5
:100D94000932074E0DEF07F0D890053204320932BC
:100DA400074E0DEF07F0D8900532043209320DEFEB
:100DB40007F0030E0764F8EF06F0075E09380F0B1F
:100DC400096E0438F00B092604380F0B046E05383D
:100DD400F00B042605380F0B056E0638F00B0526BC
:100DE40006380F0B066E074E0DEF07F0D89006324B
:100DF400053204320932074E0DEF07F0D89006325F
:100E0400053204320932074E0DEF07F0D89006324E
:100E1400053204320932086A000E0EAE1AEF07F0EA
:100E2400091E041E051E061E092A04220522062286
:100E340009500826045000220550012206500222BF
:100E44000EBE31EF07F0D8A040EF07F002320132B6
:100E540000320832033E40EF07F04CEF07F0D8B001
:100E640046EF07F0000E081E001E011E021E082A8F
:100E74000022012202220A7E46EF07F0010E0C6EC8
:100E840011EC03F054EF07F0020E0C6E11EC03F0BA
:100E940054EF07F0040E0C6E88EC00F054EF07F0EA
:060EA400000E0C6E1200AE
:0A0EAA0055EC01F052EC01F01200CB
:0E0EB4009AC19FF19BC1A0F118EC01F0120051
:100EC2009AC19FF19BC1A0F14CEC01F09CC19FF132
:0A0ED2009DC1A0F132EC01F0120006
:100EDC009AC19FF19BC1A0F14CEC01F09AC19FF11A
:0A0EEC009BC1A0F158EC01F01200C8
:100EF6009AC19FF19BC1A0F182DC9AC19FF19BC16F
:080F0600A0F132EC01F0120031
:100F0E00FF0E01019A6F000E9B6FFA0E9C6F000E82
:060F1E009D6FD0DF120000
:100F240096C19FF197C1A0F132EC01F055EC01F0AC
:020F34001200A9
:080F3600BB6ABA98BA9A1200D6
:080F3E00BE6ABD98BD9A1200C5
:0A0F46009492CA840C0EBA12120035
:100F5000220E01017A6F020E7B6FA30E7C6F010ED1
:100F60007D6FFF0E7E6FFF0E7F6F000E806F000E95
:100F7000816FFF0E726FFF0E736F000E746F000EA5
:100F8000756FFF0E766FFF0E776F000E786F000E95
:100F9000796FAC8A900EAB6E948E949C9EAA03D00F
:080FA000AECF00F0FBD71200F8
:0A0FA8009494CA840C0EBD121200CE
:060FB200067E67DD12005F
:100FB80000C008F00150006E016A026A036A0B6AF9
:100FC8000C6A016A026A036A960E036E0A6A00AE28
:100FD800F4EF07F0081E001E082AD8B4002A0A8E6B
:100FE80000C001F008C000F0086A026A94EC00F042
:020FF8001200E5
:100FFA0096C19FF197C1A0F14CEC01F052EC01F0BF
:02100A001200D2
:10100C0081A80BD081A609D083A807D083AA05D0CC
:10101C0083AC03D083AE01D018D083AA0BD083ACA1
:10102C0009D083AE07D081A405D081AC03D081AEAA
:10103C0001D00BD0DC0E01019A6F000E9B6FDC0E01
:10104C009C6F000E9D6F37DFDBD7070E0C6E7D0E8D
:10105C000D6E0D2EFED70C2EFCD721DF460E010196
:10106C009A6F000E9B6F20DF0D0E0B6EAF0E0C6E89
:10107C00B60E0D6E0D2EFED70C2EFCD70B2EFAD7FE
:10108C00000081A811D081A60FD083A80DD083AA0F
:10109C000BD083AC09D083AE07D081A405D081AC32
:1010AC0003D081AE01D012D081AE07D00101DC0E8D
:1010BC009A6F000E9B6F0CDF08D081A806D0DC0E57
:1010CC0001019A6F000E9B6F10DFDBD7E8DE120078
:1010DC00800E01019719006E800E005C02E1000E7B
:1010EC00965D08E296510008006E97C101F0000E63
:0E10FC000156120096C100F097C101F01200DB
:10110A0081BA17D081B815D081B613D083B811D05F
:10111A0083BA0FD083BC0DD083BE0BD081B409D063
:10112A0081BC07D081BE05D0010E006E000E016E93
:08113A001200006A016A1200B4
:101142004C0E01019A6F08EC04F0070E005C11E3EB
:101152004D0E01019A6F08EC04F0070E005C09E3E2
:10116200520E01019A6F08EC04F0070E005C01E3D5
:1011720003D0006A016A1200010E006E000E016EB9
:02118200120059
:1011840081A80CD0310E0101066F010E076F06C154
:101194009FF107C1A0F118EC01F00DD081B80BD07C
:1011A40001012F0E066F010E076F06C19FF107C1E3
:1011B400A0F118EC01F081A60BD02D0E066F010EE4
:1011C400076F06C19FF107C1A0F118EC01F00CD024
:1011D40081B60AD0040E066F010E076F06C19FF197
:1011E40007C1A0F118EC01F083A80BD0FC0E066F28
:1011F400000E076F06C19FF107C1A0F118EC01F0C2
:101204000CD083B80AD0FA0E066F000E076F06C121
:101214009FF107C1A0F118EC01F083AA0BD0F80EDE
:10122400066F000E076F06C19FF107C1A0F118EC0D
:1012340001F00CD083BA0AD0020E066F010E076FBC
:1012440006C19FF107C1A0F118EC01F083AC0BD0EB
:10125400000E066F010E076F06C19FF107C1A0F1D2
:1012640018EC01F00CD083BC0AD0FE0E066F000E01
:10127400076F06C19FF107C1A0F118EC01F083AE1E
:101284000BD0330E066F010E076F06C19FF107C125
:10129400A0F118EC01F00CD083BE0AD0420E066F08
:1012A400010E076F06C19FF107C1A0F118EC01F010
:1012B40081A40BD0440E066F010E076F06C19FF187
:1012C40007C1A0F118EC01F00CD081B40AD0460E8D
:1012D400066F010E076F06C19FF107C1A0F118EC5C
:1012E40001F081AC0BD0370E066F010E076F06C1FB
:1012F4009FF107C1A0F118EC01F00CD081BC0AD019
:10130400350E066F010E076F06C19FF107C1A0F1EC
:1013140018EC01F081AE0BD0390E066F010E076F89
:1013240006C19FF107C1A0F118EC01F00CD081BEF9
:101334000AD0400E066F010E076F06C19FF107C168
:10134400A0F118EC01F081AA0BD03B0E066F010E40
:10135400076F06C19FF107C1A0F118EC01F00CD092
:1013640081BA0AD03F0E066F000E076F06C19FF1C7
:0A13740007C1A0F118EC01F012000F
:10137E0081AA17D081A815D081A613D083A811D029
:10138E0083AA0FD083AC0DD083AE0BD081A409D02D
:10139E0081AC07D081AE05D0010E006E000E016E3D
:0813AE001200006A016A12003E
:1013B60096C19FF197C1A0F102EC04F098C19FF18C
:0A13C60099C1A0F158EC01F01200EB
:1013D000FF0E0101971902E1A60E961914E1FF0E06
:1013E0009A6F000E9B6F87DD080E0B6E5C0E0C6E05
:1013F000160E0D6E0D2EFED70C2EFCD70B2EFAD727
:10140000000053DD5ED1000E0101971902E15A0E72
:10141000961914E1FF0E9A6F000E9B6F5FDD080EA8
:101420000B6E5C0E0C6E160E0D6E0D2EFED70C2E76
:10143000FCD70B2EFAD7000038DD43D1FF0E010197
:10144000971902E1E20E961923E1FF0E9A6F000E42
:101450009B6F51DD040E0B6E0C0E0C6E330E0D6E79
:101460000D2EFED70C2EFCD70B2EFAD70000000055
:101470001CDD060E0B6E130E0C6EAD0E0D6E0D2EDA
:10148000FED70C2EFCD70B2EFAD70000000019D186
:10149000000E0101971902E11E0E961923E1FF0EBD
:1014A0009A6F000E9B6F1ADD040E0B6E0C0E0C6E05
:1014B000330E0D6E0D2EFED70C2EFCD70B2EFAD749
:1014C00000000000F2DC060E0B6E130E0C6EAD0E6B
:1014D0000D6E0D2EFED70C2EFCD70B2EFAD700006A
:1014E0000000EFD0FF0E0101971902E1C40E96191A
:1014F00023E1FF0E9A6F000E9B6FFDDC060E0B6E54
:10150000D60E0C6E7B0E0D6E0D2EFED70C2EFCD75C
:101510000B2EFAD700000000C8DC060E0B6E130E6F
:101520000C6EAD0E0D6E0D2EFED70C2EFCD70B2EB5
:10153000FAD700000000C5D0000E0101971902E1A2
:101540003C0E961923E1FF0E9A6F000E9B6FC6DCCE
:10155000060E0B6ED60E0C6E7B0E0D6E0D2EFED78C
:101560000C2EFCD70B2EFAD7000000009EDC060ED6
:101570000B6E130E0C6EAD0E0D6E0D2EFED70C2ED7
:10158000FCD70B2EFAD7000000009BD0FF0E010104
:10159000971902E1D30E961923E1FF0E9A6F000E00
:1015A0009B6FA9DC050E0B6E910E0C6ECF0E0D6EAF
:1015B0000D2EFED70C2EFCD70B2EFAD70000000004
:1015C00074DC060E0B6E130E0C6EAD0E0D6E0D2E32
:1015D000FED70C2EFCD70B2EFAD70000000071D0DE
:1015E000000E0101971902E12D0E961923E1FF0E5D
:1015F0009A6F000E9B6F72DC050E0B6E910E0C6ED7
:10160000CF0E0D6E0D2EFED70C2EFCD70B2EFAD75B
:10161000000000004ADC060E0B6E130E0C6EAD0EC1
:101620000D6E0D2EFED70C2EFCD70B2EFAD7000018
:10163000000047D0FF0E0101971902E1FE0E961936
:101640001DE1FF0E9A6F000E9B6F55DC270E0C6E8E
:10165000F50E0D6E0D2EFED70C2EFCD726DC020EDD
:101660000B6E450E0C6EA90E0D6E0D2EFED70C2EB8
:10167000FCD70B2EFAD70000000023D0000E01018A
:10168000971902E1020E96191CE1FF0E9A6F000EE7
:101690009B6F24DC270E0C6EF50E0D6E0D2EFED703
:1016A0000C2EFCD702DC020E0B6E450E0C6EA90E42
:1016B0000D6E0D2EFED70C2EFCD70B2EFAD7000088
:0416C0000000120014
:1016C4000900F5CFE6FF0006FBE10106F9E112008F
:1016D400CA0E926EFF0E936E880E946EF30E956E84
:1016E400050E966E806A816A826A836A846ACA80F9
:1016F400CA92F90ECB6E21DCCA80CA92F90ECB6E67
:1017040018DC50DC1EDC810EAF6EAC841FDCC10E15
:10171400C26E060EC16E0101886B896B826B836B8E
:10172400626B636B6C6B6D6BC30ED56ED66AF28A9B
:0A173400800ECD6ECF6ACE6A12005F
:10173E0081AA38D183B813D083AA11D083AC0FD02D
:10174E0083BE0DD081B40BD04EC19AF14FC19BF127
:10175E004AC19CF14BC19DF161EC07F022D183B8D7
:10176E0013D083AA11D083AC0FD083AE0DD081B429
:10177E000BD04AC19AF14BC19BF14AC19CF14BC1AE
:10178E009DF161EC07F00DD183B813D083BA11D05F
:10179E0083AC0FD083BE0DD081B40BD04AC19AF169
:1017AE004BC19BF14AC19CF14BC19DF161EC07F01D
:1017BE00F8D083B813D083BA11D083AC0FD083AED8
:1017CE000DD081B40BD04AC19AF14BC19BF14EC1E1
:1017DE009CF14FC19DF161EC07F0E3D083A80FD0CF
:1017EE0083BA0DD083BC0BD083BE09D081B407D091
:1017FE004AC196F14BC197F192EC07F0D2D083A873
:10180E000FD083AA0DD083BC0BD083BE09D081B478
:10181E0007D04AC196F14BC197F192EC07F0C1D0B7
:10182E0083A80FD083AA0DD083AC0BD083BE09D072
:10183E0081B407D04AC196F14BC197F192EC07F0F3
:10184E00B0D083B80FD083AA0DD083BC0BD083BE8B
:10185E0009D081B407D04AC196F14BC197F192ECF1
:10186E0007F09FD083B80FD083BA0DD083BC0BD0B6
:10187E0083AE09D081B407D04AC196F14BC197F11E
:10188E00FDEC07F08ED083B80FD083BA0DD083ACA9
:10189E000BD083AE09D081A407D04AC196F14BC1BB
:1018AE0097F1FDEC07F07DD083B80FD083BA0DD041
:1018BE0083BC0BD083AE09D081A407D04AC196F168
:1018CE004BC197F1FDEC07F06CD083B80FD083BA03
:1018DE000DD083BC0BD083BE09D081A407D04AC1E2
:1018EE0096F14BC197F1FDEC07F05BD083A813D0B6
:1018FE0083AA11D083AC0FD083AE0DD081B40BD0A0
:10190E004AC19AF14BC19BF14AC19CF14BC19DF169
:10191E0061EC07F046D083B813D083AA11D083AC04
:10192E000FD083AE0DD081A40BD04AC19AF14BC11A
:10193E009BF14AC19CF14BC19DF161EC07F031D096
:10194E0081B81CD081B61AD083B818D083BA16D0FD
:10195E0083BC14D083BE12D081B410D081BC0ED003
:10196E0081BE0CD0FF0E01019A6F000E9B6FFF0E11
:10197E009C6F000E9D6F61EC07F013D0F9DC0050E8
:10198E00011003E0C2EC08F00CD00101DC0E966FE2
:10199E00000E976FDC0E986F000E996F05DDC2EC8E
:1019AE0008F004D281A817D081A615D083A813D031
:1019BE0083AA11D083AC0FD083BE0DD081B40BD0CF
:1019CE0081BC09D081BE07D00101A60E966FFF0E15
:1019DE00976FF7DCEBD181A817D081A615D083A81D
:1019EE0013D083AA11D083AC0FD083AE0DD081B4A7
:1019FE000BD081BC09D081BE07D0A60E0101966F17
:101A0E00FF0E976FDEDCD2D181A817D081A615D03C
:101A1E0083A813D083AA11D083AC0FD083AE0DD080
:101A2E0081A40BD081BC09D081BE07D0A60E0101C6
:101A3E00966FFF0E976FC5DCB9D181B817D081B6FE
:101A4E0015D083A813D083AA11D083AC0FD083AE48
:101A5E000DD081A40BD081AC09D081AE07D05A0E27
:101A6E000101966F000E976FACDCA0D181B817D034
:101A7E0081B615D083B813D083AA11D083AC0FD002
:101A8E0083AE0DD081A40BD081AC09D081AE07D02E
:101A9E005A0E0101966F000E976F93DC87D181B8B5
:101AAE0017D081B615D083B813D083BA11D083ACBA
:101ABE000FD083AE0DD081A40BD081AC09D081AEF6
:101ACE0007D05A0E0101966F000E976F7ADC6ED119
:101ADE0083A80FD083BA0DD083BC0BD083BE09D0A0
:101AEE0081B407D04AC196F14BC197F192EC07F041
:101AFE005DD183A80FD083AA0DD083BC0BD083BE3B
:101B0E0009D081B407D04AC196F14BC197F192EC3E
:101B1E0007F04CD183A80FD083AA0DD083AC0BD085
:101B2E0083BE09D081B407D04AC196F14BC197F15B
:101B3E0092EC07F03BD183B80FD083AA0DD083BCB3
:101B4E000BD083BE09D081B407D04AC196F14BC1E8
:101B5E0097F192EC07F02AD183B80FD083BA0DD04B
:101B6E0083BC0BD083AE09D081B407D04AC196F1A5
:101B7E004BC197F1FDEC07F019D183B80FD083BAA2
:101B8E000DD083AC0BD083AE09D081A407D04AC14F
:101B9E0096F14BC197F1FDEC07F008D183B80FD049
:101BAE0083BA0DD083BC0BD083AE09D081A407D0ED
:101BBE004AC196F14BC197F1FDEC07F0F7D083B80F
:101BCE000FD083BA0DD083BC0BD083BE09D081A4B5
:101BDE0007D04AC196F14BC197F1FDEC07F0E6D064
:101BEE0083A813D083AA11D083AC0FD083AE0DD0AF
:101BFE0081B40BD04EC19AF14FC19BF14AC19CF1F9
:101C0E004BC19DF161EC07F0D1D083B813D083AAFC
:101C1E0011D083AC0FD083AE0DD081A40BD04AC1AE
:101C2E009AF14BC19BF14EC19CF14FC19DF161ECFC
:101C3E0007F0BCD081A617D083A815D083AA13D0E5
:101C4E0083BC11D083AE0FD081A40DD081AC0BD04C
:101C5E0081BA08D0FF0E01019A6F000E9B6F7BECCC
:101C6E0007F0F6D7A3D081B81BD081B619D083B8B0
:101C7E0017D083BA15D083BC13D083BE11D081B4D4
:101C8E000FD081AC0DD081AE0BD081BA08D0FF0E33
:101C9E0001019A6F000E9B6F6EEC07F0F6D786D09F
:101CAE0081A81BD081A619D083B817D083BA15D0BE
:101CBE0083BC13D083BE11D081B40FD081BC0DD0A4
:101CCE0081BE0BD081BA08D0FF0E01019A6F000EB3
:101CDE009B6F7BEC07F0F6D769D083B813D083AA3D
:101CEE0011D083AC0FD083BE0DD081B40BD04EC1BA
:101CFE009AF14FC19BF14AC19CF14BC19DF161EC30
:101D0E0007F054D083B813D083AA11D083AC0FD070
:101D1E0083AE0DD081B40BD04AC19AF14BC19BF169
:101D2E004AC19CF14BC19DF161EC07F03FD083B8E5
:101D3E0013D083BA11D083AC0FD083BE0DD081B433
:101D4E000BD04AC19AF14BC19BF14AC19CF14BC1D8
:101D5E009DF161EC07F02AD083B813D083BA11D06D
:101D6E0083AC0FD083AE0DD081B40BD04AC19AF1A3
:101D7E004BC19BF14EC19CF14FC19DF161EC07F03F
:101D8E0015D085EC08F00050011003E0C2EC08F00D
:101D9E000DD00101DC0E966F000E976FDC0E986F62
:0E1DAE00000E996FDBEC09F0C2EC08F0120099
:101DBC0083AA05D083AC03D083AE01D00CD0DC0E4B
:101DCC000101966F000E976FDC0E986F000E996FE5
:101DDC00DBEC09F0EDD7070E0C6E7D0E0D6E0D2EA3
:101DEC00FED70C2EFCD755EC07F05A0E01019A6F5A
:101DFC00000E9B6F5AEC07F00D0E0B6EAF0E0C6EB7
:101E0C00B60E0D6E0D2EFED70C2EFCD70B2EFAD760
:101E1C00000081A811D081A60FD083A80DD083AA71
:101E2C000BD083AC09D083AE07D081A405D081AC94
:101E3C0003D081AE01D014D081AE08D00101DC0EEC
:101E4C009A6F000E9B6F7BEC07F009D081A807D02E
:101E5C00DC0E01019A6F000E9B6F6EEC07F0D9D768
:061E6C0055EC07F0120026
:101E720001018A6B8B6BA1EC08F0000E011802E1E4
:101E8200000E0018D8A486D01E0E0101966F000E17
:101E9200976FE8EC09F01E0E01018A27000E8B23D2
:101EA200A1EC08F0000E011802E1000E0018D8A4FF
:101EB20071D0C40E0101966FFF0E976FE8EC09F026
:101EC200C40E01018A27FF0E8B23A1EC08F0000E3D
:101ED200011802E1000E00185DE15A0E0101966F31
:101EE200000E976FE8EC09F05A0E01018A27000EE6
:101EF2008B23A1EC08F0000E011802E1000E00187D
:101F020049E1A60E0101966FFF0E976FE8EC09F00A
:101F1200E20E0101966FFF0E976FE8EC09F0880E52
:101F220001018A27FF0E8B23A1EC08F0000E011895
:101F320002E1000E00182EE15A0E0101966F000E0A
:101F4200976FE8EC09F03C0E0101966F000E976F57
:101F5200E8EC09F0960E01018A27000E8B23A1EC12
:101F620008F0000E011802E1000E001813E1A60E9F
:101F72000101966FFF0E976FE8EC09F0A60E0101C2
:101F8200966FFF0E976FE8EC09F04C0E01018A275D
:101F9200FF0E8B2301018A5144268B51452287EC87
:101FA20007F0410E0C6EEE0E0D6E0D2EFED70C2EAE
:101FB200FCD7000085EC08F00050011032E044C06C
:101FC20096F145C097F16EEC08F0800E0118026E92
:101FD200800E025C02E15A0E005C18E3150E9A6F45
:101FE200000E9B6F5AEC07F05A0E966F000E976F19
:101FF200E8EC09F05A0E0101966F000E976FE8ECBB
:1020020009F0446A456A06EC08F00BD0290E01017A
:102012009A6F000E9B6F5AEC07F0020E626F000E71
:04202200636F1200D6
:1020260081AA3AD183B813D083AA11D083AC0FD03A
:1020360083BE0DD081B40BD04EC19AF14FC19BF136
:102046004AC19CF14BC19DF161EC07F024D183B8E4
:1020560013D083AA11D083AC0FD083AE0DD081B438
:102066000BD04AC19AF14BC19BF14AC19CF14BC1BD
:102076009DF161EC07F00FD183B813D083BA11D06C
:1020860083AC0FD083BE0DD081B40BD04AC19AF178
:102096004BC19BF14AC19CF14BC19DF161EC07F02C
:1020A600FAD083B813D083BA11D083AC0FD083AEE5
:1020B6000DD081B40BD04AC19AF14BC19BF14EC1F0
:1020C6009CF14FC19DF161EC07F0E5D083A80FD0DC
:1020D60083BA0DD083BC0BD083BE09D081B407D0A0
:1020E6004AC196F14BC197F192EC07F0D4D083A880
:1020F6000FD083AA0DD083BC0BD083BE09D081B488
:1021060007D04AC196F14BC197F192EC07F0C3D0C4
:1021160083A80FD083AA0DD083AC0BD083BE09D081
:1021260081B407D04AC196F14BC197F192EC07F002
:10213600B2D083B80FD083AA0DD083BC0BD083BE98
:1021460009D081B407D04AC196F14BC197F192EC00
:1021560007F0A1D083B80FD083BA0DD083BC0BD0C3
:1021660083AE09D081B407D04AC196F14BC197F12D
:10217600FDEC07F090D083B80FD083BA0DD083ACB6
:102186000BD083AE09D081A407D04AC196F14BC1CA
:1021960097F1FDEC07F07FD083B80FD083BA0DD04E
:1021A60083BC0BD083AE09D081A407D04AC196F177
:1021B6004BC197F1FDEC07F06ED083B80FD083BA10
:1021C6000DD083BC0BD083BE09D081A407D04AC1F1
:1021D60096F14BC197F1FDEC07F05DD083A813D0C3
:1021E60083AA11D083AC0FD083AE0DD081B40BD0AF
:1021F6004AC19AF14BC19BF14AC19CF14BC19DF179
:1022060061EC07F048D083B813D083AA11D083AC11
:102216000FD083AE0DD081A40BD04AC19AF14BC129
:102226009BF14AC19CF14BC19DF161EC07F033D0A3
:1022360081B81CD081B61AD083B818D083BA16D00C
:1022460083BC14D083BE12D081B410D081BC0ED012
:1022560081BE0CD0FF0E01019A6F000E9B6FFF0E20
:102266009C6F000E9D6F61EC07F015D0BFEC09F076
:102276000050011003E0C2EC08F00DD00101CD0EB4
:102286009A6F000E9B6FC80E9C6F000E9D6F61ECDF
:1022960007F0C2EC08F00AD281A818D081A616D0A1
:1022A60083A814D083AA12D083AC10D083BE0ED0DC
:1022B60081B40CD081BC0AD081BE08D00101A60E23
:1022C600966FFF0E976FE8EC09F0F0D181A818D051
:1022D60081A616D083A814D083AA12D083AC10D0BE
:1022E60083AE0ED081B40CD081BC0AD081BE08D09A
:1022F600A60E0101966FFF0E976FE8EC09F0D6D196
:1023060081A818D081A616D083A814D083AA12D08B
:1023160083AC10D083AE0ED081A40CD081BC0AD081
:1023260081BE08D0A60E0101966FFF0E976FE8ECEE
:1023360009F0BCD181B818D081B616D083A814D0C4
:1023460083AA12D083AC10D083AE0ED081A40CD059
:1023560081AC0AD081AE08D05A0E0101966F000EEC
:10236600976FE8EC09F0A2D181B818D081B616D0E3
:1023760083B814D083AA12D083AC10D083AE0ED00B
:1023860081A40CD081AC0AD081AE08D05A0E0101CE
:10239600966F000E976FE8EC09F088D181B818D0D7
:1023A60081B616D083B814D083BA12D083AC10D0BD
:1023B60083AE0ED081A40CD081AC0AD081AE08D0F9
:1023C6005A0E0101966F000E976FE8EC09F06ED178
:1023D60083A80FD083BA0DD083BC0BD083BE09D09F
:1023E60081B407D04AC196F14BC197F192EC07F040
:1023F6005DD183A80FD083AA0DD083BC0BD083BE3A
:1024060009D081B407D04AC196F14BC197F192EC3D
:1024160007F04CD183A80FD083AA0DD083AC0BD084
:1024260083BE09D081B407D04AC196F14BC197F15A
:1024360092EC07F03BD183B80FD083AA0DD083BCB2
:102446000BD083BE09D081B407D04AC196F14BC1E7
:1024560097F192EC07F02AD183B80FD083BA0DD04A
:1024660083BC0BD083AE09D081B407D04AC196F1A4
:102476004BC197F1FDEC07F019D183B80FD083BAA1
:102486000DD083AC0BD083AE09D081A407D04AC14E
:1024960096F14BC197F1FDEC07F008D183B80FD048
:1024A60083BA0DD083BC0BD083AE09D081A407D0EC
:1024B6004AC196F14BC197F1FDEC07F0F7D083B80E
:1024C6000FD083BA0DD083BC0BD083BE09D081A4B4
:1024D60007D04AC196F14BC197F1FDEC07F0E6D063
:1024E60083A813D083AA11D083AC0FD083AE0DD0AE
:1024F60081B40BD04EC19AF14FC19BF14AC19CF1F8
:102506004BC19DF161EC07F0D1D083B813D083AAFB
:1025160011D083AC0FD083AE0DD081A40BD04AC1AD
:102526009AF14BC19BF14EC19CF14FC19DF161ECFB
:1025360007F0BCD081A617D083A815D083AA13D0E4
:1025460083BC11D083AE0FD081A40DD081AC0BD04B
:1025560081BA08D0FF0E01019A6F000E9B6F7BECCB
:1025660007F0F6D7A3D081B81BD081B619D083B8AF
:1025760017D083BA15D083BC13D083BE11D081B4D3
:102586000FD081AC0DD081AE0BD081BA08D0FF0E32
:1025960001019A6F000E9B6F6EEC07F0F6D786D09E
:1025A60081A81BD081A619D083B817D083BA15D0BD
:1025B60083BC13D083BE11D081B40FD081BC0DD0A3
:1025C60081BE0BD081BA08D0FF0E01019A6F000EB2
:1025D6009B6F7BEC07F0F6D769D083B813D083AA3C
:1025E60011D083AC0FD083BE0DD081B40BD04EC1B9
:1025F6009AF14FC19BF14AC19CF14BC19DF161EC2F
:1026060007F054D083B813D083AA11D083AC0FD06F
:1026160083AE0DD081B40BD04AC19AF14BC19BF168
:102626004AC19CF14BC19DF161EC07F03FD083B8E4
:1026360013D083BA11D083AC0FD083BE0DD081B432
:102646000BD04AC19AF14BC19BF14AC19CF14BC1D7
:102656009DF161EC07F02AD083B813D083BA11D06C
:1026660083AC0FD083AE0DD081B40BD04AC19AF1A2
:102676004BC19BF14EC19CF14FC19DF161EC07F03E
:1026860015D085EC08F00050011003E0C2EC08F00C
:102696000DD00101CD0E9A6F000E9B6FC80E9C6F78
:0E26A600000E9D6F61EC07F0C2EC08F0120010
:1026B400D70E0101686F000E696FEB0E646F000E98
:1026C400656FFF0E666F000E676FC80E4C6F000ECD
:1026D4004D6FFF0E4E6F000E4F6FC80E486F000E09
:1026E400496FFF0E4A6F000E4B6F000E506F000EC5
:1026F400516F000E526F800E536F5A6B5B6B5C6BA5
:102704005D6B5E6B5F6B606B616B546B556B566B93
:10271400576B586B596B846B856B866B876BEB0EB1
:10272400A36FCDEC00F064C1A3F152EC00F01200F1
:10273400CD0E01019A6F000E9B6FC80E9C6F000EA8
:082744009D6F61EC07F012002B
:10274C0083A80DD083BA0BD083BC09D083BE07D02D
:10275C0081B405D00F0E01016A6F000E6B6F83A858
:10276C000DD083AA0BD083BC09D083BE07D081B413
:10277C0005D001010A0E6A6F000E6B6F83A80DD095
:10278C0083AA0BD083AC09D083BE07D081B405D00B
:10279C000101040E6A6F000E6B6F83B80DD083AA13
:1027AC000BD083BC09D083BE07D081B405D0010106
:1027BC00010E6A6F000E6B6F83B80BD083AA09D021
:1027CC0083AC07D083BE05D081B403D001016A6B02
:1027DC006B6B83B80BD083AA09D083AC07D083AEC4
:1027EC0005D081B403D001016A6B6B6B83B80BD03D
:1027FC0083BA09D083AC07D083BE05D081B403D093
:10280C0001016A6B6B6B83B80BD083BA09D083ACB4
:10281C0007D083AE05D081B403D001016A6B6B6B1A
:10282C0083B80DD083BA0BD083BC09D083AE07D04C
:10283C0081B405D00101FF0E6A6FFF0E6B6F83B878
:10284C000DD083BA0BD083AC09D083AE07D081A452
:10285C0005D00101FC0E6A6FFF0E6B6F83B80DD0B3
:10286C0083BA0BD083BC09D083AE07D081A405D02A
:10287C000101F60E6A6FFF0E6B6F83B80DD083BA31
:10288C000BD083BC09D083BE07D081A405D0010135
:10289C00F10E6A6FFF0E6B6F01016AC100F06BC124
:1028AC0001F0DCEC07F050C104F051C105F052C14D
:1028BC0006F053C107F05EEC01F000C08AF101C0D4
:1028CC008BF102C08CF103C08DF15AC100F05BC1D9
:1028DC0001F05CC102F05DC103F054C104F055C1BC
:1028EC0005F056C106F057C107F05EEC01F08AC145
:1028FC0004F08BC105F08CC106F08DC107F042ECE1
:10290C0005F000C08AF101C08BF102C08CF103C04C
:10291C008DF158516A5D006E59516B59016EDCECAA
:10292C0007F05EC104F05FC105F060C106F061C143
:10293C0007F05EEC01F08AC104F08BC105F08CC18C
:10294C0006F08DC107F042EC05F000C092F101C019
:10295C0093F102C094F103C095F192C16EF193C151
:10296C006FF194C170F195C171F154C100F055C172
:10297C0001F056C102F057C103F092C104F093C1AB
:10298C0005F094C106F095C107F042EC05F000C0CB
:10299C0054F101C055F102C056F103C057F16AC1A0
:1029AC0058F16BC159F164C100F065C101F0DCEC68
:1029BC0007F000C08EF101C08FF102C090F103C08E
:1029CC0091F18EC100F08FC101F090C102F091C164
:1029DC0003F092C104F093C105F094C106F095C1C7
:1029EC0007F042EC05F0A8EC02F000C08AF101C03F
:1029FC008BF18AC184F18BC185F192C104F093C132
:102A0C0005F094C106F095C107F08EC100F08FC19E
:102A1C0001F090C102F091C103F0D9EC07F0A8ECE1
:102A2C0002F000C086F101C087F18AC19AF18BC116
:102A3C009BF100C09CF101C09DF161EC07F012000C
:102A4C000CEC17F06AEC0BF02FDE7E0E01019A6F86
:102A5C00000E9B6F5AEC07F0826B836B8A0E9A6F99
:102A6C00000E9B6F5AEC07F0886B896B85EC08F0B5
:102A7C000050011002E058DEF9D7410E0C6EEE0E3C
:102A8C000D6E0D2EFED70C2EFCD70000010E010191
:102A9C00886F000E896FE50E9A6F000E9B6F5AECD3
:102AAC0007F0010E826F000E836F55EC07F0CD0E10
:102ABC009A6F000E9B6FC80E9C6F000E9D6F61ECA1
:102ACC0007F0030E0B6E8A0E0C6E550E0D6E0D2E4E
:102ADC00FED70C2EFCD70B2EFAD700000000BFEC53
:102AEC0009F0005001101AE181AA15D083B809D061
:102AFC0083BA07D083BC05D083BE03D081B401D088
:102B0C000AD081B808D081B606D081BC04D081BE71
:102B1C0002D016DE02D09FEC0BF0E1D755EC07F09B
:102B2C009B0E01019A6F000E9B6F5AEC07F0020E80
:102B3C00826F000E836F010E626F000E636F020EC8
:102B4C00886F000E896F85EC08F0005001100AE1C7
:102B5C00000E0101631902E1020E621903E039EC67
:102B6C000FF0F1D755EC07F0C00E01019A6F000E73
:102B7C009B6F5AEC07F0020E626F000E636F010E32
:102B8C006C6F000E6D6F030E886F000E896FDEEC9C
:102B9C000EF04D0E01019A6F08EC04F000501E0867
:102BAC000BE287EC07F0070E0C6E7D0E0D6E0D2EF2
:102BBC00FED70C2EFCD7EDD7A60E0101966FFF0E9B
:102BCC00976FE8EC09F0030E0B6E8A0E0C6E550E27
:102BDC000D6E0D2EFED70C2EFCD70B2EFAD7000047
:102BEC000000BFEC09F000500110D8A472D085ECA5
:102BFC0008F00050011029E16E0E01019A6F000ED1
:102C0C009B6F5AEC07F013EC10F0C2EC08F081B893
:102C1C001BD081B619D083B817D083BA15D083AC2A
:102C2C0013D083BE11D081B40FD081BC0DD081BE26
:102C3C000BD083AC02D078DDFCD785EC08F00050CB
:102C4C00011002E071DDF9D701D06EDD4D0E0101EE
:102C5C009A6F08EC04F0050E005C32E25A0E01018A
:102C6C00966F000E976FE8EC09F0030E0B6E8A0E50
:102C7C000C6E550E0D6E0D2EFED70C2EFCD70B2E9A
:102C8C00FAD7000000005A0E0101966F000E976FE4
:102C9C00E8EC09F0030E0B6E8A0E0C6E550E0D6EE1
:102CAC000D2EFED70C2EFCD70B2EFAD700000000F1
:102CBC00070E0C6E7D0E0D6E0D2EFED70C2EFCD756
:102CCC00070E0C6E7D0E0D6E0D2EFED70C2EFCD746
:082CDC0088D755EC07F0FFD783
:102E180010EE15F0330E006E020E016EE40EF66E23
:0E2E28002C0EF76E000EF86E62EC0BF012002E
:102CE40057726F6E6720446972656374696F6E20F2
:042CF4002121210079
:102CF800436F7272656E7420446972656374696F9C
:062D08006E2021212100D4
:052D0E0020303B200015
:022D13000000BE
:102D150053656E736F7235206174204C4556454C72
:042D25002032200038
:102D290053656E736F7235206174204C4556454C5E
:042D39002032200024
:102D3D00676F742061206172726F772E2E202000D4
:0C2D4D005374617274696E672E2E2E00A4
:102D59005374617274696E6720426C6F636B2020D3
:012D69000069
:102D6A002020456E64206F66204C6576656C2031A4
:102D7A002E204C6576656C2032205374617274691A
:052D8A006E672020002F
:102D8F002020456E64206F66204C6576656C20327E
:102D9F002E204C6576656C203320537461727469F4
:052DAF006E672020000A
:102DB4004C6576656C2031205374617274696E675A
:032DC400202000CC
:022DC7003100D9
:022DC9003000D8
:022DCB003100D5
:022DCD003000D4
:022DCF003100D1
:022DD1003000D0
:022DD3003000CE
:022DD5002001DB
:102DD700436F6E6E656374696F6E204573746162CD
:082DE7006C697368656421004A
:0D2DEF006D6F766520666F7277617264000B
:022DFC003100A4
:022DFE003000A3
:022E000031009F
:022E020031009D
:022E040030009C
:022E0600310099
:022E0800310097
:052E0A0020313B200017
:022E0F00300091
:022E110030008F
:022E130031008C
:022E150030008B
:020000040030CA
:0D000100220F0EFF0181FF0FC00FE00F4026
:00000001FF
