:100000002DEF0EF00000000000EF00F000000000F7
:0A0010000000000000000000F3D71C
:10001C000B820BAE18EF00F00368026801680068F1
:08002C000A360232FF0E120039
:080034000AAE029E000E12004C
:10003C000B840BAE29EF00F0010E036E026A016A0D
:0A004C00006A0A360232FF0E1200AD
:0E005600026A016A006A086A036A000E12005C
:100064000B6A0A6A096A00500402F4CF09F0F3CF5C
:1000740008F001500502F4CF0BF0F3CF0AF0005062
:100084000502F3500926F4500A22E86A0B220150B3
:100094000402F3500926F4500A22E86A0B2208C02D
:1000A40000F009C001F00AC002F00BC003F0120016
:1000B400CB50010F006E016A000E0122D9C104F079
:1000C400000E056ECDDF060E026E00C004F001C006
:1000D40005F0025005E005320432059EFF0FFAD701
:1000E400040E016E04C000F0015004E000360090DC
:1000F400FF0FFBD7300E0014036E04C000F005C0E0
:1001040001F001320032019E01320032019E00C032
:0C011400BBFF0F0EBA160350BA12120007
:0E012000ACB202D00000FCD7D9C1ADFF120076
:10012E00CB50010F006E016A000E0122D9C104F0FE
:10013E00000E056E90DF060E026E00C004F001C0C8
:10014E0005F0025005E005320432059EFF0FFAD786
:10015E00040E016E04C000F0015004E00036009061
:10016E00FF0FFBD7300E0014036E04C000F005C065
:10017E0001F001320032019E01320032019E00C0B8
:0C018E00BEFF0F0EBD160350BD12120084
:0C019A00240E0D6E0D2EFED7000012008A
:1001A6000CB015EF01F00CA2BBEF01F00E6A000EC9
:1001B60002642CEF01F0F00E0214D8A4F7EF00F061
:1001C600023A01380F0B02260138F00B016E003897
:1001D6000F0B01260038F00B006E08380F0B0026B7
:1001E6000838F00B086E0E84D89002BE10EF01F0AE
:1001F60008360036013602360E2A02BE10EF01F02E
:1002060008360036013602360E2A02BE10EF01F01D
:1002160008360036013602360E2A0E500364B1EF58
:1002260001F0035E0BBC08AEB6EF01F0D880800E7D
:1002360008640030000E002201220222D8A0B6EF88
:1002460001F0023201320032034ABBEF01F0B6EF91
:1002560001F001C002F000C001F008C000F0086A19
:10026600000E0E86026463EF01F0F00E0214D8A4AD
:100276004BEF01F0023A01380F0B02260138F00B62
:10028600016E00380F0B01260038F00B006E0E844D
:10029600D89002BE10EF01F00036013602360E2A63
:1002A60002BE10EF01F00036013602360E2A02BEFB
:1002B60010EF01F00036013602360E2A10EF01F07B
:1002C60001C002F000C001F0006A000E0E960E8812
:1002D600026490EF01F0F00E0214D8A47BEF01F057
:1002E600023A01380F0B02260138F00B016E0E841C
:1002F600D89002BE10EF01F0013602360E2A02BE79
:1003060010EF01F0013602360E2A02BE10EF01F0A0
:10031600013602360E2A10EF01F001C002F0016A22
:10032600000E0E860264C0EF01F0F00E0214D8A48F
:100336009FEF01F0023A0E84D89002BE10EF01F052
:1003460002360E2A02BE10EF01F002360E2A02BE57
:1003560010EF01F002360E2A10EF01F0010E0C6EBE
:100366006ADEC3EF01F0020E0C6E61DEC3EF01F030
:10037600040E0C6E50DEC3EF01F0080E0C6E68DE44
:02038600120063
:0C03880083848396D5C1D9F191DE120068
:0C0394008298828AD5C1D9F1C8DE12001F
:1003A000C26AC00EC212C18CC18ED5C100F0003627
:1003B000009000360090003600900050C212C280BB
:1003C000ECDEC284C2A401D0FDD7C4CF01F0006A24
:0C03D000C3500012000E0112C290120077
:0603DC008288828A1200F3
:0C03E20083948386D5C1D9F164DE12003B
:0C03EE008288829AD5C1D9F19BDE1200F2
:0603FA00838483861200DB
:100400000C6A0E6A0250D8A419EF02F001C002F083
:1004100000C001F0006A0E860250D8A419EF02F065
:1004200001C002F0016A0E960E880250D8B42BEF7C
:1004300002F00E50035ED8A4D8A030EF02F0D8909E
:1004400002BE35EF02F0003601360236032E20EFF1
:1004500002F030EF02F0010E0C6EFDDD38EF02F01D
:10046000020E0C6EEBDD38EF02F0040E0C6EE2DDD6
:02047000120078
:100472000101D86BD5C1E9FFD6C1EAFFEECFD7F1B2
:10048200D751000A0EE0D7C1D9F149DE0101D82BBC
:10049200D851D525E96E000ED621EA6EEECFD7F1FE
:0404A200EFD712007E
:1004A600025006180E6E086A096A0B6A0350076442
:1004B60046EF03F006500A6E068E028E03500B6E50
:1004C6000750036E000E0B6496EF02F00B50075EAA
:1004D600D8B437EF03F0070E076405EF03F0075EA5
:1004E60000C008F001C000F002C001F0026A074E29
:1004F60037EF03F00764DAEF02F0075E00C008F09A
:1005060001C000F0016A074E37EF03F00764B8EF49
:1005160002F0075E00C008F0006A074E37EF03F0EE
:1005260007649FEF02F00AC002F005C001F004C0A4
:1005360000F0086A61EF04F0030E0764AAEF02F008
:10054600075E08380F0B086E074E37EF03F0D8909A
:100556000832074E37EF03F0D8900832074E37EFD0
:1005660003F0D890083237EF03F0030E0764C9EFA3
:1005760002F0075E08380F0B086E0038F00B0826ED
:1005860000380F0B006E074E37EF03F0D89000329D
:100596000832074E37EF03F0D89000320832074E84
:1005A60037EF03F0D8900032083237EF03F0030E2E
:1005B6000764F1EF02F0075E08380F0B086E00388B
:1005C600F00B082600380F0B006E0138F00B0026E2
:1005D60001380F0B016E074E37EF03F0D89001324A
:1005E60000320832074E37EF03F0D890013200325E
:1005F6000832074E37EF03F0D89001320032083246
:1006060037EF03F0030E076422EF03F0075E0838A6
:100616000F0B086E0038F00B082600380F0B006E23
:100626000138F00B002601380F0B016E0238F00B73
:10063600012602380F0B026E074E37EF03F0D890F3
:100646000232013200320832074E37EF03F0D890FB
:100656000232013200320832074E37EF03F0D890EB
:100666000232013200320832096A000E0EAE2BEF5A
:1006760004F0081E001E011E021E082A0022012286
:1006860002222BEF04F00750D8A44CEF03F061EFE1
:1006960004F0096A02C00AF0028E068E0750035C57
:1006A600076ED8B41EEF04F0070E0764ECEF03F0F4
:1006B600075E0450096E0550046E0650056E066A04
:1006C600074E1EEF04F0070E0764C1EF03F0075E46
:1006D6000450096E0550046E056A074E1EEF04F0BD
:1006E600070E07649FEF03F0075E0450096E046A65
:1006F600074E1EEF04F0070E076486EF03F00AC0EC
:1007060002F061EF04F0030E076491EF03F0075E59
:1007160009380F0B096E074E1EEF04F0D890093208
:10072600074E1EEF04F0D8900932074E1EEF04F074
:10073600D89009321EEF04F0030E0764B0EF03F001
:10074600075E09380F0B096E0438F00B09260438CA
:100756000F0B046E074E1EEF04F0D89004320932D8
:10076600074E1EEF04F0D89004320932074E1EEFF2
:1007760004F0D890043209321EEF04F0030E076429
:10078600D8EF03F0075E09380F0B096E0438F00B3B
:10079600092604380F0B046E0538F00B04260538BD
:1007A6000F0B056E074E1EEF04F0D890053204328B
:1007B6000932074E1EEF04F0D89005320432093292
:1007C600074E1EEF04F0D8900532043209321EEFB0
:1007D60004F0030E076409EF04F0075E09380F0BF7
:1007E600096E0438F00B092604380F0B046E053821
:1007F600F00B042605380F0B056E0638F00B0526A0
:1008060006380F0B066E074E1EEF04F0D890063220
:10081600053204320932074E1EEF04F0D890063234
:10082600053204320932074E1EEF04F0D890063224
:10083600053204320932086A000E0EAE2BEF04F0C0
:10084600091E041E051E061E092A0422052206226A
:1008560009500826045000220550012206500222A3
:100866000EBE42EF04F0D8A051EF04F0023201327E
:1008760000320832033E51EF04F05BEF04F0D8B0CB
:1008860056EF04F0000E081E001E011E021E082A66
:100896000022012202220A7E56EF04F0010E0C6E9F
:1008A6007FDC63EF04F0020E0C6E7ADC63EF04F07B
:1008B600040E0C6E0EEC00F063EF04F0000E0C6EEE
:0208C60012001E
:1008C8000B800BAE70EF04F0026A0AAEFF0E026EE8
:0C08D800016E006E0A360232FF0E1200A4
:1008E40000C008F00150006E016A026A036A0B6AD4
:1008F4000C6A016A026A036A960E036E0A6A00AE03
:100904008AEF04F0081E001E082AD8B4002A0A8EB2
:1009140000C001F008C000F0086A026A6FDD12002E
:10092400D1C1D5F1D2C1D6F12DDDD1C1D5F1D2C11C
:06093400D6F12EDD1200D9
:10093A00D1C1D5F1D2C1D6F122DDD3C1D5F1D4C10D
:06094A00D6F150DD1200A1
:10095000086A096A000E076203642DEF05F0025071
:1009600006180A6E075003267E0ED8A0BEEF04F0CC
:10097000035ED8B032EF05F0C2EF04F0035ED8A0FA
:1009800037EF05F0028E068E02C00EF001C00BF0AC
:1009900000C00DF000500402F4CF0CF0015005022D
:1009A000F4CF00F0F3CF08F00402F3500C26F4501B
:1009B0000822000E00220D500502F3500C26F450C0
:1009C0000822000E002202500402F3500826F450C0
:1009D000002202500502016A000E0122F350002697
:1009E000F45001220D500602F3500826F450002264
:1009F000026A000E012202220B500602F35000266A
:100A0000F4500122000E02220E500602F35001267D
:100A1000F450022202BE15EF05F00836003601360A
:100A200002360306D8B437EF05F028EF05F0D8807A
:100A3000800E08640030000E002201220222D8A09D
:100A400028EF05F0023201320032034A32EF05F09E
:100A50000AAE029E000E3AEF05F0010E2BEC00F0FC
:100A60003AEF05F0020E0EEC00F03AEF05F0040E3E
:060A70001EEC00F0120074
:0E0A7600D1C1D5F1D2C1D6F1B7DCBCDC120083
:100A8400D1C1D5F1D2C1D6F1AADCD1C1D5F1D2C13F
:060A9400D6F1ABDC1200FC
:100A9A00000E80B0010E0101D56F7DDC00C0A9F106
:100AAA0001C0AAF1000E015C02E1FA0E005C0AE341
:100ABA00030E0101AA5D02E1200EA95D03E2006AAC
:0E0ACA00016A1200010E006E000E016E120095
:100AD800000E80B2010E0101D56F5EDC00C0A9F1E5
:100AE80001C0AAF1000E015C02E1FA0E005C0AE303
:100AF800030E0101AA5D02E1200EA95D03E2006A6E
:0E0B0800016A1200010E006E000E016E120056
:100B1600000E80B4010E0101D56F3FDC00C0A9F1C3
:100B260001C0AAF1000E015C02E1FA0E005C0AE3C4
:100B3600030E0101AA5D02E1200EA95D03E2006A2F
:0E0B4600016A1200010E006E000E016E120018
:0E0B5400D1C1D5F1D2C1D6F115DC3EDC1200C4
:100B62000B6A0350D8B4F7EF05F002500A6E028EFA
:100B72008E0E035E03AEFBEF05F0036C080E035C02
:100B8200D8A0D6EF05F0036E013602C001F0026A6A
:100B9200080E035CD8A0D6EF05F0036E0136016A99
:100BA2000350D8A4D890E0EF05F00350D8B4E0EF9A
:100BB20005F0D89002320132032EDAEF05F00BBCB9
:100BC20001A0EDEF05F0D8A0EDEF05F0012AD8B4B1
:100BD200022A02BE0AEF06F00AAE0FEF06F0021E6C
:100BE200011E012AD8B4022A0FEF06F0026A016A36
:100BF2000FEF06F00B800BAE13EF06F0026A0AAE9F
:100C020013EF06F0FF0E026E016E0A36023213EF88
:100C120006F0010E0C6E57DE15EF06F0000E0C6E9C
:100C220015EF06F0FF0E0C6E0150006E0250016EC1
:020C32001200AE
:0A0C3400FDEC01F0EEEC01F01200FF
:100C3E0081A80BD03C0E0101566F010E576F56C1A5
:100C4E00D5F157C1D6F10EDC0CD081B80AD0010116
:100C5E003A0E566F010E576F56C1D5F157C1D6F1E8
:100C6E0001DC81A60BD0380E566F010E576F56C1A0
:100C7E00D5F157C1D6F139EC02F00CD081B60AD0BD
:100C8E00750E566F010E576F56C1D5F157C1D6F17D
:100C9E0039EC02F083A80BD0770E566F010E576F0A
:100CAE0056C1D5F157C1D6F139EC02F00CD083B84C
:100CBE000AD0730E566F010E576F56C1D5F157C13C
:100CCE00D6F139EC02F083AA0BD07D0E566F010ED1
:100CDE00576F56C1D5F157C1D6F139EC02F00CD091
:100CEE0083BA0AD07B0E566F010E576F56C1D5F1DF
:100CFE0057C1D6F139EC02F083AC0BD0790E566F9A
:100D0E00010E576F56C1D5F157C1D6F139EC02F02D
:100D1E000CD083BC0AD0710E566F010E576F56C1A0
:100D2E00D5F157C1D6F139EC02F083AE0BD0690E76
:100D3E00566F010E576F56C1D5F157C1D6F139EC2A
:100D4E0002F00CD083BE0AD0670E566F010E576F9D
:100D5E0056C1D5F157C1D6F139EC02F081A40BD0B2
:100D6E00650E566F010E576F56C1D5F157C1D6F1AC
:100D7E0039EC02F00CD081B40AD06F0E566F010E12
:100D8E00576F56C1D5F157C1D6F139EC02F081AC8F
:100D9E000BD06D0E566F010E576F56C1D5F157C160
:100DAE00D6F139EC02F00CD081BC0AD06B0E566F26
:100DBE00010E576F56C1D5F157C1D6F139EC02F07D
:100DCE0081AE0BD04C0E566F000E576F56C1D5F13B
:100DDE0057C1D6F139EC02F00CD081BE0AD04E0EBE
:100DEE00566F000E576F56C1D5F157C1D6F139EC7B
:100DFE0002F081AA0BD0420E566F000E576F56C1ED
:100E0E00D5F157C1D6F139EC02F00CD081BA0AD027
:100E1E00470E566F000E576F56C1D5F157C1D6F11A
:060E2E0039EC02F0120095
:080E3400067E53EC02F01200EF
:100E3C002EDE0050011009E149DE0050011005E1E1
:100E4C0064DE0050011001E103D0006A016A120057
:0A0E5C00010E006E000E016E120080
:0A0E66009492CA840C0EBA12120016
:100E7000200E0101BB6F010EBC6FD90EBD6F010EBC
:100E8000BE6FFF0EB76FFF0EB86F000EB96F000E8A
:100E9000BA6FFF0EB36FFF0EB46F000EB56F000E8A
:100EA000B66FFF0EBF6FFF0EC06F000EC16F000E5A
:100EB000C26FAC8A900EAB6E948E949C9EAA03D0A7
:080EC000AECF00F0FBD71200D9
:080EC800BE6ABD98BD9A12003C
:0A0ED0009494CA840C0EBD121200A7
:080EDA00BB6ABA98BA9A120033
:100EE200800E0101C619006E800E005C02E1000E48
:100EF200C55D08E2C5510008006EC6C101F0000ED2
:0E0F020001561200C5C100F0C6C101F0120078
:0E0F1000C5C1D5F1C6C1D6F139EC02F0120010
:100F1E0083B809D083BA07D083BC05D083BE03D073
:100F2E0081B401D0F9D181B8F7D181B6F5D181BCA8
:100F3E00F3D181BEF1D181BA13D081B811D081B66F
:100F4E000FD083B80DD083AA0BD083AC09D083AE5B
:100F5E0007D081A405D081AC03D081AE01D016D0CC
:100F6E0081BA13D081B811D081B60FD083B80DD00D
:100F7E0083BA0BD083AC09D083AE07D081A405D041
:100F8E0081AC03D081AE01D001D015D0500E01013D
:100F9E00566F000E576F56C1D5F157C1D6F139ECC9
:100FAE0002F046DE81BA06D0B1C1D1F1B2C1D2F1A2
:100FBE00B2DCF8D734D081BA32D081A830D081A635
:100FCE002ED083A82CD083AA2AD081B428D081BC5D
:100FDE0026D081BE24D081BA22D081A820D081A66D
:100FEE001ED083A81CD083AA1AD081B418D081BC7D
:100FFE0016D081BE14D0610E0101566F000E576FD0
:10100E0056C1D5F157C1D6F139EC02F011DE81BAD5
:10101E0006D0B1C1D1F1B2C1D2F12DDDF8D783A87E
:10102E000DD083BA0BD083BC09D083BE07D081B458
:10103E0005D0040E01019B6F000E9C6F83A80DD08E
:10104E0083AA0BD083BC09D083BE07D081B405D050
:10105E000101030E9B6F000E9C6F83A80DD083AA17
:10106E000BD083AC09D083BE07D081B405D001016B
:10107E00020E9B6F000E9C6F83B80DD083AA0BD00F
:10108E0083BC09D083BE07D081B405D00101010E07
:10109E009B6F000E9C6F83B80BD083AA09D083ACD4
:1010AE0007D083BE05D081B403D001019B6B9C6B2E
:1010BE0083B80BD083AA09D083AC07D083AE05D0FA
:1010CE0081B403D001019B6B9C6B83B80BD083BAA8
:1010DE0009D083AC07D083BE05D081B403D0010103
:1010EE009B6B9C6B83B80BD083BA09D083AC07D0B3
:1010FE0083AE05D081B403D001019B6B9C6B83B88A
:10110E000DD083BA0BD083BC09D083AE07D081B487
:10111E0005D00101FF0E9B6FFF0E9C6F83B80DD0A3
:10112E0083BA0BD083AC09D083AE07D081A405D08F
:10113E000101FE0E9B6FFF0E9C6F83B80DD083BA1C
:10114E000BD083BC09D083AE07D081A405D001019A
:10115E00FD0E9B6FFF0E9C6F83B80DD083BA0BD024
:10116E0083BC09D083BE07D081A405D00101FC0E3B
:10117E009B6FFF0E9C6F01019BC100F09CC101F0A3
:10118E0072EC04F097C104F098C105F099C106F015
:10119E009AC107F0A8EC04F000C0C5F101C0C6F179
:1011AE0002C0C7F103C0C8F185C100F086C101F0CD
:1011BE0087C102F088C103F089C104F08AC105F02D
:1011CE008BC106F08CC107F0A8EC04F0C5C104F089
:1011DE00C6C105F0C7C106F0C8C107F053EC02F056
:1011EE0000C0C5F101C0C6F102C0C7F103C0C8F10D
:1011FE0083519B5D006E84519C59016E72EC04F01C
:10120E007FC104F080C105F081C106F082C107F0F4
:10121E00A8EC04F0C5C104F0C6C105F0C7C106F0C4
:10122E00C8C107F053EC02F000C0CDF101C0CEF101
:10123E0002C0CFF103C0D0F1CDC193F1CEC194F174
:10124E00CFC195F1D0C196F189C100F08AC101F0EC
:10125E008BC102F08CC103F0CDC104F0CEC105F0FC
:10126E00CFC106F0D0C107F053EC02F000C089F1F7
:10127E0001C08AF102C08BF103C08CF19BC183F1D6
:10128E009CC184F18FC100F090C101F072EC04F0AA
:10129E0000C0C9F101C0CAF102C0CBF103C0CCF14C
:1012AE00C9C100F0CAC101F0CBC102F0CCC103F03C
:1012BE00CDC104F0CEC105F0CFC106F0D0C107F00C
:1012CE0053EC02F047DC00C0C5F101C0C6F1C5C148
:1012DE008DF1C6C18EF1CDC104F0CEC105F0CFC1E6
:1012EE0006F0D0C107F0C9C100F0CAC101F0CBC1F0
:1012FE0002F0CCC103F097DD2DDC00C091F101C0EE
:10130E0092F1C5C1D1F1C6C1D2F100C0D3F101C075
:0A131E00D4F19DEC04F0FCD51200A0
:1013280081BA17D081B815D081B613D083B811D03F
:1013380083BA0FD083BC0DD083BE0BD081B409D043
:1013480081BC07D081BE05D0010E006E000E016E73
:081358001200006A016A120094
:1013600083B809D083BA07D083BC05D083BE03D02D
:1013700081B401D00BD081B809D081B607D081BC2F
:1013800005D081BE03D0010E006E01D0006A00526C
:10139000D8A408D181AA14D081A812D081A610D0D7
:1013A00083A80ED083AA0CD083AC0AD083AE08D019
:1013B00081A406D081AC04D081AE02D03BDCF1D058
:1013C00081BA13D081B811D081B60FD083B80DD0B7
:1013D00083AA0BD083AC09D083AE07D081A405D0FB
:1013E00081AC03D081AE01D016D081BA13D081B8C0
:1013F00011D081B60FD083B80DD083BA0BD083AC97
:1014000009D083AE07D081A405D081AC03D081AED2
:1014100001D001D016D0270E0101566F010E576F73
:1014200056C1D5F157C1D6F139EC02F008DC81BACA
:1014300007D0B1C1D1F1B2C1D2F192EC04F0F7D72B
:10144000B0D081BA3DD081A83BD081A639D083A845
:1014500037D083AA35D083AC33D083BE31D081B4AA
:101460002FD081BC2DD081BE2BD081BA29D081A8AC
:1014700027D081A625D083A823D083AA21D083BCDE
:101480001FD083BE1DD081B41BD081BC19D081BEBA
:1014900017D0170E0101566F010E576F56C1D5F1C7
:1014A00057C1D6F139EC02F01FEC06F081BA07D033
:1014B000B1C1D1F1B2C1D2F142EC05F0F7D771D090
:1014C00083AA0DD083AC0BD0B1C1D1F1B2C1D2F19E
:1014D000B1C1D3F1B2C1D4F19DEC04F062D083AAC2
:1014E0000BD083BC09D081AA07D0B1C1D1F1B2C160
:1014F000D2F13BEC05F055D083BA0BD083AC09D0C8
:1015000081AA07D0B1C1D1F1B2C1D2F1AAEC05F0E4
:1015100048D083AA0DD083BC0BD081BA09D01AEC75
:1015200006F0B1C1D1F1B2C1D2F142EC05F039D02F
:1015300083BA0DD083AC0BD081BA09D01AEC06F077
:10154000B1C1D1F1B2C1D2F192EC04F02AD083BA88
:1015500028D083BC26D083A807D0B1C1D1F1B2C1B5
:10156000D2F142EC05F01DD083AE07D0B1C1D1F16C
:10157000B2C1D2F192EC04F014D081A607D0B1C16F
:10158000D1F1B2C1D2F142EC05F00BD081A407D069
:10159000B1C1D1F1B2C1D2F192EC04F002D01AEC97
:0615A00006F0DED6120089
:1015A600FF0E0101C61902E1A60EC51916E1FF0ECE
:1015B600D16F000ED26F42EC05F0060E0B6E950E43
:1015C6000C6E8C0E0D6E0D2EFED70C2EFCD70B2E30
:1015D600FAD700001AEC06F020D1000E0101C61958
:1015E60002E15A0EC51916E1FF0ED16F000ED26F39
:1015F60092EC04F0060E0B6E950E0C6E8C0E0D6EB4
:101606000D2EFED70C2EFCD70B2EFAD700001AECA7
:1016160006F003D1FF0E0101C61902E1E20EC5195B
:1016260025E1FF0ED16F000ED26F42EC05F0030EDE
:101636000B6E8A0E0C6E550E0D6E0D2EFED70C2EF1
:10164600FCD70B2EFAD7000000001AEC06F0060EA7
:101656000B6E130E0C6EAD0E0D6E0D2EFED70C2EF0
:10166600FCD70B2EFAD700000000D7D0000E0101E0
:10167600C61902E11E0EC51925E1FF0ED16F000E37
:10168600D26F92EC04F0030E0B6E8A0E0C6E550EA2
:101696000D6E0D2EFED70C2EFCD70B2EFAD70000A2
:1016A60000001AEC06F0060E0B6E130E0C6EAD0E55
:1016B6000D6E0D2EFED70C2EFCD70B2EFAD7000082
:1016C6000000ABD0FF0E0101C61902E1C40EC51918
:1016D60025E1FF0ED16F000ED26F42EC05F0040E2D
:1016E6000B6EEF0E0C6E790E0D6E0D2EFED70C2EB8
:1016F600FCD70B2EFAD7000000001AEC06F0060EF7
:101706000B6E130E0C6EAD0E0D6E0D2EFED70C2E3F
:10171600FCD70B2EFAD7000000007FD0000E010187
:10172600C61902E13C0EC51925E1FF0ED16F000E68
:10173600D26F92EC04F0040E0B6EEF0E0C6E790E67
:101746000D6E0D2EFED70C2EFCD70B2EFAD70000F1
:1017560000001AEC06F0060E0B6E130E0C6EAD0EA4
:101766000D6E0D2EFED70C2EFCD70B2EFAD70000D1
:10177600000053D0FF0E0101C61902E1D30EC519B0
:1017860023E1FF0ED16F000ED26F42EC05F0040E7E
:101796000B6E6D0E0C6E9B0E0D6E0D2EFED70C2E67
:1017A600FCD70B2EFAD71AEC06F0060E0B6E130EAC
:1017B6000C6EAD0E0D6E0D2EFED70C2EFCD70B2E1D
:1017C600FAD70000000029D0000E0101C61902E177
:1017D6002D0EC51922E1FF0ED16F000ED26F92ECCD
:1017E60004F0040E0B6E6D0E0C6E9B0E0D6E0D2E20
:1017F600FED70C2EFCD70B2EFAD71AEC06F0060EE7
:101806000B6E130E0C6EAD0E0D6E0D2EFED70C2E3E
:0C181600FCD70B2EFAD7000000001200D7
:10182200CD0E0101D16F000ED26FC80ED36F000E24
:08183200D46F9DEC04F01200DC
:10183A000900F5CFE6FF0006FBE10106F9E1120017
:10184A00CA0E926EFF0E936E946AF20E956E050E94
:10185A00966E806A816A826A836A846ACA80CA9238
:10186A00F90ECB6E64EC07F0CA80CA92F90ECB6E01
:10187A006DEC07F068EC07F033EC07F0810EAF6E01
:10188A00AC8438EC07F0C10EC26E060EC16E0101BF
:10189A00A16BA26BA36BA46B9D6B9E6B9F6BA06BE2
:1018AA00C30ED56ED66AF28A800ECD6ECF6ACE6A24
:0218BA0012001A
:1018BC0083B809D083BA07D083BC05D083BE03D0CC
:1018CC0081B401D018D081B816D081B614D081BCA7
:1018DC0012D081BE10D0150E0101566F000E576F3D
:1018EC0056C1D5F157C1D6F139EC02F01FEC06F018
:1018FC008FEC07F078D081AA15D081A813D081A6DF
:10190C0011D083A80FD083AA0DD083AC0BD083AE9B
:10191C0009D081A407D081AC05D081AE03D0010ED3
:10192C00006E01D0006A00521BE081BA15D081B85C
:10193C0013D081B611D083B80FD083BA0DD083BC2D
:10194C000BD083BE09D081B407D081BC05D081BE39
:10195C0003D0010E006E01D0006A005201E00FD0DE
:10196C002A0E0101566F000E576F56C1D5F157C1A3
:10197C00D6F139EC02F01FEC06F0ECDC34D081AA85
:10198C0013D081A811D081A60FD083A80DD083AA23
:10199C000BD083AC09D083AE07D081A405D081AC29
:1019AC0003D081AE01D01BD081BA15D081B813D031
:1019BC0081B611D083B80FD083BA0DD083BC0BD0B5
:1019CC0083BE09D081B407D081BC05D081BE03D0C1
:1019DC00010E006E01D0006A005201E004D01AEC36
:0A19EC0006F01FEC06F064D71200AD
:1019F6000101C36BC46B1EEC07F0000E011802E177
:101A0600000E0018D8A47DD01E0E0101C56F000E71
:101A1600C66FC6DD1E0E0101C327000EC4231EECD1
:101A260007F0000E011802E1000E0018D8A469D0D4
:101A3600C40E0101C56FFF0EC66FB2DDC40E0101F3
:101A4600C327FF0EC4231EEC07F0000E011802E1A7
:101A5600000E001856E15A0E0101C56F000EC66F42
:101A66009FDD5A0E0101C327000EC4231EEC07F0AA
:101A7600000E011802E1000E001843E1A60E010156
:101A8600C56FFF0EC66F8CDDE20E0101C56FFF0E3E
:101A9600C66F86DD880E0101C327FF0EC4231EEC28
:101AA60007F0000E011802E1000E00182AE15A0E96
:101AB6000101C56F000EC66F73DD3C0E0101C56FD7
:101AC600000EC66F6DDD960E0101C327000EC423FE
:101AD6001EEC07F0000E011802E1000E001811E1DD
:101AE600A60E0101C56FFF0EC66F5ADDA60E0101D7
:101AF600C56FFF0EC66F54DD4C0E0101C327FF0EE6
:101B0600C4230101C3511527C451162387DE410E94
:101B16000C6EEE0E0D6E0D2EFED70C2EFCD70000B1
:101B260000DC0050011039E015C1C5F116C1C6F13F
:101B360071EC07F0800E0118026E800E025C02E165
:101B46005A0E005C23E3EB0EC56F000EC66F88ECE1
:101B560007F05A0EC56F000EC66F22DD5A0E010140
:101B6600C56F000EC66F1CDD0101156B166B56DEC8
:101B7600060E0B6E130E0C6EAD0E0D6E0D2EFED7F1
:101B86000C2EFCD70B2EFAD700000000FF0E010129
:0C1B9600C56F000EC66F88EC07F012004F
:101BA200AF0E0101AB6F000EAC6FD70E8F6F000E40
:101BB200906FFF0EA56F000EA66FC80EB16F000EDC
:101BC200B26FC80EA76F000EA86FC80EAD6F000EE1
:101BD200AE6FDC0EAF6F000EB06F000E976F000E8F
:101BE200986F200E996F820E9A6F856B866B876B4A
:101BF200886B7F6B806B816B826B896B8A6B8B6B63
:101C02008C6B836B846B8D6B8E6B916B926BD70E2F
:101C1200D96F97EC00F08FC1D9F15AEC00F01200A5
:101C220081AA17D081A815D081A613D083A811D07C
:101C320083AA0FD083AC0DD083AE0BD081A409D080
:101C420081AC07D081AE05D0010E006E000E016E90
:081C52001200006A016A120091
:101C5A006EEC0FF0F5DDA0DF960E0101C56F000EE8
:101C6A00C66F88EC07F094EC09F00050011002E10D
:101C7A00BDDEF9D70101A36BA46BA20EC56F000EDE
:101C8A00C66F88EC07F0A16BA26B94EC09F00050C8
:101C9A00011002E0C1DDF9D7010E0101A16F000EAA
:101CAA00A26FD80EC56F000EC66F88EC07F0010E42
:101CBA00A36F000EA46F1AEC06F0CD0ED16F000EC2
:101CCA00D26FC80ED36F000ED46F9DEC04F0030ED2
:101CDA000B6E8A0E0C6E550E0D6E0D2EFED70C2E47
:101CEA00FCD70B2EFAD70000000096DF0050011037
:101CFA0002E1DFDDFAD71AEC06F0B30E0101C56F77
:101D0A00000EC66F88EC07F0020EA36F000EA46FD8
:101D1A00010E9D6F000E9E6F020EA16F000EA26F44
:101D2A0094EC09F00050011002E160DEF9D71AECD8
:101D3A0006F0710E0101C56F000EC66F88EC07F040
:101D4A00020E9D6F000E9E6F010E9F6F000EA06F18
:101D5A00030EA16F000EA26F5FDF0050011003E1B6
:081D6A001AEC06F0F9D7FFD7CF
:101EDC0010EE15F06A0E006E020E016E720EF66EAA
:0E1EEC001D0EF76E000EF86E1DEC0CF01200CD
:101D72004C696E6520666F6C6C6F77205049442EFB
:051D82002E20202000CE
:101D87004C696E6520666F6C6C6F77204E6F726D55
:081D9700616C2E2E20202000BB
:051D9F0020313B200093
:051DA40020303B20008F
:021DA900310007
:021DAB00300006
:101DAD00393020746F2072696768742E2E202020C0
:011DBD000025
:101DBE00393020746F206C6566742E2E2020200022
:101DCE002020456E64206F66204C6576656C20324F
:101DDE002E204C6576656C203320537461727469C5
:051DEE006E67202000DB
:0C1DF3005374617274696E672E2E2E000E
:101DFF005374617274696E6720426C6F636B20203D
:011E0F0000D2
:101E10002020456E64206F66204C6576656C20310D
:101E20002E204C6576656C20322053746172746983
:051E30006E6720200098
:101E35004C6576656C2031205374617274696E67E8
:031E45002020005A
:101E480057726F6E6720446972656374696F6E209C
:041E58002121210023
:101E5C00436F7272656E7420446972656374696F46
:061E6C006E20212121007F
:021E720000006E
:101E7400393020746F206C6566742E2E202020006B
:101E8400393020746F2072696768742E2E202020E8
:011E9400004D
:021E950031001A
:021E9700300019
:021E9900310016
:101E9B00436F6E6E656374696F6E20457374616218
:081EAB006C6973686564210095
:021EB3005801D4
:0D1EB5006D6F766520666F72776172640054
:021EC2003100ED
:021EC4003000EC
:021EC6003100E9
:021EC8003000E8
:021ECA003100E5
:021ECC003000E4
:021ECE003000E2
:021ED0003000E0
:021ED2003000DE
:021ED4003100DB
:021ED6003100D9
:021ED8003000D8
:021EDA003100D5
:020000040030CA
:0D000100220F0EFF0181FF0FC00FE00F4026
:00000001FF
