:1000000097EF00F00000000000EF00F0000000009B
:0A0010000000000000000000F3D71C
:0E001C00ACB202D00000FCD73AC0ADFF12001B
:10002A001C0E266E000E276E3A0E286E000E296EE2
:10003A00FF0E326EFF0E336E000E346E000E356EFA
:10004A00FF0E2E6EFF0E2F6E000E306E000E316EFA
:10005A00FF0E2A6EFF0E2B6E000E2C6E000E2D6EFA
:10006A00AC8A900EAB6E948E949C9EAA03D0AECFAF
:06007A0000F0FBD71200AC
:0C008000240E0D6E0D2EFED700001200A5
:10008C00C26AC00EC212C18CC18E36C000F00036DE
:10009C00009000360090003600900050C212C280D2
:1000AC00E9DFC284C2A401D0FDD7C4CF01F0006A3D
:0C00BC00C3500012000E0112C29012008E
:1000C8000900F5CFE6FF0006FBE10106F9E11200A1
:1000D800810EAF6EAC84A5DF956A946A936AFF0EB1
:1000E800926EC10EC26EC16AFF0E926E806AF29C59
:0600F800F28CF28E1200F2
:1000FE00396A36C0E9FF37C0EAFFEECF38F0385024
:10010E00000A0DE038C03AF082DF392A3950362421
:10011E00E96E000E3720EA6EEECF38F0F0D71200FF
:10012E00430E156E6F0E166E6E0E176E6E0E186EE9
:10013E00650E196E630E1A6E740E1B6E650E1C6EB6
:10014E00640E1D6E210E1E6E2E0E1F6E2E0E206E56
:10015E00200E216E226AB9DF150E366E000E376E36
:10016E00C7DF5A0E236E000E246E366A88DF00C07B
:10017E0023F001C024F000C081FF01C002F0036A29
:10018E0002C082FF010E015C02E1F40E005C08E287
:10019E00010E245C02E1900E235C02E3410E256EFB
:1001AE00010E245C02E1900E235C08E2010E245C39
:1001BE0002E12C0E235C02E3420E256E010E245C3E
:1001CE0002E12C0E235C08E2000E245C02E1C80E54
:1001DE00235C02E3430E256E25C03AF018DF030EB2
:1001EE000B6E8A0E0C6E550E0D6E0D2EFED70C2E4E
:0E01FE00FCD70B2EFAD700000000B7D7FFD7B2
:020000040030CA
:0D000100220F0EFF0181FF0FC00FE00F4026
:00000001FF
