:100000007FEF00F00000000000EF00F000000000B3
:0A0010000000000000000000F3D71C
:10001C00CA0E1A6E000E1B6E2A0E1C6E000E1D6E82
:10002C00FF0E266EFF0E276E000E286E000E296E38
:10003C00FF0E226EFF0E236E000E246E000E256E38
:10004C00FF0E1E6EFF0E1F6E000E206E000E216E38
:10005C00AC8A900EAB6E948E949C9EAA03D0AECFBD
:06006C0000F0FBD71200BA
:0C007200240E0D6E0D2EFED700001200B3
:10007E000900F5CFE6FF0006FBE10106F9E11200EB
:10008E00C26AC00EC212C18CC18E2AC000F00036E8
:10009E00009000360090003600900050C212C280D0
:1000AE00E1DFC284C2A401D0FDD7C4CF01F0006A43
:0C00BE00C3500012000E0112C29012008C
:0E00CA00ACB202D00000FCD72AC0ADFF12007D
:1000D800810EAF6EAC849EDF956A946A936AFF0EB8
:1000E800926EC10EC26EC16AFF0E926E806AF29C59
:0600F800F28CF28E1200F2
:1000FE00ECDF010E156E000E166E800E1618006ED9
:10010E00800E005C02E1800E155C14E215C02AF030
:10011E00D5DF030E0B6E8A0E0C6E550E0D6E0D2E68
:10012E00FED70C2EFCD70B2EFAD700000000154A76
:10013E00162AE3D75A0E176E000E186E2A6AA0DF23
:10014E0000C017F001C018F000C081FF01C002F01E
:10015E00036A02C082FF010E015C02E1F40E005C34
:10016E0008E2010E185C02E1900E175C02E3410EEC
:10017E00196E010E185C02E1900E175C08E2010E7A
:10018E00185C02E12C0E175C02E3420E196E010E92
:10019E00185C02E12C0E175C08E2000E185C02E1FE
:1001AE00C80E175C02E3430E196E19C02AF086DFE3
:1001BE00030E0B6E8A0E0C6E550E0D6E0D2EFED7A7
:1001CE000C2EFCD70B2EFAD700000000B7D7FFD7A6
:020000040030CA
:0D000100220F0EFF0181FF0FC00FE00F4026
:00000001FF
