:100000002AEF03F00000000000EF00F00000000005
:0A0010000000000000000000F3D71C
:10001C000B6A0A6A096A00500402F4CF09F0F3CFA4
:10002C0008F001500502F4CF0BF0F3CF0AF00050AA
:10003C000502F3500926F4500A22E86A0B220150FB
:10004C000402F3500926F4500A22E86A0B2208C075
:10005C0000F009C001F00AC002F00BC003F012005E
:10006C00CB50010F006E016A000E012252C104F048
:10007C00000E056ECDDF060E026E00C004F001C04E
:10008C0005F0025005E005320432059EFF0FFAD749
:10009C00040E016E04C000F0015004E00036009024
:1000AC00FF0FFBD7300E0014036E04C000F005C028
:1000BC0001F001320032019E01320032019E00C07B
:0C00CC00BEFF0F0EBD160350BD12120047
:1000D800CB50010F006E016A000E012252C104F0DC
:1000E800000E056E97DF060E026E00C004F001C018
:1000F80005F0025005E005320432059EFF0FFAD7DD
:10010800040E016E04C000F0015004E000360090B7
:10011800FF0FFBD7300E0014036E04C000F005C0BB
:1001280001F001320032019E01320032019E00C00E
:0C013800BBFF0F0EBA160350BA121200E3
:0C0144008288829A50C152F18FDF1200B5
:0C0150008384839650C152F1BFDF12007F
:0E015C00ACB202D00000FCD750C1ADFF1200C3
:06016A008384838612006D
:060170008288828A120061
:100176004CC150F14DC151F1E8DF4EC150F14FC1B4
:0601860051F1DDDF120063
:06018C00EEDFF0DF1200BF
:0C0192008298828A4CC152F168DF120092
:0C019E00839483864CC152F198DF12005C
:0801AA00BE6ABD98BD9A120067
:1001B20001014F6B4CC1E9FF4DC1EAFFEECF4EF199
:1001C2004E51000A0EE04EC150F1C7DF01014F2B24
:1001D2004F514C25E96E000E4D21EA6EEECF4EF1E5
:0401E200EFD7120041
:0A01E6009494CA840C0EBD1212009E
:0A01F0009492CA840C0EBA12120099
:0801FA00BB6ABA98BA9A120020
:100202005C0E0101386F010E396F500E3A6F010E0C
:100212003B6F700E3C6F040E3D6F000E3E6F000E82
:100222003F6FFF0E306FFF0E316F000E326F000E08
:10023200336FFF0E346FFF0E356F000E366F000EF8
:10024200376FAC8A900EAB6E948E949C9EAA03D0AC
:08025200AECF00F0FBD7120053
:10025A00FF0E926EFF0E936E946AF00E956E806A90
:10026A00816A826A836ACA80CA92F90ECB6E98DF63
:10027A00CA80CA92F90ECB6EBBDFB0DFB4DF810E43
:0E028A00AF6EAC84B9DFC10EC26EC16A120045
:100298000900F5CFE6FF0006FBE10106F9E11200CF
:1002A800C80E01014C6F000E4D6FC80E4E6F000E48
:1002B8004F6F5DDF080E0101176F010E186F17C130
:1002C8004CF118C14DF171DF7F0E0B6ED40E0C6E20
:1002D800310E0D6E0D2EFED70C2EFCD70B2EFAD735
:1002E80000000000FF0E506F000E516F27DFD90E7F
:1002F8000101176F000E186F17C14CF118C14DF1AD
:1003080054DF2FDF7F0E0B6ED40E0C6E310E0D6E88
:100318000D2EFED70C2EFCD70B2EFAD700000000AE
:10032800FF0E506F000E516F0FDFBC0E0101176FEB
:10033800000E186F17C14CF118C14DF136DF14DFEC
:100348007F0E0B6ED40E0C6E310E0D6E0D2EFED779
:100358000C2EFCD70B2EFAD70000000013DFAE0ED0
:10036800176F000E186F17C14CF118C14DF11DDF42
:10037800C70E176F000E186F17C14CF118C14DF159
:1003880014DFFF0E406F000E416F800E006E800E6E
:100398004119005C02E1405100081DE240C14CF1E6
:1003A80041C14DF140C14EF141C14FF1E0DE030EB4
:1003B8000B6E8A0E0C6E550E0D6E0D2EFED70C2E82
:1003C800FCD70B2EFAD700000000010E0101405F98
:0803D800000E415BDAD71200B0
:1003E0004AC150F14BC151F1B3DE4AC14CF14BC18E
:0603F0004DF1CFDE12000A
:1003F6004AC14CF14BC14DF1CFDE4AC150F14BC160
:0604060051F19DDE120021
:10040C00B90E0101466F000E476FB40E486F000E17
:10041C00496FFF0E426F000E436FC80E446F000E03
:10042C00456F000E216F000E226F100E236F820E8F
:10043C00246F256B266B276B286B196B1A6B1B6B48
:10044C001C6B1D6B1E6B1F6B206B296B2A6B2B6B34
:10045C002C6B2D6B2E6BB40E526F02DE48C152F119
:04046C0035DE120067
:10047000AECF01F0ABA202D0AB98AB8801C000F0C8
:02048000120068
:1004820081A80BD0290E0101176F000E186F17C13A
:100492004CF118C14DF18CDE0CD081B80AD00101AB
:1004A2002B0E176F000E186F17C14CF118C14DF1CA
:1004B2007FDE81A60AD0270E176F000E186F17C1B4
:1004C2004CF118C14DF174DE0BD081B609D0190E72
:1004D200176F000E186F17C14CF118C14DF168DE8D
:1004E20083A80AD01B0E176F000E186F17C14CF1AC
:1004F20018C14DF15DDE0BD083B809D0150E176F10
:10050200000E186F17C14CF118C14DF151DE83AACC
:100512000AD0170E176F000E186F17C14CF118C1D1
:100522004DF146DE0BD083BA09D01D0E176F000EB7
:10053200186F17C14CF118C14DF13ADE83AC0AD0E5
:10054200230E176F000E186F17C14CF118C14DF131
:100552002FDE0BD083BC09D0250E176F000E186F4B
:1005620017C14CF118C14DF123DE83AE0AD01F0E24
:10057200176F000E186F17C14CF118C14DF118DE3C
:100582000BD083BE09D0210E176F000E186F17C152
:100592004CF118C14DF10CDE81A40AD09A0E176FEE
:1005A200000E186F17C14CF118C14DF101DE0BD0CE
:1005B20081B409D09C0E176F000E186F17C14CF151
:1005C20018C14DF1F5DD81AC0AD0960E176F000E01
:1005D200186F17C14CF118C14DF1EADD0BD081BC87
:1005E20009D0980E176F000E186F17C14CF118C181
:1005F2004DF1DEDD81AE0AD09E0E176F000E186F30
:1006020017C14CF118C14DF1D3DD0BD081BE09D019
:10061200A70E176F000E186F17C14CF118C14DF1DC
:10062200C7DD81AA0AD0A90E176F000E186F17C175
:100632004CF118C14DF1BCDD0BD081BA09D0A00E2E
:10064200176F000E186F17C14CF118C14DF1B0DDD4
:02065200120094
:1006540056EC04F000DEA5C04CF1A6C04DF1A7DDB8
:10066400D3DE7F0E0101176F000E186F17C14CF116
:1006740018C14DF19CDD1A0E0B6E5E0E0C6E6E0EE3
:100684000D6E0D2EFED70C2EFCD70B2EFAD70000C4
:10069400570E176F000E186F17C14CF118C14DF1AA
:1006A40086DD406B416B800E4119006E800E005C4C
:1006B40002E1010E405D14E2D9DE00C02FF1DFDE5D
:1006C4001A0E0B6E5E0E0C6E6E0E0D6E0D2EFED798
:1006D4000C2EFCD70B2EFAD70000404B412BE3D74E
:1006E4002D0E176F000E186F17C14CF118C14DF184
:1006F4005EDDD8DD0101440E176F000E186F17C1BF
:100704004CF118C14DF153DDFF0E4A6F000E4B6FD3
:1007140065DE060E0B6E950E0C6E8C0E0D6E0D2E98
:10072400FED70C2EFCD70B2EFAD700002DDD330E8E
:100734000B6EBB0E0C6EDF0E0D6E0D2EFED70C2E47
:10074400FCD70B2EFAD700000000670E0101176FCB
:10075400000E186F17C14CF118C14DF128DDFF0EC2
:100764004A6F000E4B6F45DE060E0B6E950E0C6E37
:100774008C0E0D6E0D2EFED70C2EFCD70B2EFAD739
:10078400000002DD330E0B6EBB0E0C6EDF0E0D6E21
:100794000D2EFED70C2EFCD70B2EFAD7000000002E
:0407A400A9D7FFD7FB
:1008AC0010EE15F0040E006E020E016EA80EF66E20
:0E08BC00070EF76E000EF86E4CEC01F0120005
:0207A80030001F
:0207AA0031001C
:0207AC0030001B
:0207AE00310018
:0207B000300017
:0207B200310014
:0207B400300013
:0207B600310010
:0207B80030000F
:0207BA0031000C
:0207BC0031000A
:0207BE00300009
:1007C0005374617274204C696E6520666F6C6C6F37
:0707D000772E2E20202000EF
:1007D70020526F7461746520436C6F636B77697324
:0307E7006520008A
:1007EA00546573742053656E736F727320202000F2
:1007FA0020526F7461746520416E746920436C6F76
:08080A00636B77697365200040
:10081200202020202020202020205374617274691F
:070822006E672E2E2020005E
:0208290031009C
:02082B0030009B
:02082D00310098
:02082F00300097
:02083100310094
:0508330020303B200015
:02083800E300DB
:02083A0030008C
:05083C0020313B20000B
:0E08410053746F7070696E672E2E2020200099
:0B084F007475726E20526967687400B7
:10085A0044656372656173652050574D2E2E2020C2
:02086A0020006C
:0A086C007475726E204C656674000E
:10087600436F6E6E656374696F6E20457374616253
:080886006C69736865642100D0
:0D088E006D6F766520666F72776172640091
:0F089B006D6F766520466F727761726420200062
:0208AA00FB0051
:020000040030CA
:0D000100220F0EFF0181FF0FC00FE00F4026
:00000001FF
