:100000008BEF0AF00000000000EF00F0000000009D
:0A0010000000000000000000F3D71C
:0E001C00026A016A006A086A036A000E120096
:10002A000B6A0A6A096A00500402F4CF09F0F3CF96
:10003A0008F001500502F4CF0BF0F3CF0AF000509C
:10004A000502F3500926F4500A22E86A0B220150ED
:10005A000402F3500926F4500A22E86A0B2208C067
:10006A0000F009C001F00AC002F00BC003F0120050
:10007A000B820BAE47EF00F0036802680168006864
:08008A000A360232FF0E1200DB
:100092000B840BAE54EF00F0010E036E026A016A8C
:0A00A200006A0A360232FF0E120057
:0800AC000AAE029E000E1200D4
:1000B400CB50010F006E016A000E012222C104F030
:1000C400000E056EB0DF060E026E00C004F001C023
:1000D40005F0025005E005320432059EFF0FFAD701
:1000E400040E016E04C000F0015004E000360090DC
:1000F400FF0FFBD7300E0014036E04C000F005C0E0
:1001040001F001320032019E01320032019E00C032
:0C011400BBFF0F0EBA160350BA12120007
:10012000CB50010F006E016A000E012222C104F0C3
:10013000000E056E7ADF060E026E00C004F001C0EC
:1001400005F0025005E005320432059EFF0FFAD794
:10015000040E016E04C000F0015004E0003600906F
:10016000FF0FFBD7300E0014036E04C000F005C073
:1001700001F001320032019E01320032019E00C0C6
:0C018000BEFF0F0EBD160350BD12120092
:10018C000CB008EF01F00CA2AEEF01F00E6A000EFD
:10019C0002641FEF01F0F00E0214D8A4EAEF00F095
:1001AC00023A01380F0B02260138F00B016E0038B1
:1001BC000F0B01260038F00B006E08380F0B0026D1
:1001CC000838F00B086E0E84D89002BE03EF01F0D5
:1001DC0008360036013602360E2A02BE03EF01F055
:1001EC0008360036013602360E2A02BE03EF01F045
:1001FC0008360036013602360E2A0E500364A4EF80
:10020C0001F0035E0BBC08AEA9EF01F0D880800EA4
:10021C0008640030000E002201220222D8A0A9EFAF
:10022C0001F0023201320032034AAEEF01F0A9EFC5
:10023C0001F001C002F000C001F008C000F0086A33
:10024C00000E0E86026456EF01F0F00E0214D8A4D4
:10025C003EEF01F0023A01380F0B02260138F00B89
:10026C00016E00380F0B01260038F00B006E0E8467
:10027C00D89002BE03EF01F00036013602360E2A8A
:10028C0002BE03EF01F00036013602360E2A02BE22
:10029C0003EF01F00036013602360E2A03EF01F0AF
:1002AC0001C002F000C001F0006A000E0E960E882C
:1002BC00026483EF01F0F00E0214D8A46EEF01F08B
:1002CC00023A01380F0B02260138F00B016E0E8436
:1002DC00D89002BE03EF01F0013602360E2A02BEA0
:1002EC0003EF01F0013602360E2A02BE03EF01F0D5
:1002FC00013602360E2A03EF01F001C002F0016A4A
:10030C00000E0E860264B3EF01F0F00E0214D8A4B6
:10031C0092EF01F0023A0E84D89002BE03EF01F086
:10032C0002360E2A02BE03EF01F002360E2A02BE7E
:10033C0003EF01F002360E2A03EF01F0010E0C6EF2
:10034C00A2DEB6EF01F0020E0C6EAADEB6EF01F0E3
:10035C00040E0C6E8CDEB6EF01F0080E0C6E58DE3F
:02036C0012007D
:0E036E00ACB202D00000FCD722C1ADFF1200DD
:10037C000B800BAECAEF01F0026A0AAEFF0E026EE2
:0C038C00016E006E0A360232FF0E1200F5
:0C039800838483961FC122F189DE1200CD
:0C03A4008298828A1FC122F1B9DE12008B
:1003B0000101216B1FC1E9FF20C1EAFFEECF00F16F
:1003C0000051000A0EE000C122F1D1DF0101212B12
:1003D00021511F25E96E000E2021EA6EEECF00F1BB
:0403E000EFD7120041
:1003E4000C6A0E6A0250D8A40BEF02F001C002F0AE
:1003F40000C001F0006A0E860250D8A40BEF02F090
:1004040001C002F0016A0E960E880250D8B41DEFA6
:1004140002F00E50035ED8A4D8A022EF02F0D890C8
:1004240002BE27EF02F0003601360236032E12EF29
:1004340002F022EF02F0010E0C6EEEDD2AEF02F064
:10044400020E0C6E24DE2AEF02F0040E0C6E2CDE7B
:02045400120094
:10045600025006180E6E086A096A0B6A0350076492
:100466001EEF03F006500A6E068E028E03500B6EC8
:100476000750036E000E0B646EEF02F00B50075E22
:10048600D8B40FEF03F0070E0764DDEF02F0075E46
:1004960000C008F001C000F002C001F0026A074E79
:1004A6000FEF03F00764B2EF02F0075E00C008F03A
:1004B60001C000F0016A074E0FEF03F0076490EFEA
:1004C60002F0075E00C008F0006A074E0FEF03F067
:1004D600076477EF02F00AC002F005C001F004C01D
:1004E60000F0086A38EF04F0030E076482EF02F0AA
:1004F600075E08380F0B086E074E0FEF03F0D89013
:100506000832074E0FEF03F0D8900832074E0FEF70
:1005160003F0D89008320FEF03F0030E0764A1EF43
:1005260002F0075E08380F0B086E0038F00B08263D
:1005360000380F0B006E074E0FEF03F0D890003215
:100546000832074E0FEF03F0D89000320832074EFC
:100556000FEF03F0D890003208320FEF03F0030ECE
:100566000764C9EF02F0075E08380F0B086E003803
:10057600F00B082600380F0B006E0138F00B002632
:1005860001380F0B016E074E0FEF03F0D8900132C2
:1005960000320832074E0FEF03F0D89001320032D6
:1005A6000832074E0FEF03F0D890013200320832BE
:1005B6000FEF03F0030E0764FAEF02F0075E083848
:1005C6000F0B086E0038F00B082600380F0B006E74
:1005D6000138F00B002601380F0B016E0238F00BC4
:1005E600012602380F0B026E074E0FEF03F0D8906C
:1005F6000232013200320832074E0FEF03F0D89074
:100606000232013200320832074E0FEF03F0D89063
:100616000232013200320832096A000E0EAE03EFD2
:1006260004F0081E001E011E021E082A00220122D6
:10063600022203EF04F00750D8A424EF03F038EFAA
:1006460004F0096A02C00AF0028E068E0750035CA7
:10065600076ED8B4F6EF03F0070E0764C4EF03F095
:10066600075E0450096E0550046E0650056E066A54
:10067600074EF6EF03F0070E076499EF03F0075EE7
:100686000450096E0550046E056A074EF6EF03F036
:10069600070E076477EF03F0075E0450096E046ADD
:1006A600074EF6EF03F0070E07645EEF03F00AC08D
:1006B60002F038EF04F0030E076469EF03F0075EFB
:1006C60009380F0B096E074EF6EF03F0D890093282
:1006D600074EF6EF03F0D8900932074EF6EF03F017
:1006E600D8900932F6EF03F0030E076488EF03F0A3
:1006F600075E09380F0B096E0438F00B092604381B
:100706000F0B046E074EF6EF03F0D8900432093251
:10071600074EF6EF03F0D89004320932074EF6EF93
:1007260003F0D89004320932F6EF03F0030E0764A3
:10073600B0EF03F0075E09380F0B096E0438F00BB3
:10074600092604380F0B046E0538F00B042605380D
:100756000F0B056E074EF6EF03F0D8900532043204
:100766000932074EF6EF03F0D8900532043209320B
:10077600074EF6EF03F0D890053204320932F6EF51
:1007860003F0030E0764E1EF03F0075E09380F0B71
:10079600096E0438F00B092604380F0B046E053871
:1007A600F00B042605380F0B056E0638F00B0526F0
:1007B60006380F0B066E074EF6EF03F0D89006329A
:1007C600053204320932074EF6EF03F0D8900632AE
:1007D600053204320932074EF6EF03F0D89006329E
:1007E600053204320932086A000E0EAE03EF04F039
:1007F600091E041E051E061E092A042205220622BB
:1008060009500826045000220550012206500222F3
:100816000EBE1AEF04F0D8A029EF04F0023201321E
:1008260000320832033E29EF04F033EF04F0D8B06B
:100836002EEF04F0000E081E001E011E021E082ADE
:100846000022012202220A7E2EEF04F0010E0C6E17
:100856009ADC3AEF04F0020E0C6E95DC3AEF04F0E7
:10086600040E0C6E07DC3AEF04F0000E0C6E12005C
:0C087600839483861FC122F11ADC12005B
:060882008384838612004E
:060888008288828A120042
:0C088E008288829A1FC122F144DC120013
:10089A000B6A0350D8B493EF04F002500A6E028E2A
:1008AA008E0E035E03AE97EF04F0036C080E035C32
:1008BA00D8A072EF04F0036E013602C001F0026A9A
:1008CA00080E035CD8A072EF04F0036E0136016AC9
:1008DA000350D8A4D8907CEF04F00350D8B47CEF2E
:1008EA0004F0D89002320132032E76EF04F00BBCEA
:1008FA0001A089EF04F0D8A089EF04F0012AD8B446
:10090A00022A02BEA6EF04F00AAEABEF04F0021E02
:10091A00011E012AD8B4022AABEF04F0026A016A66
:10092A00ABEF04F00B800BAEAFEF04F0026A0AAE35
:10093A00AFEF04F0FF0E026E016E0A360232AFEF1D
:10094A0004F0010E0C6E15DDB1EF04F0000E0C6E12
:10095A00B1EF04F0FF0E0C6E0150006E0250016EF2
:02096A00120079
:10096C001BC11FF11CC120F111DD1BC11FF11CC1EA
:06097C0020F112DD120063
:100982001BC11FF11CC120F106DD1DC11FF11EC1DB
:0609920020F17CDF1200E1
:1009980000C008F00150006E016A026A036A0B6A1F
:1009A8000C6A016A026A036A960E036E0A6A00AE4E
:1009B800E4EF04F0081E001E082AD8B4002A0A8EA4
:1009C80000C001F008C000F0086A026A07DD1200E2
:0609D800067E3DDD120069
:0E09DE001BC11FF11CC120F153DF4CDF1200C2
:1009EC00086A096A000E076203647BEF05F0025087
:1009FC0006180A6E075003267E0ED8A00CEF05F0E1
:100A0C00035ED8B080EF05F010EF05F0035ED8A0C0
:100A1C0085EF05F0028E068E02C00EF001C00BF0C1
:100A2C0000C00DF000500402F4CF0CF00150050290
:100A3C00F4CF00F0F3CF08F00402F3500C26F4507E
:100A4C000822000E00220D500502F3500C26F45023
:100A5C000822000E002202500402F3500826F45023
:100A6C00002202500502016A000E0122F3500026FA
:100A7C00F45001220D500602F3500826F4500022C7
:100A8C00026A000E012202220B500602F3500026CD
:100A9C00F4500122000E02220E500602F3500126E1
:100AAC00F450022202BE63EF05F008360036013620
:100ABC0002360306D8B485EF05F076EF05F0D88042
:100ACC00800E08640030000E002201220222D8A001
:100ADC0076EF05F0023201320032034A80EF05F066
:100AEC000AAE029E000E88EF05F0010E0EEC00F02F
:100AFC0088EF05F0020E3DEC00F088EF05F0040ED7
:060B0C0049EC00F01200AC
:100B120081A80BD04E0E0001836F000E846F83C03C
:100B22001FF184C020F143DC0CD081B80AD0500EF2
:100B32000001836F000E846F83C01FF184C020F117
:100B420036DC81A60BD0190E0001836F000E846F74
:100B520083C01FF184C020F12ADC0CD081B60AD0F8
:100B62001B0E0001836F000E846F83C01FF184C0CF
:100B720020F11DDC83A80BD0150E0001836F000E3F
:100B8200846F83C01FF184C020F111DC0CD083B8C4
:100B92000AD0170E0001836F000E846F83C01FF10D
:100BA20084C020F104DC83AA0CD0210E0001836FE3
:100BB200000E846F83C01FF184C020F1D8EC01F0D5
:100BC2000DD083BA0BD0230E0001836F000E846F09
:100BD20083C01FF184C020F1D8EC01F083AC0CD0AB
:100BE2001D0E0001836F000E846F83C01FF184C04D
:100BF20020F1D8EC01F00DD083BC0BD01F0E000108
:100C0200836F000E846F83C01FF184C020F1D8EC83
:100C120001F083AE0CD0770E0001836F000E846F5B
:100C220083C01FF184C020F1D8EC01F00DD083BE47
:100C32000BD0790E0001836F000E846F83C01FF109
:100C420084C020F1D8EC01F081A40CD0730E000115
:100C5200836F000E846F83C01FF184C020F1D8EC33
:100C620001F00DD081B40BD0750E0001836F000E20
:100C7200846F83C01FF184C020F1D8EC01F081ACF5
:100C82000CD07F0E0001836F000E846F83C01FF1B2
:100C920084C020F1D8EC01F00DD081BC0BD0810EC4
:100CA2000001836F000E846F83C01FF184C020F1A6
:100CB200D8EC01F081AE0CD07B0E0001836F000EE8
:100CC200846F83C01FF184C020F1D8EC01F00DD0F5
:100CD20081BE0BD07D0E0001836F000E846F83C036
:100CE2001FF184C020F1D8EC01F081AA0CD0690E6A
:100CF2000001836F000E846F83C01FF184C020F156
:100D0200D8EC01F00DD081BA0BD06E0E0001836FCA
:100D1200000E846F83C01FF184C020F1D8EC01F073
:020D22001200BD
:100D24001BC11FF11CC120F1CCEC01F0ABDD1200A2
:060D3400A6DDA8DD12009F
:100D3A001BC11FF11CC120F199DD1BC11FF11CC190
:060D4A0020F1A0DD120003
:080D5000BE6ABD98BD9A1200B5
:100D58006E0E0001E66F030EE76F220EE86F010EBC
:100D6800E96F8E0EEA6F140EEB6F000EEC6F000E3B
:100D7800ED6FFF0EDE6FFF0EDF6F000EE06F000EEF
:100D8800E16FFF0EE26FFF0EE36F000EE46F000EDF
:100D9800E56FAC8A900EAB6E948E949C9EAA03D09D
:080DA800AECF00F0FBD71200F2
:0A0DB0009492CA840C0EBA121200CD
:0A0DBA009494CA840C0EBD121200BE
:100DC40083B809D083BA07D083BC05D083BE03D0CF
:100DD40081B401D00BD081B809D081B607D081BCD1
:100DE40005D081BE03D0010E006E01D0006A00520E
:100DF400D8A4E2D081AA14D081A812D081A610D0A0
:100E040083A80ED083AA0CD083AC0AD083AE08D0BA
:100E140081A406D081AC04D081AE02D089DFCBD0CE
:100E240081BA13D081B811D081B60FD083B80DD058
:100E340083AA0BD083AC09D083AE07D081A405D09C
:100E440081AC03D081AE01D016D081BA13D081B861
:100E540011D081B60FD083B80DD083BA0BD083AC38
:100E640009D083AE07D081A405D081AC03D081AE74
:100E740001D001D009D081BA06D00BC11BF10CC13D
:100E84001CF172DDF8D797D081BA2FD081A82DD06C
:100E940081A62BD083A829D083AA27D083AC25D0C0
:100EA40083AE23D081B421D081BC1FD081BE1DD09C
:100EB40081BA1BD081A819D081A617D083A815D0D8
:100EC40083AA13D083AC11D083BE0FD081B40DD0CC
:100ED40081BC0BD081BE09D081BA06D00BC11BF1F5
:100EE4000CC11CF128DFF8D766D083AA0CD083ACE0
:100EF4000AD00BC11BF10CC11CF10BC11DF10CC1BB
:100F04001EF13DDD58D083AA0AD083BC08D081AA43
:100F140006D00BC11BF10CC11CF15FDD4CD083BAB0
:100F24000AD083AC08D081AA06D00BC11BF10CC136
:100F34001CF1F6DE40D083AA0BD083BC09D081BA61
:100F440007D0F6DE0BC11BF10CC11CF1F4DE33D06B
:100F540083BA0BD083AC09D081BA07D0E9DE0BC1C8
:100F64001BF10CC11CF100DD26D083BA24D083BC54
:100F740022D083A806D00BC11BF10CC11CF1DBDE0F
:100F84001AD083AE06D00BC11BF10CC11CF1ECDCF2
:100F940012D081A606D00BC11BF10CC11CF1CBDE13
:100FA4000AD081A406D00BC11BF10CC11CF1DCDCFE
:0A0FB40002D0BEDEACDD04D712004F
:100FBE0083B80BD083BA09D083BC07D083BE05D0CB
:100FCE0081B403D0010E006E01D0006A0052D8A485
:100FDE007CD183A80DD083BA0BD083BC09D083BE3D
:100FEE0007D081B405D0040E0001FE6F000EFF6F16
:100FFE0083A80DD083AA0BD083BC09D083BE07D0A3
:10100E0081B405D00001030EFE6F000EFF6F83A8A2
:10101E000DD083AA0BD083AC09D083BE07D081B488
:10102E0005D00001020EFE6F000EFF6F83B80DD0CB
:10103E0083AA0BD083BC09D083BE07D081B405D060
:10104E000001010EFE6F000EFF6F83B80BD083AA56
:10105E0009D083AC07D083BE05D081B403D0000184
:10106E00FE6BFF6B83B80BD083AA09D083AC07D07D
:10107E0083AE05D081B403D00001FE6BFF6B83B845
:10108E000BD083BA09D083AC07D083BE05D081B410
:10109E0003D00001FE6BFF6B83B80BD083BA09D06F
:1010AE0083AC07D083AE05D081B403D00001FE6BB4
:1010BE00FF6B83B80DD083BA0BD083BC09D083AE3F
:1010CE0007D081B405D00001FF0EFE6FFF0EFF6F3B
:1010DE0083B80DD083BA0BD083AC09D083AE07D0C2
:1010EE0081A405D00001FE0EFE6FFF0EFF6F83B8C8
:1010FE000DD083BA0BD083BC09D083AE07D081A4A8
:10110E0005D00001FD0EFE6FFF0EFF6F83B80DD0F0
:10111E0083BA0BD083BC09D083BE07D081A405D07F
:10112E000001FC0EFE6FFF0EFF6F0001FEC000F00F
:10113E00FFC001F02ADCF6C004F0F7C005F0F8C0DD
:10114E0006F0F9C007F04BDC00C00FF101C010F142
:10115E0002C011F103C012F1F2C000F0F3C001F0B1
:10116E00F4C002F0F5C003F0EEC004F0EFC005F0DD
:10117E00F0C006F0F1C007F032DC0FC104F010C170
:10118E0005F011C106F012C107F02BEC02F000C001
:10119E000FF101C010F102C011F103C012F1FC51A8
:1011AE00FE5D006EFD51FF59016ECCEC04F001C1E5
:1011BE0004F002C105F003C106F004C107F00FDC14
:1011CE000FC104F010C105F011C106F012C107F0F5
:1011DE002BEC02F000C017F101C018F102C019F19A
:1011EE0003C01AF117C105F118C106F119C107F1B3
:1011FE001AC108F1EEC000F0EFC001F0F0C002F02D
:10120E00F1C003F017C104F018C105F019C106F0C2
:10121E001AC107F02BEC02F000C0EEF001C0EFF0A7
:10122E0002C0F0F003C0F1F0FEC0FCF0FFC0FDF014
:10123E0009C100F00AC101F0CCEC04F000C013F1BA
:10124E0001C014F102C015F103C016F117C104F06C
:10125E0018C105F019C106F01AC107F013C100F04C
:10126E0014C101F015C102F016C103F0ECEC04F04C
:10127E004DEC04F000C00FF101C010F10FC1FAF0F7
:10128E0010C1FBF013C100F014C101F015C102F042
:10129E0016C103F017C104F018C105F019C106F00C
:1012AE001AC107F02BEC02F04DEC04F000C00DF16A
:1012BE0001C00EF10FC11BF110C11CF100C01DF1D8
:1012CE0001C01EF1C1EC04F073D60101056B066B73
:1012DE00076B086B0001EE6BEF6BF06BF16B12009E
:0812EE00BB6ABA98BA9A12001B
:1012F6000900F5CFE6FF0006FBE10106F9E1120061
:10130600FF0E926EFF0E936E946AF00E956E806AD3
:10131600816A826A836ACA80CA92F90ECB6E15DD2B
:10132600CA80CA92F90ECB6EDFDF44DD3EDD810E48
:0E133600AF6EAC840EDDC10EC26EC16A120035
:1013440083B809D083BA07D083BC05D083BE03D049
:1013540081B401D015D081B813D081B611D081BC2D
:101364000FD081BE0DD0C20E0001836F000E846FBA
:1013740083C01FF184C020F1D8EC01F01EDE83D0BD
:1013840081AA15D081A813D081A611D083A80FD02B
:1013940083AA0DD083AC0BD083AE09D081A407D02F
:1013A40081AC05D081AE03D0010E006E01D0006A7D
:1013B40000521BE081BA15D081B813D081B611D088
:1013C40083B80FD083BA0DD083BC0BD083BE09D0B1
:1013D40081B407D081BC05D081BE03D0010E006E5C
:1013E40001D0006A005201E00DD00001AA0E836F03
:1013F400000E846F83C01FF184C020F1D8EC01F08B
:10140400DFDC41D081AA13D081A811D081A60FD0EE
:1014140083A80DD083AA0BD083AC09D083AE07D0A8
:1014240081A405D081AC03D081AE01D01BD081BA98
:1014340015D081B813D081B611D083B80FD083BA38
:101444000DD083BC0BD083BE09D081B407D081BC3E
:1014540005D081BE03D0010E006E01D0006A005297
:1014640001E011D065DC89EC05F0060E0B6E130E5D
:101474000C6EAD0E0D6E0D2EFED70C2EFCD70B2E62
:0A148400FAD7000000005CD7120048
:10148E00AECF01F0ABA202D0AB98AB8801C000F09A
:02149E0012003A
:1014A000B90E0001DA6F000EDB6FB40E0101096F97
:1014B000000E0A6FFF0E0001DC6F000EDD6FC80E1C
:1014C00001010B6F000E0C6F000E0001F66F000E95
:1014D000F76F100EF86F820EF96FF26BF36BF46B0F
:1014E000F56B0101016B026B036B046B0001EE6B8A
:1014F000EF6BF06BF16BFC6BFD6BFA6BFB6B01013F
:101500000D6B0E6BB40E226F90EC00F009C122F14E
:061510005AEC00F012008D
:1015160047EC0BF0F5DE35C01FF136C020F1D8ECF4
:1015260001F0BBDF370E0001836F000E846F83C0AE
:101536001FF184C020F1D8EC01F01A0E0B6E5E0E7E
:101546000C6E6E0E0D6E0D2EFED70C2EFCD70B2ECE
:10155600FAD70000250E0001836F000E846F83C04A
:101566001FF184C020F1D8EC01F00001D76BD86BD5
:10157600800ED819006E800E005C02E1050ED75D64
:1015860016E282DF00C0D9F089EC05F01A0E0B6E68
:101596005E0E0C6E6E0E0D6E0D2EFED70C2EFCD74B
:1015A6000B2EFAD700000001D74BD82BE1D7520EED
:1015B600836F000E846F83C01FF184C020F1D8ECC6
:0615C60001F0BDDEFFD7BD
:10168E0010EE15F0C20E006E010E016ECC0EF66E4F
:0E169E00150EF76E000EF86E7BEC09F01200D0
:0215CC003100EC
:0215CE003000EB
:0215D0003100E8
:0215D2003000E7
:0215D4003100E4
:0215D6003000E3
:0215D8003100E0
:0215DA003000DF
:1015DC00546573742053656E736F727320202000F2
:0215EC00850078
:1015EE002020202020202020202053746172746936
:0715FE006E672E2E20200075
:021605003100B2
:021607003000B1
:101609005374617274204C696E6520666F6C6C6FDF
:07161900772E2E2020200097
:0516200020313B200019
:0516250020303B200015
:02162A0031008D
:02162C0030008C
:02162E00310089
:02163000300088
:02163200310085
:02163400300084
:02163600310081
:02163800300080
:02163A009D0011
:10163C00436F6E6E656374696F6E2045737461627F
:08164C006C69736865642100FC
:0D1654006D6F766520666F727761726400BD
:101661004C696E6520666F6C6C6F77204E6F726D82
:08167100616C2E2E20202000E8
:101679004C696E6520666F6C6C6F77205049442EFB
:051689002E20202000CE
:020000040030CA
:0D000100220F0EFF0181FF0FC00FE00F4026
:00000001FF
