:10000000F0EF02F00000000000EF00F00000000040
:0A0010000000000000000000F3D71C
:10001C000B6A0A6A096A00500402F4CF09F0F3CFA4
:10002C0008F001500502F4CF0BF0F3CF0AF00050AA
:10003C000502F3500926F4500A22E86A0B220150FB
:10004C000402F3500926F4500A22E86A0B2208C075
:10005C0000F009C001F00AC002F00BC003F012005E
:10006C00CB50010F006E016A000E0122D3C004F0C8
:10007C00000E056ECDDF060E026E00C004F001C04E
:10008C0005F0025005E005320432059EFF0FFAD749
:10009C00040E016E04C000F0015004E00036009024
:1000AC00FF0FFBD7300E0014036E04C000F005C028
:1000BC0001F001320032019E01320032019E00C07B
:0C00CC00BBFF0F0EBA160350BA12120050
:1000D800CB50010F006E016A000E0122D3C004F05C
:1000E800000E056E97DF060E026E00C004F001C018
:1000F80005F0025005E005320432059EFF0FFAD7DD
:10010800040E016E04C000F0015004E000360090B7
:10011800FF0FFBD7300E0014036E04C000F005C0BB
:1001280001F001320032019E01320032019E00C00E
:0C013800BEFF0F0EBD160350BD121200DA
:0601440083848386120093
:0C014A008288829AD1C0D3F0C2DF12007C
:060156008288828A12007B
:0E015C00ACB202D00000FCD7D1C0ADFF120043
:0C016A008298828AD1C0D3F0B2DF12006C
:0C01760083848396D1C0D3F076DF1200A2
:0C01820083948386D1C0D3F070DF12009C
:0E018E00CDC0D1F0CEC0D2F0EFDFDEDF120028
:10019C00CDC0D1F0CEC0D2F0E8DFCFC0D1F0D0C00E
:0601AC00D2F0CDDF1200CD
:1001B200CDC0D1F0CEC0D2F0E3DFCDC0D1F0CEC001
:0601C200D2F0C2DF1200C2
:0E01C800CDC0D1F0CEC0D2F0BCDFB8DF120047
:1001D600CDC0D1F0CEC0D2F0CBDFCDC0D1F0CEC0F5
:0601E600D2F0C0DF1200A0
:0A01EC009492CA840C0EBA1212009D
:1001F6005C0E0001AD6F010EAE6FD10EAF6F000E3B
:10020600B06F000EB96F040EBA6F000EBB6F000E12
:10021600BC6FFF0EB56FFF0EB66F000EB76F000E08
:10022600B86FFF0EB16FFF0EB26F000EB36F000E08
:10023600B46FAC8A900EAB6E948E949C9EAA03D03B
:08024600AECF00F0FBD712005F
:0A024E009494CA840C0EBD12120035
:100258000001D06BCDC0E9FFCEC0EAFFEECFCFF0F2
:10026800CF51000A0EE0CFC0D1F074DF0001D02BCF
:10027800D051CD25E96E000ECE21EA6EEECFCFF03B
:04028800EFD712009A
:06028C005BDF63DF1200DE
:08029200BE6ABD98BD9A12007E
:08029A00BB6ABA98BA9A12007F
:1002A20083AA0CD083AC0AD0C9C0CDF0CAC0CEF0AC
:1002B200C9C0CFF0CAC0D0F070DF54D083AA0AD030
:1002C20083BC08D081AA06D0C9C0CDF0CAC0CEF086
:1002D2007ADF48D083BA0AD083AC08D081AA06D08C
:1002E200C9C0CDF0CAC0CEF051DF3CD083AA0AD03B
:1002F20083BC08D081BA06D0C9C0CDF0CAC0CEF046
:1003020062DF30D083BA0AD083AC08D081BA06D07B
:10031200C9C0CDF0CAC0CEF039DF24D083BA22D012
:1003220083BC20D083A806D0C9C0CDF0CAC0CEF00D
:100332004ADF17D083AE06D0C9C0CDF0CAC0CEF016
:1003420025DF0FD081A606D0C9C0CDF0CAC0CEF03D
:100352002FDF07D081A405D0C9C0CDF0CAC0CEF02E
:0803620039DF93DF9DD7120083
:10036A000900F5CFE6FF0006FBE10106F9E11200FC
:10037A00FF0E926EFF0E936E946AF00E956E806A6F
:10038A00816A826A836ACA80CA92F90ECB6E7CDF5E
:10039A00CA80CA92F90ECB6E7BDF54DF22DF810E50
:0E03AA00AF6EAC8423DFC10EC26EC16A1200BA
:1003B8009B0E0001CB6F000ECC6FD20EC76F000EE4
:1003C800C86FFF0EC16F000EC26FC80EC96F000E56
:1003D800CA6F000EBD6F000EBE6F200EBF6F820E7B
:1003E800C06FC36BC46BC56BC66BD20ED36F70DEA8
:0803F800C7C0D3F037DE12008C
:10040000AECF01F0ABA202D0AB98AB8801C000F038
:020410001200D8
:1004120081A80AD0230E3C6E000E3D6E3CC0CDF08A
:100422003DC0CEF018DF0BD081B809D0190E3C6E5A
:10043200000E3D6E3CC0CDF03DC0CEF00CDF81A67B
:100442000AD0170E3C6E000E3D6E3CC0CDF03DC092
:10045200CEF001DF0BD081B609D0150E3C6E000E36
:100462003D6E3CC0CDF03DC0CEF0F5DE83A80AD093
:100472001B0E3C6E000E3D6E3CC0CDF03DC0CEF07A
:10048200EADE0BD083B809D0210E3C6E000E3D6E21
:100492003CC0CDF03DC0CEF0DEDE83AA0AD01F0EF6
:1004A2003C6E000E3D6E3CC0CDF03DC0CEF0D3DEC2
:1004B2000BD083BA09D01D0E3C6E000E3D6E3CC0BF
:1004C200CDF03DC0CEF0C7DE83AC0AD0670E3C6EE5
:1004D200000E3D6E3CC0CDF03DC0CEF0BCDE0BD078
:1004E20083BC09D07B0E3C6E000E3D6E3CC0CDF04D
:1004F2003DC0CEF0B0DE83AE0AD0790E3C6E000E67
:100502003D6E3CC0CDF03DC0CEF0A5DE0BD083BE2B
:1005120009D0770E3C6E000E3D6E3CC0CDF03DC062
:10052200CEF099DE81A40AD07D0E3C6E000E3D6EA7
:100532003CC0CDF03DC0CEF08EDE0BD081B409D0F0
:10054200830E3C6E000E3D6E3CC0CDF03DC0CEF041
:1005520082DE81AC0AD0810E3C6E000E3D6E3CC044
:10056200CDF03DC0CEF077DE0BD081BC09D07F0E3E
:100572003C6E000E3D6E3CC0CDF03DC0CEF06BDE59
:1005820081AE0AD0750E3C6E000E3D6E3CC0CDF0C1
:100592003DC0CEF060DE0BD081BE09D0730E3C6E42
:1005A200000E3D6E3CC0CDF03DC0CEF054DE81AABF
:1005B2000AD06E0E3C6E000E3D6E3CC0CDF03DC0CA
:1005C200CEF049DE0BD081BA09D0690E3C6E000E26
:0E05D2003D6E3CC0CDF03DC0CEF03DDE1200CF
:1005E0008DEC03F0CADE3EC0CDF03FC0CEF034DE6D
:1005F000E3DE250E3C6E000E3D6E3CC0CDF03DC0EE
:10060000CEF02ADE1A0E0B6E5E0E0C6E6E0E0D6EA6
:100610000D2EFED70C2EFCD70B2EFAD70000400E65
:100620003C6E000E3D6E3CC0CDF03DC0CEF014DE01
:10063000AB6BAC6B800EAC19006E800E005C02E1FF
:10064000020EAB5D14E2DCDE00C0AAF0E2DE1A0EA0
:100650000B6E5E0E0C6E6E0E0D6E0D2EFED70C2EFA
:10066000FCD70B2EFAD70000AB4BAC2BE3D7500EC8
:100670003C6E000E3D6E3CC0CDF03DC0CEF0ECDDDA
:0406800010DEFFD7B2
:10071A0010EE15F0950E006E010E016E840EF66E47
:0E072A00060EF76E000EF86EB5EC01F0120030
:02068400300044
:02068600310041
:02068800300040
:02068A0031003D
:02068C0030003C
:02068E00310039
:02069000300038
:02069200310035
:10069400202020202020202020205374617274699F
:0706A4006E672E2E202000DE
:0206AB008500C8
:0206AD009200B9
:1006AF00546573742053656E736F7273202020002E
:1006BF005374617274204C696E6520666F6C6C6F39
:0706CF00772E2E20202000F1
:0206D6003100F1
:0506D80020303B200072
:0506DD0020313B20006C
:0206E2003000E6
:0206E4003100E3
:0206E6003000E2
:0206E8003100DF
:0206EA003000DE
:0206EC003100DB
:0206EE003000DA
:0206F0003100D7
:0206F2003000D6
:0D06F4006D6F766520666F7277617264002D
:10070100436F6E6E656374696F6E204573746162C9
:080711006C6973686564210046
:020000040030CA
:0D000100220F0EFF0181FF0FC00FE00F4026
:00000001FF
