:10000000E6EF09F00000000000EF00F00000000043
:0A0010000000000000000000F3D71C
:10001C000B820BAE18EF00F00368026801680068F1
:08002C000A360232FF0E120039
:0E003400026A016A006A086A036A000E12007E
:100042000B6A0A6A096A00500402F4CF09F0F3CF7E
:1000520008F001500502F4CF0BF0F3CF0AF0005084
:100062000502F3500926F4500A22E86A0B220150D5
:100072000402F3500926F4500A22E86A0B2208C04F
:1000820000F009C001F00AC002F00BC003F0120038
:100092000B840BAE54EF00F0010E036E026A016A8C
:0A00A200006A0A360232FF0E120057
:0800AC000AAE029E000E1200D4
:1000B400CB50010F006E016A000E012285C104F0CD
:1000C400000E056EBCDF060E026E00C004F001C017
:1000D40005F0025005E005320432059EFF0FFAD701
:1000E400040E016E04C000F0015004E000360090DC
:1000F400FF0FFBD7300E0014036E04C000F005C0E0
:1001040001F001320032019E01320032019E00C032
:0C011400BBFF0F0EBA160350BA12120007
:0E012000ACB202D00000FCD785C1ADFF1200CA
:10012E000CB0D9EF00F00CA27FEF01F00E6A000EBA
:10013E000264F0EF00F0F00E0214D8A4BBEF00F052
:10014E00023A01380F0B02260138F00B016E00380F
:10015E000F0B01260038F00B006E08380F0B00262F
:10016E000838F00B086E0E84D89002BED4EF00F063
:10017E0008360036013602360E2A02BED4EF00F0E3
:10018E0008360036013602360E2A02BED4EF00F0D3
:10019E0008360036013602360E2A0E50036475EF0D
:1001AE0001F0035E0BBC08AE7AEF01F0D880800E32
:1001BE0008640030000E002201220222D8A07AEF3D
:1001CE0001F0023201320032034A7FEF01F07AEF82
:1001DE0001F001C002F000C001F008C000F0086A92
:1001EE00000E0E86026427EF01F0F00E0214D8A462
:1001FE000FEF01F0023A01380F0B02260138F00B17
:10020E00016E00380F0B01260038F00B006E0E84C5
:10021E00D89002BED4EF00F00036013602360E2A18
:10022E0002BED4EF00F00036013602360E2A02BEB0
:10023E00D4EF00F00036013602360E2AD4EF00F06D
:10024E0001C002F000C001F0006A000E0E960E888A
:10025E00026454EF01F0F00E0214D8A43FEF01F047
:10026E00023A01380F0B02260138F00B016E0E8494
:10027E00D89002BED4EF00F0013602360E2A02BE2E
:10028E00D4EF00F0013602360E2A02BED4EF00F093
:10029E00013602360E2AD4EF00F001C002F0016AD8
:1002AE00000E0E86026484EF01F0F00E0214D8A444
:1002BE0063EF01F0023A0E84D89002BED4EF00F044
:1002CE0002360E2A02BED4EF00F002360E2A02BE0D
:1002DE00D4EF00F002360E2AD4EF00F0010E0C6EB1
:1002EE00D1DE87EF01F0020E0C6ED9DE87EF01F042
:1002FE00040E0C6E8CDE87EF01F0080E0C6E93DE92
:02030E001200DB
:10031000CB50010F006E016A000E012285C104F06E
:10032000000E056E8EDE060E026E00C004F001C0E7
:1003300005F0025005E005320432059EFF0FFAD7A2
:10034000040E016E04C000F0015004E0003600907D
:10035000FF0FFBD7300E0014036E04C000F005C081
:1003600001F001320032019E01320032019E00C0D4
:0C037000BEFF0F0EBD160350BD121200A0
:0C037C008298828A81C185F1C5DF1200E1
:0C0388008394838681C185F191DE120010
:0C0394008288829A81C185F1B9DF1200D5
:0603A00083848386120035
:1003A6000101846B81C1E9FF82C1EAFFEECF83F1CF
:1003B6008351000A0EE083C185F1AFDE0101842B73
:1003C60084518125E96E000E8221EA6EEECF83F11B
:0403D600EFD712004B
:0603DA008288828A1200F5
:0C03E0008384839681C185F165DE1200E4
:1003EC000B800BAE02EF02F0026A0AAEFF0E026E39
:0C03FC00016E006E0A360232FF0E120085
:100408000C6A0E6A0250D8A41DEF02F001C002F077
:1004180000C001F0006A0E860250D8A41DEF02F059
:1004280001C002F0016A0E960E880250D8B42FEF70
:1004380002F00E50035ED8A4D8A034EF02F0D89092
:1004480002BE39EF02F0003601360236032E24EFE1
:1004580002F034EF02F0010E0C6EE8DD3CEF02F022
:10046800020E0C6E12DE3CEF02F0040E0C6E1ADE69
:02047800120070
:10047A00025006180E6E086A096A0B6A035007646E
:10048A0030EF03F006500A6E068E028E03500B6E92
:10049A000750036E000E0B6480EF02F00B50075EEC
:1004AA00D8B421EF03F0070E0764EFEF02F0075EFE
:1004BA0000C008F001C000F002C001F0026A074E55
:1004CA0021EF03F00764C4EF02F0075E00C008F0F2
:1004DA0001C000F0016A074E21EF03F00764A2EFA2
:1004EA0002F0075E00C008F0006A074E21EF03F031
:1004FA00076489EF02F00AC002F005C001F004C0E7
:10050A0000F0086A4BEF04F0030E076494EF02F060
:10051A00075E08380F0B086E074E21EF03F0D890DC
:10052A000832074E21EF03F0D8900832074E21EF28
:10053A0003F0D890083221EF03F0030E0764B3EFFB
:10054A0002F0075E08380F0B086E0038F00B082619
:10055A0000380F0B006E074E21EF03F0D8900032DF
:10056A000832074E21EF03F0D89000320832074EC6
:10057A0021EF03F0D8900032083221EF03F0030E86
:10058A000764DBEF02F0075E08380F0B086E0038CD
:10059A00F00B082600380F0B006E0138F00B00260E
:1005AA0001380F0B016E074E21EF03F0D89001328C
:1005BA0000320832074E21EF03F0D89001320032A0
:1005CA000832074E21EF03F0D89001320032083288
:1005DA0021EF03F0030E07640CEF03F0075E0838FF
:1005EA000F0B086E0038F00B082600380F0B006E50
:1005FA000138F00B002601380F0B016E0238F00BA0
:10060A00012602380F0B026E074E21EF03F0D89035
:10061A000232013200320832074E21EF03F0D8903D
:10062A000232013200320832074E21EF03F0D8902D
:10063A000232013200320832096A000E0EAE15EF9C
:10064A0004F0081E001E011E021E082A00220122B2
:10065A00022215EF04F00750D8A436EF03F04BEF4F
:10066A0004F0096A02C00AF0028E068E0750035C83
:10067A00076ED8B408EF04F0070E0764D6EF03F04C
:10068A00075E0450096E0550046E0650056E066A30
:10069A00074E08EF04F0070E0764ABEF03F0075E9E
:1006AA000450096E0550046E056A074E08EF04F0FF
:1006BA00070E076489EF03F0075E0450096E046AA7
:1006CA00074E08EF04F0070E076470EF03F00AC044
:1006DA0002F04BEF04F0030E07647BEF03F0075EB2
:1006EA0009380F0B096E074E08EF04F0D89009324B
:1006FA00074E08EF04F0D8900932074E08EF04F0CD
:10070A00D890093208EF04F0030E07649AEF03F059
:10071A00075E09380F0B096E0438F00B09260438F6
:10072A000F0B046E074E08EF04F0D890043209321A
:10073A00074E08EF04F0D89004320932074E08EF4A
:10074A0004F0D8900432093208EF04F0030E07646B
:10075A00C2EF03F0075E09380F0B096E0438F00B7D
:10076A00092604380F0B046E0538F00B04260538E9
:10077A000F0B056E074E08EF04F0D89005320432CD
:10078A000932074E08EF04F0D890053204320932D4
:10079A00074E08EF04F0D89005320432093208EF08
:1007AA0004F0030E0764F3EF03F0075E09380F0B3A
:1007BA00096E0438F00B092604380F0B046E05384D
:1007CA00F00B042605380F0B056E0638F00B0526CC
:1007DA0006380F0B066E074E08EF04F0D890063263
:1007EA00053204320932074E08EF04F0D890063277
:1007FA00053204320932074E08EF04F0D890063267
:10080A00053204320932086A000E0EAE15EF04F002
:10081A00091E041E051E061E092A04220522062296
:10082A0009500826045000220550012206500222CF
:10083A000EBE2CEF04F0D8A03BEF04F002320132D6
:10084A0000320832033E3BEF04F045EF04F0D8B023
:10085A0040EF04F0000E081E001E011E021E082AA8
:10086A000022012202220A7E40EF04F0010E0C6EE1
:10087A0059DC4DEF04F0020E0C6E54DC4DEF04F01F
:10088A00040E0C6E0EEC00F04DEF04F0000E0C6E30
:02089A0012004A
:10089C000B6A0350D8B494EF04F002500A6E028E27
:1008AC008E0E035E03AE98EF04F0036C080E035C2F
:1008BC00D8A073EF04F0036E013602C001F0026A97
:1008CC00080E035CD8A073EF04F0036E0136016AC6
:1008DC000350D8A4D8907DEF04F00350D8B47DEF2A
:1008EC0004F0D89002320132032E77EF04F00BBCE7
:1008FC0001A08AEF04F0D8A08AEF04F0012AD8B442
:10090C00022A02BEA7EF04F00AAEACEF04F0021EFE
:10091C00011E012AD8B4022AACEF04F0026A016A63
:10092C00ACEF04F00B800BAEB0EF04F0026A0AAE31
:10093C00B0EF04F0FF0E026E016E0A360232B0EF19
:10094C0004F0010E0C6E4CDDB2EF04F0000E0C6ED8
:10095C00B2EF04F0FF0E0C6E0150006E0250016EEF
:02096C00120077
:08096E00BB6ABA98BA9A1200A4
:1009760081A80BD0360E0001FD6F010EFE6FFDC083
:1009860081F1FEC082F10CDD0CD081B80AD0340EA4
:100996000001FD6F010EFE6FFDC081F1FEC082F108
:1009A600FFDC81A60BD0380E0001FD6F010EFE6F35
:1009B600FDC081F1FEC082F1F3DC0CD081B60AD015
:1009C6002C0E0001FD6F000EFE6FFDC081F1FEC012
:1009D60082F1E6DC83A80BD02E0E0001FD6F000E1F
:1009E600FE6FFDC081F1FEC082F1DADC0CD083B867
:1009F6000AD0280E0001FD6F000EFE6FFDC081F1CA
:100A0600FEC082F1CDDC83AA0BD02A0E0001FD6F59
:100A1600000EFE6FFDC081F1FEC082F1C1DC0CD07C
:100A260083BA0AD0340E0001FD6F000EFE6FFDC0C2
:100A360081F1FEC082F1B4DC83AC0BD0360E00012E
:100A4600FD6F000EFE6FFDC081F1FEC082F1A8DCD5
:100A56000CD083BC0AD0300E0001FD6F000EFE6F75
:100A6600FDC081F1FEC082F19BDC83AE0BD0320E5D
:100A76000001FD6F000EFE6FFDC081F1FEC082F128
:100A86008FDC0CD083BE0AD0190E0001FD6F000E5C
:100A9600FE6FFDC081F1FEC082F182DC81A40BD025
:100AA6001B0E0001FD6F000EFE6FFDC081F1FEC042
:100AB60082F176DC0CD081B40AD0150E0001FD6FF0
:100AC600000EFE6FFDC081F1FEC082F169DC81ACD3
:100AD6000BD0170E0001FD6F000EFE6FFDC081F1F9
:100AE600FEC082F15DDC0CD081BC0AD0240E000170
:100AF600FD6F000EFE6FFDC081F1FEC082F150DC7D
:100B060081AE0BD0260E0001FD6F000EFE6FFDC0FC
:100B160081F1FEC082F144DC0CD081BE0AD01D0EEC
:100B26000001FD6F000EFE6FFDC081F1FEC082F177
:100B360037DC81AA0BD01F0E0001FD6F000EFE6F81
:100B4600FDC081F1FEC082F12BDC0CD081BA0AD047
:100B5600C00E0001FD6F000EFE6FFDC081F1FEC0EC
:060B660082F11EDC12000A
:100B6C007DC181F17EC182F135DC7FC181F180C113
:060B7C0082F10ADC120008
:080B8200BE6ABD98BD9A120085
:0A0B8A009492CA840C0EBA121200F5
:0A0B94009494CA840C0EBD121200E6
:100B9E00200E0101496F010E4A6F850E4B6F010E3B
:100BAE004C6FF20E456F0D0E466F000E476F000E26
:100BBE00486FFF0E4D6FFF0E4E6F000E4F6F000E03
:100BCE00506FFF0E516FFF0E526F000E536F000EDF
:100BDE00546FAC8A900EAB6E948E949C9EAA03D0EA
:080BEE00AECF00F0FBD71200AE
:100BF6007DC181F17EC182F1C4EC01F07DC181F13C
:0A0C06007EC182F1CAEC01F0120079
:100C1000086A096A000E076203648DEF06F002504D
:100C200006180A6E075003267E0ED8A01EEF06F0A7
:100C3000035ED8B092EF06F022EF06F0035ED8A074
:100C400097EF06F0028E068E02C00EF001C00BF088
:100C500000C00DF000500402F4CF0CF0015005026A
:100C6000F4CF00F0F3CF08F00402F3500C26F45058
:100C70000822000E00220D500502F3500C26F450FD
:100C80000822000E002202500402F3500826F450FD
:100C9000002202500502016A000E0122F3500026D4
:100CA000F45001220D500602F3500826F4500022A1
:100CB000026A000E012202220B500602F3500026A7
:100CC000F4500122000E02220E500602F3500126BB
:100CD000F450022202BE75EF06F0083600360136E7
:100CE00002360306D8B497EF06F088EF06F0D880F6
:100CF000800E08640030000E002201220222D8A0DB
:100D000088EF06F0023201320032034A92EF06F019
:100D10000AAE029E000E9AEF06F0010E1AEC00F0E9
:100D20009AEF06F0020E0EEC00F09AEF06F0040EB9
:060D300049EC00F0120086
:100D360000C008F00150006E016A026A036A0B6A7D
:100D46000C6A016A026A036A960E036E0A6A00AEAC
:100D5600B3EF06F0081E001E082AD8B4002A0A8E31
:100D660000C001F008C000F0086A026A04EC02F054
:020D7600120069
:100D78007DC181F17EC182F1F0EC01F07DC181F18C
:0A0D88007EC182F1BEEC01F0120002
:080D9200067E3DEC02F01200A8
:0A0D9A00D0EC01F0EDEC01F01200C6
:100DA4000900F5CFE6FF0006FBE10106F9E11200B8
:100DB400FF0E926EFF0E936E946AF00E956E806A2B
:100DC400816A826A836ACA80CA92F90ECB6ED7DEC0
:100DD400CA80CA92F90ECB6EC8DDDADED4DE810E8B
:0E0DE400AF6EAC84DADEC10EC26EC16A1200C0
:100DF200AECF01F0ABA202D0AB98AB8801C000F03D
:020E02001200DC
:100E040083B809D083BA07D083BC05D083BE03D08E
:100E140081B401D0F4D181B8F2D181B6F0D181BCD2
:100E2400EED181BEECD181BA13D081B811D081B694
:100E34000FD083B80DD083AA0BD083AC09D083AE76
:100E440007D081A405D081AC03D081AE01D016D0E7
:100E540081BA13D081B811D081B60FD083B80DD028
:100E640083BA0BD083AC09D083AE07D081A405D05C
:100E740081AC03D081AE01D001D015D0EC0E0001BD
:100E8400FD6F000EFE6FFDC081F1FEC082F1D3EC58
:100E940001F06FDD81BA06D041C17DF142C17EF11E
:100EA40069DFF8D734D081BA32D081A830D081A696
:100EB4002ED083A82CD083AA2AD081B428D081BC78
:100EC40026D081BE24D081BA22D081A820D081A688
:100ED4001ED083A81CD083AA1AD081B418D081BC98
:100EE40016D081BE14D0FF0E0001FD6F000EFE6F00
:100EF400FDC081F1FEC082F1D3EC01F03ADD81BA8C
:100F040006D041C17DF142C17EF173DEF8D783A8DA
:100F14000DD083BA0BD083BC09D083BE07D081B473
:100F240005D0040E0101436F000E446F83A80DD059
:100F340083AA0BD083BC09D083BE07D081B405D06B
:100F44000101030E436F000E446F83A80DD083AAE2
:100F54000BD083AC09D083BE07D081B405D0010186
:100F6400020E436F000E446F83B80DD083AA0BD0DA
:100F740083BC09D083BE07D081B405D00101010E22
:100F8400436F000E446F83B80BD083AA09D083AC9F
:100F940007D083BE05D081B403D00101436B446BF9
:100FA40083B80BD083AA09D083AC07D083AE05D015
:100FB40081B403D00101436B446B83B80BD083BA73
:100FC40009D083AC07D083BE05D081B403D001011E
:100FD400436B446B83B80BD083BA09D083AC07D07E
:100FE40083AE05D081B403D00101436B446B83B855
:100FF4000DD083BA0BD083BC09D083AE07D081B4A3
:1010040005D00101FF0E436FFF0E446F83B80DD06E
:1010140083BA0BD083AC09D083AE07D081A405D0AA
:101024000101FE0E436FFF0E446F83B80DD083BAE7
:101034000BD083BC09D083AE07D081A405D00101B5
:10104400FD0E436FFF0E446F83B80DD083BA0BD0EF
:1010540083BC09D083BE07D081A405D00101FC0E56
:10106400436FFF0E446F010143C100F044C101F01E
:1010740060DE63C104F064C105F065C106F066C1B9
:1010840007F0C4DD00C071F101C072F102C073F158
:1010940003C074F15FC100F060C101F061C102F0EE
:1010A40062C103F067C104F068C105F069C106F0CC
:1010B4006AC107F0ABDD71C104F072C105F073C100
:1010C40006F074C107F03DEC02F000C071F101C0FC
:1010D40072F102C073F103C074F16B51435D006E91
:1010E4006C514459016E25DE6DC104F06EC105F0EA
:1010F4006FC106F070C107F089DD71C104F072C1DF
:1011040005F073C106F074C107F03DEC02F000C0B5
:1011140079F101C07AF102C07BF103C07CF179C19D
:1011240055F17AC156F17BC157F17CC158F167C1C1
:1011340000F068C101F069C102F06AC103F079C12D
:1011440004F07AC105F07BC106F07CC107F03DECE8
:1011540002F000C067F101C068F102C069F103C088
:101164006AF143C16BF144C16CF15BC100F05CC135
:1011740001F0DFDD00C075F101C076F102C077F146
:1011840003C078F175C100F076C101F077C102F0B7
:1011940078C103F079C104F07AC105F07BC106F08F
:1011A4007CC107F03DEC02F04EEC04F000C071F19C
:1011B40001C072F171C159F172C15AF179C104F0DF
:1011C4007AC105F07BC106F07CC107F075C100F05F
:1011D40076C101F077C102F078C103F0D8DD4EEC9E
:1011E40004F000C05DF101C05EF171C17DF172C116
:1011F4007EF100C07FF101C080F1B6DC01D60101AF
:10120400556B566B576B586B676B686B696B6A6B86
:021214001200C6
:10121600C80E01017D6F000E7E6FC80E7F6F000E37
:10122600806FA1DC500E0001FD6F000EFE6FFDC049
:1012360081F1FEC082F1D3EC01F07F0E0B6ED40E6D
:101246000C6E310E0D6E0D2EFED70C2EFCD70B2E0E
:10125600FAD700000000FF0E816F000E826FCAEC05
:1012660001F0A90E0001FD6F000EFE6FFDC081F1B9
:10127600FEC082F1D3EC01F0D0EC01F07F0E0B6ED4
:10128600D40E0C6E310E0D6E0D2EFED70C2EFCD725
:101296000B2EFAD700000000FF0E816F000E826F42
:1012A600F0EC01F0B30E0001FD6F000EFE6FFDC005
:1012B60081F1FEC082F1D3EC01F0EDEC01F07F0E7E
:1012C6000B6ED40E0C6E310E0D6E0D2EFED70C2E3F
:1012D600FCD70B2EFAD7000000005CDD890E00015A
:1012E600FD6F000EFE6FFDC081F1FEC082F1D3ECF2
:1012F60001F0970E0001FD6F000EFE6FFDC081F13B
:10130600FEC082F1D3EC01F0FF0E3E6F000E3F6F80
:10131600800E006E800E3F19005C02E13E5100080F
:101326001DE23EC17DF13FC17EF13EC17FF13FC16D
:1013360080F119DC030E0B6E8A0E0C6E550E0D6EC7
:101346000D2EFED70C2EFCD70B2EFAD70000000070
:0E135600010E01013E5F000E3F5BDAD7120070
:10136400B90E01013C6F000E3D6FB40E5B6F000EB1
:101374005C6FFF0E3A6F000E3B6FC80E416F000E9C
:10138400426F000E636F000E646F100E656F820E65
:10139400666F5F6B606B616B626B6D6B6E6B6F6BBB
:1013A400706B676B686B696B6A6B6B6B6C6B596B9F
:1013B4005A6B5D6B5E6BB40E856F88EC01F05BC19C
:0813C40085F15AEC00F0120063
:1013CC002EEC0BF0F1DCBEC081F1BFC082F1D3EC8E
:1013DC0001F0C2DFC50E0001FD6F000EFE6FFDC0F7
:1013EC0081F1FEC082F1D3EC01F01A0E0B6E5E0E91
:1013FC000C6E6E0E0D6E0D2EFED70C2EFCD70B2E1A
:10140C00FAD70000DC0E0001FD6F000EFE6FFDC070
:10141C0081F1FEC082F1D3EC01F03E6B3F6B800E8C
:10142C003F19006E800E005C02E1010E3E5D15E27C
:10143C00DADC00C040F1BBEC04F01A0E0B6E5E0E51
:10144C000C6E6E0E0D6E0D2EFED70C2EFCD70B2EC9
:10145C00FAD700003E4B3F2BE2D75F0E0001FD6F29
:10146C00000EFE6FFDC081F1FEC082F1D3EC01F0E5
:10147C00C3DCCBDE760E0001FD6F000EFE6FFDC0EF
:10148C0081F1FEC082F1D3EC01F0FF0E7D6F000EF6
:10149C007E6F6CDC060E0B6E950E0C6E8C0E0D6E4C
:1014AC000D2EFED70C2EFCD70B2EFAD700006FDCBE
:1014BC00330E0B6EBB0E0C6EDF0E0D6E0D2EFED7AB
:1014CC000C2EFCD70B2EFAD700000000380E0001B2
:1014DC00FD6F000EFE6FFDC081F1FEC082F1D3ECFA
:1014EC0001F0FF0E7D6F000E7E6FFBEC05F0060E1B
:1014FC000B6E950E0C6E8C0E0D6E0D2EFED70C2EEB
:10150C00FCD70B2EFAD7000042DC330E0B6EBB0E51
:10151C000C6EDF0E0D6E0D2EFED70C2EFCD70B2E87
:0A152C00FAD700000000A6D7FFD791
:10165C0010EE15F0250E006E020E016E360EF66EB3
:0E166C00150EF76E000EF86ED2EC06F01200AE
:02153600300083
:02153800310080
:02153A0030007F
:02153C0031007C
:02153E0030007B
:0515400020313B2000FA
:02154500300074
:02154700310071
:02154900300070
:02154B0031006D
:02154D0030006C
:02154F00310069
:02155100300068
:02155300310065
:02155500300064
:02155700310061
:1015590020526F7461746520416E746920436C6F09
:08156900636B776973652000D4
:0F1571006D6F766520466F72776172642020007F
:101580005374617274204C696E6520666F6C6C6F69
:07159000772E2E2020200021
:1015970020526F7461746520436C6F636B77697356
:0315A700652000BC
:0E15AA0053746F7070696E672E2E2020200023
:1015B80044656372656173652050574D2E2E202057
:0215C800200001
:0A15CA007475726E204C65667400A3
:0B15D4007475726E2052696768740025
:0215DF000F01FA
:0515E10020303B20005A
:1015E600202020202020202020205374617274693E
:0715F6006E672E2E2020007D
:1015FD00546573742053656E736F727320202000D1
:10160D00393020746F2072696768742E2E20202067
:01161D0000CC
:02161E002701A2
:10162000393020746F206C6566742E2E20202000C7
:10163000436F6E6E656374696F6E2045737461628B
:081640006C6973686564210008
:0D1648006D6F766520666F727761726400C9
:02165500300063
:02165700310060
:0216590031005E
:020000040030CA
:0D000100220F0EFF0181FF0FC00FE00F4026
:00000001FF
